{"abi":[{"type":"constructor","inputs":[{"name":"_ledger","type":"address","internalType":"address"}],"stateMutability":"nonpayable"},{"type":"function","name":"BASIS_POINTS","inputs":[],"outputs":[{"name":"","type":"uint256","internalType":"uint256"}],"stateMutability":"view"},{"type":"function","name":"PRICE_PRECISION","inputs":[],"outputs":[{"name":"","type":"uint256","internalType":"uint256"}],"stateMutability":"view"},{"type":"function","name":"authorizedKeepers","inputs":[{"name":"","type":"address","internalType":"address"}],"outputs":[{"name":"","type":"bool","internalType":"bool"}],"stateMutability":"view"},{"type":"function","name":"batchUpdatePrices","inputs":[{"name":"marketIds","type":"uint256[]","internalType":"uint256[]"},{"name":"prices","type":"uint256[]","internalType":"uint256[]"}],"outputs":[],"stateMutability":"nonpayable"},{"type":"function","name":"configurePricing","inputs":[{"name":"marketId","type":"uint256","internalType":"uint256"},{"name":"oracle","type":"address","internalType":"address"},{"name":"emaPeriod","type":"uint256","internalType":"uint256"},{"name":"maxDeviation","type":"uint256","internalType":"uint256"},{"name":"vammDepth","type":"uint256","internalType":"uint256"}],"outputs":[],"stateMutability":"nonpayable"},{"type":"function","name":"getExecutionPrice","inputs":[{"name":"marketId","type":"uint256","internalType":"uint256"},{"name":"sizeDelta","type":"int256","internalType":"int256"}],"outputs":[{"name":"executionPrice","type":"uint256","internalType":"uint256"}],"stateMutability":"view"},{"type":"function","name":"getMarkPrice","inputs":[{"name":"marketId","type":"uint256","internalType":"uint256"}],"outputs":[{"name":"","type":"uint256","internalType":"uint256"}],"stateMutability":"view"},{"type":"function","name":"getPriceData","inputs":[{"name":"marketId","type":"uint256","internalType":"uint256"}],"outputs":[{"name":"oraclePrice","type":"uint256","internalType":"uint256"},{"name":"emaPrice","type":"uint256","internalType":"uint256"},{"name":"markPrice","type":"uint256","internalType":"uint256"},{"name":"lastUpdate","type":"uint256","internalType":"uint256"}],"stateMutability":"view"},{"type":"function","name":"isPriceStale","inputs":[{"name":"marketId","type":"uint256","internalType":"uint256"},{"name":"maxAge","type":"uint256","internalType":"uint256"}],"outputs":[{"name":"","type":"bool","internalType":"bool"}],"stateMutability":"view"},{"type":"function","name":"ledger","inputs":[],"outputs":[{"name":"","type":"address","internalType":"contract IPositionLedger"}],"stateMutability":"view"},{"type":"function","name":"owner","inputs":[],"outputs":[{"name":"","type":"address","internalType":"address"}],"stateMutability":"view"},{"type":"function","name":"previewPriceFromIndex","inputs":[{"name":"marketId","type":"uint256","internalType":"uint256"}],"outputs":[{"name":"indexPrice","type":"uint256","internalType":"uint256"},{"name":"sourcesUsed","type":"uint256","internalType":"uint256"},{"name":"projectedEma","type":"uint256","internalType":"uint256"},{"name":"projectedMark","type":"uint256","internalType":"uint256"}],"stateMutability":"view"},{"type":"function","name":"priceConfigs","inputs":[{"name":"","type":"uint256","internalType":"uint256"}],"outputs":[{"name":"oracle","type":"address","internalType":"address"},{"name":"emaPeriod","type":"uint256","internalType":"uint256"},{"name":"maxDeviation","type":"uint256","internalType":"uint256"},{"name":"vammDepth","type":"uint256","internalType":"uint256"},{"name":"lastUpdate","type":"uint256","internalType":"uint256"},{"name":"oraclePrice","type":"uint256","internalType":"uint256"},{"name":"emaPrice","type":"uint256","internalType":"uint256"},{"name":"markPrice","type":"uint256","internalType":"uint256"}],"stateMutability":"view"},{"type":"function","name":"probabilityIndex","inputs":[],"outputs":[{"name":"","type":"address","internalType":"contract IProbabilityIndex"}],"stateMutability":"view"},{"type":"function","name":"setKeeperAuthorization","inputs":[{"name":"keeper","type":"address","internalType":"address"},{"name":"authorized","type":"bool","internalType":"bool"}],"outputs":[],"stateMutability":"nonpayable"},{"type":"function","name":"setProbabilityIndex","inputs":[{"name":"_index","type":"address","internalType":"address"}],"outputs":[],"stateMutability":"nonpayable"},{"type":"function","name":"setUseIndex","inputs":[{"name":"marketId","type":"uint256","internalType":"uint256"},{"name":"_useIndex","type":"bool","internalType":"bool"}],"outputs":[],"stateMutability":"nonpayable"},{"type":"function","name":"transferOwnership","inputs":[{"name":"newOwner","type":"address","internalType":"address"}],"outputs":[],"stateMutability":"nonpayable"},{"type":"function","name":"updatePrice","inputs":[{"name":"marketId","type":"uint256","internalType":"uint256"},{"name":"newOraclePrice","type":"uint256","internalType":"uint256"}],"outputs":[],"stateMutability":"nonpayable"},{"type":"function","name":"updatePriceFromIndex","inputs":[{"name":"marketId","type":"uint256","internalType":"uint256"}],"outputs":[],"stateMutability":"nonpayable"},{"type":"function","name":"useIndex","inputs":[{"name":"","type":"uint256","internalType":"uint256"}],"outputs":[{"name":"","type":"bool","internalType":"bool"}],"stateMutability":"view"},{"type":"event","name":"KeeperAuthorized","inputs":[{"name":"keeper","type":"address","indexed":true,"internalType":"address"},{"name":"authorized","type":"bool","indexed":false,"internalType":"bool"}],"anonymous":false},{"type":"event","name":"PriceConfigSet","inputs":[{"name":"marketId","type":"uint256","indexed":true,"internalType":"uint256"},{"name":"oracle","type":"address","indexed":false,"internalType":"address"},{"name":"emaPeriod","type":"uint256","indexed":false,"internalType":"uint256"},{"name":"vammDepth","type":"uint256","indexed":false,"internalType":"uint256"}],"anonymous":false},{"type":"event","name":"PriceUpdated","inputs":[{"name":"marketId","type":"uint256","indexed":true,"internalType":"uint256"},{"name":"oraclePrice","type":"uint256","indexed":false,"internalType":"uint256"},{"name":"emaPrice","type":"uint256","indexed":false,"internalType":"uint256"},{"name":"markPrice","type":"uint256","indexed":false,"internalType":"uint256"}],"anonymous":false},{"type":"error","name":"InvalidPrice","inputs":[]},{"type":"error","name":"MarketNotConfigured","inputs":[]},{"type":"error","name":"PriceDeviationTooHigh","inputs":[]},{"type":"error","name":"StalePrice","inputs":[]},{"type":"error","name":"Unauthorized","inputs":[]}],"bytecode":{"object":"0x60a0346100a057601f61140e38819003918201601f19168301916001600160401b038311848410176100a4578084926020946040528339810103126100a057516001600160a01b038116908190036100a0573360018060a01b03195f5416175f55608052335f52600460205260405f20600160ff1982541617905560405161135590816100b9823960805181818161073d01528181610c1601526111e70152f35b5f80fd5b634e487b7160e01b5f52604160045260245ffdfe60406080815260049081361015610014575f80fd5b5f9160e08335811c90816306a4903414610c7257816318e00e2214610c4557816356397c3514610c005781635af3d06114610bd55781636e7cd5b614610b7857816382367b2d14610b1c5781638da5cb5b14610af35781638fd652c3146109f15781639368d9b01461097757816395082d251461095357816395a1958014610929578163a0e36057146106e0578163b7a054931461046e578163c56f264d14610431578163cc30bb0514610400578163de4ef8151461039f578163dfe383bc1461025f57508063e1f1c4a71461023e578063eee81ff9146101a7578063f2fde38b146101615763f34eb72f14610108575f80fd5b3461015d57602036600319011261015d57610121610e6b565b83546001600160a01b03939192919084163303610151575050166001600160601b0360a01b600154161760015580f35b516282b42960e81b8152fd5b8280fd5b50903461015d57602036600319011261015d5761017c610e6b565b8354926001600160a01b0392838516330361015157505016906001600160601b0360a01b1617815580f35b50903461015d578060031936011261015d576101c1610e6b565b906101ca610e11565b845490926001600160a01b03918216330361022f57917fd370523e7a29cc54b0e1e6b66ffeb47a2c0d6e37b090e2da19993c7282da39ac939160209316948587528352610225828288209060ff801983541691151516179055565b519015158152a280f35b82516282b42960e81b81528590fd5b50503461025b578160031936011261025b57602090516127108152f35b5080fd5b849150833461015d5760a036600319011261015d578335916024356001600160a01b03818116939184900361039b57604435906084359381885416330361038c57835191610100830183811067ffffffffffffffff821117610379578860609795938b8d8997956007957f30fa005fc3429e5c81f53bfd45a5982f4c9937070f077950e3a45e9d85a140c79d9b528a87526020870188815289880160643581528d8901918c835260808a01938685528c60a08c019780895260c08d0199818b528d019a818c5281526002602052209a51166001600160601b0360a01b8b5416178a555160018a015551600289015551600388015551908601555160058501555160068401555191015581519384526020840152820152a280f35b634e487b7160e01b8a5260418b5260248afd5b83516282b42960e81b81528990fd5b8580fd5b505091346103fd5760203660031901126103fd57816103f991843581526002602052209160058301549260068101549460078201549101549151948594859094939260609260808301968352602083015260408201520152565b0390f35b80fd5b50503461015d57916104296020938361041836610e24565b949081526002875220015442610eb7565b119051908152f35b50503461015d57602036600319011261015d5760209260ff918391906001600160a01b0361045d610e6b565b168252855220541690519015158152f35b50503461015d57602091826003193601126106dc5781359233855282815260ff8286205416156106cf5783855260028152818520546001600160a01b03908116156106c057600154166104c2811515611063565b8486526003825260ff83872054161561067e57908083926024889551809681936314b151ef60e31b83528a8a8401525af1928315610674578693610645575b5082158015610634575b610625576002908587525280852083810190815480155f146105bd575083945b6105358686611177565b6002830154106105af57507fc6d3da45896ce1bca9d198309a2dbeea3c73a991748f8d88d796ffa06029de939493926105a9928261057a60036007950154888b6111ca565b938187600587940155886006820155015542905551938493846040919493926060820195825260208201520152565b0390a280f35b83516369e2517960e11b8152fd5b6105ca6105d59142610eb7565b60018301549061113a565b6105df8582610ed8565b670de0b6b3a7640000918203828111610612579061060561060b92600686015490610ed8565b90610eeb565b049461052b565b634e487b7160e01b8a526011885260248afd5b815162bfc92160e01b81528490fd5b50670de0b6b3a7640000831161050b565b9080935081813d831161066d575b61065d8183610e81565b8101031261039b5751915f610501565b503d610653565b82513d88823e3d90fd5b50905162461bcd60e51b815291820152601c60248201527f496e646578206e6f7420656e61626c656420666f72206d61726b6574000000006044820152606490fd5b505051639d5abc1360e01b8152fd5b50516282b42960e81b8152fd5b8380fd5b848484923461015d578160031936011261015d578335808452600260205282842054602435926001600160a01b039290918316156109195780865260026020528486209285519163eb44fdd360e01b8352888301528282602481847f0000000000000000000000000000000000000000000000000000000000000000165afa801561090f57610861575b5050508382126108525781935b670de0b6b3a7640000948581029080820487149015171561083f5760038301546001600160ff1b038116810361082c576020975082916107ba9160011b90610ef8565b9313156107f6575090836107d660076107dd9401549283610ed8565b0490610eeb565b918083116107ee575b505b51908152f35b9150836107e6565b9192939060076108099101549384610ed8565b04905081811061081e57505060015b906107e8565b61082791610eb7565b610818565b634e487b7160e01b835260118852602483fd5b634e487b7160e01b825260118752602482fd5b61085b8261112a565b93610777565b8282813d8311610908575b6108768183610e81565b810103126108f157855192830183811067ffffffffffffffff8211176108f5578652815190811681036108f1579060c0918352602081015160208401528581015186840152606081015160608401526080810151608084015260a081015160a0840152015190811515820361039b5760c0015285808061076a565b8680fd5b634e487b7160e01b885260418952602488fd5b503d61086c565b86513d89823e3d90fd5b8451639d5abc1360e01b81528790fd5b5050503461025b578160031936011261025b5760015490516001600160a01b039091168152602090f35b5050503461025b578160031936011261025b5760209051670de0b6b3a76400008152f35b9050346106dc5760203660031901126106dc5782610100948335815260026020522060018060a01b03815416936001820154936002830154906003840154908401549160058501549360076006870154960154978151998a5260208a01528801526060870152608086015260a085015260c0840152820152f35b5050903461015d578060031936011261015d5767ffffffffffffffff918035838111610aef57610a249036908301610e3a565b60249391939485359081116108f157610a409036908501610e3a565b9190923388528460205260ff818920541615610ae157828203610aae5750865b818110610a6b578780f35b610a8c610a79828489611106565b35610a85838688611106565b3590610f16565b5f198114610a9c57600101610a60565b634e487b7160e01b8852601185528688fd5b5162461bcd60e51b8152602081860152600f818801526e098cadccee8d040dad2e6dac2e8c6d608b1b6044820152606490fd5b516282b42960e81b81528490fd5b8480fd5b5050503461025b578160031936011261025b57905490516001600160a01b039091168152602090f35b8285853461025b57610b2d36610e24565b913384528460205260ff818520541615610ae1578184526002602052808420546001600160a01b031615610b69575090610b6691610f16565b80f35b51639d5abc1360e01b81528490fd5b8285853461025b578060031936011261025b57610b93610e11565b82549091906001600160a01b03163303610bc757610b669293358452600360205283209060ff801983541691151516179055565b516282b42960e81b81528390fd5b50503461015d57602036600319011261015d5781602093600792358152600285522001549051908152f35b5050503461025b578160031936011261025b57517f00000000000000000000000000000000000000000000000000000000000000006001600160a01b03168152602090f35b50503461015d57602036600319011261015d578160209360ff923581526003855220541690519015158152f35b5050903461015d57602036600319011261015d5760015491926024928435919081906001600160a01b0316610ca8811515611063565b84519586809263c4408d3360e01b8252868a8301525afa948515610e055781948296610d9a575b508282526002602052838220918183015480155f14610d2557505050610d036103f99392600392869384915b0154916111ca565b9151948594859094939260609260808301968352602083015260408201520152565b610d32610d3d9142610eb7565b60018501549061113a565b91610d488784610ed8565b91670de0b6b3a764000093840391848311610d8757505092610d0392610d7e6103f9979693610605600397600686015490610ed8565b04938491610cfb565b634e487b7160e01b825260119052602490fd5b945094503d8082863e610dad8186610e81565b840160808582031261025b57845190602086015195858101519067ffffffffffffffff9182811161039b5783610de491830161109f565b506060810151918211610aef57610dfc92910161109f565b5093945f610ccf565b508251903d90823e3d90fd5b602435908115158203610e2057565b5f80fd5b6040906003190112610e20576004359060243590565b9181601f84011215610e205782359167ffffffffffffffff8311610e20576020808501948460051b010111610e2057565b600435906001600160a01b0382168203610e2057565b90601f8019910116810190811067ffffffffffffffff821117610ea357604052565b634e487b7160e01b5f52604160045260245ffd5b91908203918211610ec457565b634e487b7160e01b5f52601160045260245ffd5b81810292918115918404141715610ec457565b91908201809211610ec457565b8115610f02570490565b634e487b7160e01b5f52601260045260245ffd5b9080158015611052575b61104157815f52600260205260405f20905f906004830191825480155f14610fda57505080915b610f518383611177565b600285015410610fc8576007610fc39185610f9260037fc6d3da45896ce1bca9d198309a2dbeea3c73a991748f8d88d796ffa06029de93980154878a6111ca565b9281866005869401558760068201550155429055604051938493846040919493926060820195825260208201520152565b0390a2565b6040516369e2517960e11b8152600490fd5b610fe7610ff29142610eb7565b60018601549061113a565b90610ffd8383610ed8565b90670de0b6b3a76400009283039083821161102d57509061060561102692600688015490610ed8565b0491610f47565b634e487b7160e01b81526011600452602490fd5b60405162bfc92160e01b8152600490fd5b50670de0b6b3a76400008111610f20565b1561106a57565b60405162461bcd60e51b815260206004820152600d60248201526c125b99195e081b9bdd081cd95d609a1b6044820152606490fd5b9080601f83011215610e205781519067ffffffffffffffff8211610ea3578160051b604051936020936110d485840187610e81565b85528380860192820101928311610e20578301905b8282106110f7575050505090565b815181529083019083016110e9565b91908110156111165760051b0190565b634e487b7160e01b5f52603260045260245ffd5b600160ff1b8114610ec4575f0390565b908082101561116957670de0b6b3a764000091828102928184041490151715610ec45761116691610ef8565b90565b5050670de0b6b3a764000090565b9061119490808311156111c05761118e8184610eb7565b92610eeb565b60011c80156111ba5761271091828102928184041490151715610ec45761116691610ef8565b50505f90565b61118e8382610eb7565b604051633510954d60e01b815260048101919091526020816024817f00000000000000000000000000000000000000000000000000000000000000006001600160a01b03165afa908115611314575f916112e3575b50801580156112db575b6112d5575f81126112c757805b670de0b6b3a76400009384820291808304861490151715610ec45761125a91610ef8565b9067016345785d8a00008083116112bf575b505f8091135f14611298575090826107d66112879383610ed8565b90808211611293575090565b905090565b9192906112a59084610ed8565b0490508181106112b6575050600190565b61116691610eb7565b91505f61126c565b6112d08161112a565b611236565b50905090565b508215611229565b906020823d821161130c575b816112fc60209383610e81565b810103126103fd5750515f61121f565b3d91506112ef565b6040513d5f823e3d90fdfea2646970667358221220cb2cbe0805037a866312a8aa938794e92222fd2d6e3691e7a79990fd983efdef64736f6c63430008140033","linkReferences":{}},"methodIdentifiers":{"BASIS_POINTS()":"e1f1c4a7","PRICE_PRECISION()":"95082d25","authorizedKeepers(address)":"c56f264d","batchUpdatePrices(uint256[],uint256[])":"8fd652c3","configurePricing(uint256,address,uint256,uint256,uint256)":"dfe383bc","getExecutionPrice(uint256,int256)":"a0e36057","getMarkPrice(uint256)":"5af3d061","getPriceData(uint256)":"de4ef815","isPriceStale(uint256,uint256)":"cc30bb05","ledger()":"56397c35","owner()":"8da5cb5b","previewPriceFromIndex(uint256)":"06a49034","priceConfigs(uint256)":"9368d9b0","probabilityIndex()":"95a19580","setKeeperAuthorization(address,bool)":"eee81ff9","setProbabilityIndex(address)":"f34eb72f","setUseIndex(uint256,bool)":"6e7cd5b6","transferOwnership(address)":"f2fde38b","updatePrice(uint256,uint256)":"82367b2d","updatePriceFromIndex(uint256)":"b7a05493","useIndex(uint256)":"18e00e22"},"id":23}