{"abi":[{"type":"constructor","inputs":[{"name":"_ledger","type":"address","internalType":"address"}],"stateMutability":"nonpayable"},{"type":"function","name":"BASIS_POINTS","inputs":[],"outputs":[{"name":"","type":"uint256","internalType":"uint256"}],"stateMutability":"view"},{"type":"function","name":"PRICE_PRECISION","inputs":[],"outputs":[{"name":"","type":"uint256","internalType":"uint256"}],"stateMutability":"view"},{"type":"function","name":"authorizedKeepers","inputs":[{"name":"","type":"address","internalType":"address"}],"outputs":[{"name":"","type":"bool","internalType":"bool"}],"stateMutability":"view"},{"type":"function","name":"batchUpdatePrices","inputs":[{"name":"marketIds","type":"uint256[]","internalType":"uint256[]"},{"name":"prices","type":"uint256[]","internalType":"uint256[]"}],"outputs":[],"stateMutability":"nonpayable"},{"type":"function","name":"configurePricing","inputs":[{"name":"marketId","type":"uint256","internalType":"uint256"},{"name":"oracle","type":"address","internalType":"address"},{"name":"emaPeriod","type":"uint256","internalType":"uint256"},{"name":"maxDeviation","type":"uint256","internalType":"uint256"},{"name":"vammDepth","type":"uint256","internalType":"uint256"}],"outputs":[],"stateMutability":"nonpayable"},{"type":"function","name":"forceUpdatePrice","inputs":[{"name":"marketId","type":"uint256","internalType":"uint256"},{"name":"newPrice","type":"uint256","internalType":"uint256"}],"outputs":[],"stateMutability":"nonpayable"},{"type":"function","name":"getExecutionPrice","inputs":[{"name":"marketId","type":"uint256","internalType":"uint256"},{"name":"sizeDelta","type":"int256","internalType":"int256"}],"outputs":[{"name":"executionPrice","type":"uint256","internalType":"uint256"}],"stateMutability":"view"},{"type":"function","name":"getMarkPrice","inputs":[{"name":"marketId","type":"uint256","internalType":"uint256"}],"outputs":[{"name":"","type":"uint256","internalType":"uint256"}],"stateMutability":"view"},{"type":"function","name":"getPriceData","inputs":[{"name":"marketId","type":"uint256","internalType":"uint256"}],"outputs":[{"name":"oraclePrice","type":"uint256","internalType":"uint256"},{"name":"emaPrice","type":"uint256","internalType":"uint256"},{"name":"markPrice","type":"uint256","internalType":"uint256"},{"name":"lastUpdate","type":"uint256","internalType":"uint256"}],"stateMutability":"view"},{"type":"function","name":"isPriceStale","inputs":[{"name":"marketId","type":"uint256","internalType":"uint256"},{"name":"maxAge","type":"uint256","internalType":"uint256"}],"outputs":[{"name":"","type":"bool","internalType":"bool"}],"stateMutability":"view"},{"type":"function","name":"ledger","inputs":[],"outputs":[{"name":"","type":"address","internalType":"contract IPositionLedger"}],"stateMutability":"view"},{"type":"function","name":"owner","inputs":[],"outputs":[{"name":"","type":"address","internalType":"address"}],"stateMutability":"view"},{"type":"function","name":"previewPriceFromIndex","inputs":[{"name":"marketId","type":"uint256","internalType":"uint256"}],"outputs":[{"name":"indexPrice","type":"uint256","internalType":"uint256"},{"name":"sourcesUsed","type":"uint256","internalType":"uint256"},{"name":"projectedEma","type":"uint256","internalType":"uint256"},{"name":"projectedMark","type":"uint256","internalType":"uint256"}],"stateMutability":"view"},{"type":"function","name":"priceConfigs","inputs":[{"name":"","type":"uint256","internalType":"uint256"}],"outputs":[{"name":"oracle","type":"address","internalType":"address"},{"name":"emaPeriod","type":"uint256","internalType":"uint256"},{"name":"maxDeviation","type":"uint256","internalType":"uint256"},{"name":"vammDepth","type":"uint256","internalType":"uint256"},{"name":"lastUpdate","type":"uint256","internalType":"uint256"},{"name":"oraclePrice","type":"uint256","internalType":"uint256"},{"name":"emaPrice","type":"uint256","internalType":"uint256"},{"name":"markPrice","type":"uint256","internalType":"uint256"}],"stateMutability":"view"},{"type":"function","name":"probabilityIndex","inputs":[],"outputs":[{"name":"","type":"address","internalType":"contract IProbabilityIndex"}],"stateMutability":"view"},{"type":"function","name":"setKeeperAuthorization","inputs":[{"name":"keeper","type":"address","internalType":"address"},{"name":"authorized","type":"bool","internalType":"bool"}],"outputs":[],"stateMutability":"nonpayable"},{"type":"function","name":"setMaxDeviation","inputs":[{"name":"marketId","type":"uint256","internalType":"uint256"},{"name":"newMaxDeviation","type":"uint256","internalType":"uint256"}],"outputs":[],"stateMutability":"nonpayable"},{"type":"function","name":"setProbabilityIndex","inputs":[{"name":"_index","type":"address","internalType":"address"}],"outputs":[],"stateMutability":"nonpayable"},{"type":"function","name":"setUseIndex","inputs":[{"name":"marketId","type":"uint256","internalType":"uint256"},{"name":"_useIndex","type":"bool","internalType":"bool"}],"outputs":[],"stateMutability":"nonpayable"},{"type":"function","name":"transferOwnership","inputs":[{"name":"newOwner","type":"address","internalType":"address"}],"outputs":[],"stateMutability":"nonpayable"},{"type":"function","name":"updatePrice","inputs":[{"name":"marketId","type":"uint256","internalType":"uint256"},{"name":"newOraclePrice","type":"uint256","internalType":"uint256"}],"outputs":[],"stateMutability":"nonpayable"},{"type":"function","name":"updatePriceFromIndex","inputs":[{"name":"marketId","type":"uint256","internalType":"uint256"}],"outputs":[],"stateMutability":"nonpayable"},{"type":"function","name":"useIndex","inputs":[{"name":"","type":"uint256","internalType":"uint256"}],"outputs":[{"name":"","type":"bool","internalType":"bool"}],"stateMutability":"view"},{"type":"event","name":"KeeperAuthorized","inputs":[{"name":"keeper","type":"address","indexed":true,"internalType":"address"},{"name":"authorized","type":"bool","indexed":false,"internalType":"bool"}],"anonymous":false},{"type":"event","name":"PriceConfigSet","inputs":[{"name":"marketId","type":"uint256","indexed":true,"internalType":"uint256"},{"name":"oracle","type":"address","indexed":false,"internalType":"address"},{"name":"emaPeriod","type":"uint256","indexed":false,"internalType":"uint256"},{"name":"vammDepth","type":"uint256","indexed":false,"internalType":"uint256"}],"anonymous":false},{"type":"event","name":"PriceUpdated","inputs":[{"name":"marketId","type":"uint256","indexed":true,"internalType":"uint256"},{"name":"oraclePrice","type":"uint256","indexed":false,"internalType":"uint256"},{"name":"emaPrice","type":"uint256","indexed":false,"internalType":"uint256"},{"name":"markPrice","type":"uint256","indexed":false,"internalType":"uint256"}],"anonymous":false},{"type":"error","name":"InvalidPrice","inputs":[]},{"type":"error","name":"MarketNotConfigured","inputs":[]},{"type":"error","name":"PriceDeviationTooHigh","inputs":[]},{"type":"error","name":"StalePrice","inputs":[]},{"type":"error","name":"Unauthorized","inputs":[]}],"bytecode":{"object":"0x60a0346100a057601f61155f38819003918201601f19168301916001600160401b038311848410176100a4578084926020946040528339810103126100a057516001600160a01b038116908190036100a0573360018060a01b03195f5416175f55608052335f52600460205260405f20600160ff198254161790556040516114a690816100b9823960805181818161075301528181610d6701526113380152f35b5f80fd5b634e487b7160e01b5f52604160045260245ffdfe60406080815260049081361015610014575f80fd5b5f9160e08335811c90816306a4903414610dc357816318e00e2214610d9657816356397c3514610d515781635af3d06114610d265781636c97a6b114610c2f5781636ddfdafb14610beb5781636e7cd5b614610b8e57816382367b2d14610b325781638da5cb5b14610b095781638fd652c314610a075781639368d9b01461098d57816395082d251461096957816395a195801461093f578163a0e36057146106f6578163b7a0549314610484578163c56f264d14610447578163cc30bb0514610416578163de4ef815146103b5578163dfe383bc1461027557508063e1f1c4a714610254578063eee81ff9146101bd578063f2fde38b146101775763f34eb72f1461011e575f80fd5b3461017357602036600319011261017357610137610fbc565b83546001600160a01b03939192919084163303610167575050166001600160601b0360a01b600154161760015580f35b516282b42960e81b8152fd5b8280fd5b50903461017357602036600319011261017357610192610fbc565b8354926001600160a01b0392838516330361016757505016906001600160601b0360a01b1617815580f35b5090346101735780600319360112610173576101d7610fbc565b906101e0610f7c565b845490926001600160a01b03918216330361024557917fd370523e7a29cc54b0e1e6b66ffeb47a2c0d6e37b090e2da19993c7282da39ac93916020931694858752835261023b828288209060ff801983541691151516179055565b519015158152a280f35b82516282b42960e81b81528590fd5b505034610271578160031936011261027157602090516127108152f35b5080fd5b84915083346101735760a0366003190112610173578335916024356001600160a01b0381811693918490036103b15760443590608435938188541633036103a257835191610100830183811067ffffffffffffffff82111761038f578860609795938b8d8997956007957f30fa005fc3429e5c81f53bfd45a5982f4c9937070f077950e3a45e9d85a140c79d9b528a87526020870188815289880160643581528d8901918c835260808a01938685528c60a08c019780895260c08d0199818b528d019a818c5281526002602052209a51166001600160601b0360a01b8b5416178a555160018a015551600289015551600388015551908601555160058501555160068401555191015581519384526020840152820152a280f35b634e487b7160e01b8a5260418b5260248afd5b83516282b42960e81b81528990fd5b8580fd5b50509134610413576020366003190112610413578161040f91843581526002602052209160058301549260068101549460078201549101549151948594859094939260609260808301968352602083015260408201520152565b0390f35b80fd5b505034610173579161043f6020938361042e36610f62565b949081526002875220015442611008565b119051908152f35b5050346101735760203660031901126101735760209260ff918391906001600160a01b03610473610fbc565b168252855220541690519015158152f35b50503461017357602091826003193601126106f25781359233855282815260ff8286205416156106e55783855260028152818520546001600160a01b03908116156106d657600154166104d88115156111b4565b8486526003825260ff83872054161561069457908083926024889551809681936314b151ef60e31b83528a8a8401525af192831561068a57869361065b575b508215801561064a575b61063b576002908587525280852083810190815480155f146105d3575083945b61054b86866112c8565b6002830154106105c557507fc6d3da45896ce1bca9d198309a2dbeea3c73a991748f8d88d796ffa06029de939493926105bf928261059060036007950154888b61131b565b938187600587940155886006820155015542905551938493846040919493926060820195825260208201520152565b0390a280f35b83516369e2517960e11b8152fd5b6105e06105eb9142611008565b60018301549061128b565b6105f58582611029565b670de0b6b3a7640000918203828111610628579061061b61062192600686015490611029565b9061103c565b0494610541565b634e487b7160e01b8a526011885260248afd5b815162bfc92160e01b81528490fd5b50670de0b6b3a76400008311610521565b9080935081813d8311610683575b6106738183610fd2565b810103126103b15751915f610517565b503d610669565b82513d88823e3d90fd5b50905162461bcd60e51b815291820152601c60248201527f496e646578206e6f7420656e61626c656420666f72206d61726b6574000000006044820152606490fd5b505051639d5abc1360e01b8152fd5b50516282b42960e81b8152fd5b8380fd5b84848492346101735781600319360112610173578335808452600260205282842054602435926001600160a01b0392909183161561092f5780865260026020528486209285519163eb44fdd360e01b8352888301528282602481847f0000000000000000000000000000000000000000000000000000000000000000165afa801561092557610877575b5050508382126108685781935b670de0b6b3a764000094858102908082048714901517156108555760038301546001600160ff1b0381168103610842576020975082916107d09160011b90611049565b93131561080c575090836107ec60076107f39401549283611029565b049061103c565b91808311610804575b505b51908152f35b9150836107fc565b91929390600761081f9101549384611029565b04905081811061083457505060015b906107fe565b61083d91611008565b61082e565b634e487b7160e01b835260118852602483fd5b634e487b7160e01b825260118752602482fd5b6108718261127b565b9361078d565b8282813d831161091e575b61088c8183610fd2565b8101031261090757855192830183811067ffffffffffffffff82111761090b57865281519081168103610907579060c0918352602081015160208401528581015186840152606081015160608401526080810151608084015260a081015160a084015201519081151582036103b15760c00152858080610780565b8680fd5b634e487b7160e01b885260418952602488fd5b503d610882565b86513d89823e3d90fd5b8451639d5abc1360e01b81528790fd5b5050503461027157816003193601126102715760015490516001600160a01b039091168152602090f35b5050503461027157816003193601126102715760209051670de0b6b3a76400008152f35b9050346106f25760203660031901126106f25782610100948335815260026020522060018060a01b03815416936001820154936002830154906003840154908401549160058501549360076006870154960154978151998a5260208a01528801526060870152608086015260a085015260c0840152820152f35b5050903461017357806003193601126101735767ffffffffffffffff918035838111610b0557610a3a9036908301610f8b565b602493919394853590811161090757610a569036908501610f8b565b9190923388528460205260ff818920541615610af757828203610ac45750865b818110610a81578780f35b610aa2610a8f828489611257565b35610a9b838688611257565b3590611067565b5f198114610ab257600101610a76565b634e487b7160e01b8852601185528688fd5b5162461bcd60e51b8152602081860152600f818801526e098cadccee8d040dad2e6dac2e8c6d608b1b6044820152606490fd5b516282b42960e81b81528490fd5b8480fd5b50505034610271578160031936011261027157905490516001600160a01b039091168152602090f35b8285853461027157610b4336610f62565b913384528460205260ff818520541615610af7578184526002602052808420546001600160a01b031615610b7f575090610b7c91611067565b80f35b51639d5abc1360e01b81528490fd5b82858534610271578060031936011261027157610ba9610f7c565b82549091906001600160a01b03163303610bdd57610b7c9293358452600360205283209060ff801983541691151516179055565b516282b42960e81b81528390fd5b5050903461017357610bfc36610f62565b84549093906001600160a01b03163303610c225750906002918452816020528320015580f35b82516282b42960e81b8152fd5b50503461017357610c3f36610f62565b8454919390916001600160a01b039081163303610d17578486526002602052818620541615610d085781158015610cf7575b610ce957906105bf7fc6d3da45896ce1bca9d198309a2dbeea3c73a991748f8d88d796ffa06029de9393928587526002602052808720610cb66003820154858961131b565b94846005830155846006830155856007830155429101555192828493846040919493926060820195825260208201520152565b5162bfc92160e01b81529050fd5b50670de0b6b3a76400008211610c71565b51639d5abc1360e01b81529050fd5b81516282b42960e81b81528490fd5b5050346101735760203660031901126101735781602093600792358152600285522001549051908152f35b50505034610271578160031936011261027157517f00000000000000000000000000000000000000000000000000000000000000006001600160a01b03168152602090f35b505034610173576020366003190112610173578160209360ff923581526003855220541690519015158152f35b505090346101735760203660031901126101735760015491926024928435919081906001600160a01b0316610df98115156111b4565b84519586809263c4408d3360e01b8252868a8301525afa948515610f565781948296610eeb575b508282526002602052838220918183015480155f14610e7657505050610e5461040f9392600392869384915b01549161131b565b9151948594859094939260609260808301968352602083015260408201520152565b610e83610e8e9142611008565b60018501549061128b565b91610e998784611029565b91670de0b6b3a764000093840391848311610ed857505092610e5492610ecf61040f97969361061b600397600686015490611029565b04938491610e4c565b634e487b7160e01b825260119052602490fd5b945094503d8082863e610efe8186610fd2565b840160808582031261027157845190602086015195858101519067ffffffffffffffff918281116103b15783610f359183016111f0565b506060810151918211610b0557610f4d9291016111f0565b5093945f610e20565b508251903d90823e3d90fd5b6040906003190112610f78576004359060243590565b5f80fd5b602435908115158203610f7857565b9181601f84011215610f785782359167ffffffffffffffff8311610f78576020808501948460051b010111610f7857565b600435906001600160a01b0382168203610f7857565b90601f8019910116810190811067ffffffffffffffff821117610ff457604052565b634e487b7160e01b5f52604160045260245ffd5b9190820391821161101557565b634e487b7160e01b5f52601160045260245ffd5b8181029291811591840414171561101557565b9190820180921161101557565b8115611053570490565b634e487b7160e01b5f52601260045260245ffd5b90801580156111a3575b61119257815f52600260205260405f20905f906004830191825480155f1461112b57505080915b6110a283836112c8565b60028501541061111957600761111491856110e360037fc6d3da45896ce1bca9d198309a2dbeea3c73a991748f8d88d796ffa06029de93980154878a61131b565b9281866005869401558760068201550155429055604051938493846040919493926060820195825260208201520152565b0390a2565b6040516369e2517960e11b8152600490fd5b6111386111439142611008565b60018601549061128b565b9061114e8383611029565b90670de0b6b3a76400009283039083821161117e57509061061b61117792600688015490611029565b0491611098565b634e487b7160e01b81526011600452602490fd5b60405162bfc92160e01b8152600490fd5b50670de0b6b3a76400008111611071565b156111bb57565b60405162461bcd60e51b815260206004820152600d60248201526c125b99195e081b9bdd081cd95d609a1b6044820152606490fd5b9080601f83011215610f785781519067ffffffffffffffff8211610ff4578160051b6040519360209361122585840187610fd2565b85528380860192820101928311610f78578301905b828210611248575050505090565b8151815290830190830161123a565b91908110156112675760051b0190565b634e487b7160e01b5f52603260045260245ffd5b600160ff1b8114611015575f0390565b90808210156112ba57670de0b6b3a764000091828102928184041490151715611015576112b791611049565b90565b5050670de0b6b3a764000090565b906112e59080831115611311576112df8184611008565b9261103c565b60011c801561130b5761271091828102928184041490151715611015576112b791611049565b50505f90565b6112df8382611008565b604051633510954d60e01b815260048101919091526020816024817f00000000000000000000000000000000000000000000000000000000000000006001600160a01b03165afa908115611465575f91611434575b508015801561142c575b611426575f811261141857805b670de0b6b3a76400009384820291808304861490151715611015576113ab91611049565b9067016345785d8a0000808311611410575b505f8091135f146113e9575090826107ec6113d89383611029565b908082116113e4575090565b905090565b9192906113f69084611029565b049050818110611407575050600190565b6112b791611008565b91505f6113bd565b6114218161127b565b611387565b50905090565b50821561137a565b906020823d821161145d575b8161144d60209383610fd2565b810103126104135750515f611370565b3d9150611440565b6040513d5f823e3d90fdfea2646970667358221220378e5f7212679f0eb0081ec3e11b68c93440b80ed3be530a2f44c0ed0c0935e664736f6c63430008140033","linkReferences":{}},"methodIdentifiers":{"BASIS_POINTS()":"e1f1c4a7","PRICE_PRECISION()":"95082d25","authorizedKeepers(address)":"c56f264d","batchUpdatePrices(uint256[],uint256[])":"8fd652c3","configurePricing(uint256,address,uint256,uint256,uint256)":"dfe383bc","forceUpdatePrice(uint256,uint256)":"6c97a6b1","getExecutionPrice(uint256,int256)":"a0e36057","getMarkPrice(uint256)":"5af3d061","getPriceData(uint256)":"de4ef815","isPriceStale(uint256,uint256)":"cc30bb05","ledger()":"56397c35","owner()":"8da5cb5b","previewPriceFromIndex(uint256)":"06a49034","priceConfigs(uint256)":"9368d9b0","probabilityIndex()":"95a19580","setKeeperAuthorization(address,bool)":"eee81ff9","setMaxDeviation(uint256,uint256)":"6ddfdafb","setProbabilityIndex(address)":"f34eb72f","setUseIndex(uint256,bool)":"6e7cd5b6","transferOwnership(address)":"f2fde38b","updatePrice(uint256,uint256)":"82367b2d","updatePriceFromIndex(uint256)":"b7a05493","useIndex(uint256)":"18e00e22"},"id":35}