{"abi":[{"type":"constructor","inputs":[{"name":"_collateralToken","type":"address","internalType":"address"}],"stateMutability":"nonpayable"},{"type":"function","name":"BASIS_POINTS","inputs":[],"outputs":[{"name":"","type":"uint256","internalType":"uint256"}],"stateMutability":"view"},{"type":"function","name":"PRECISION","inputs":[],"outputs":[{"name":"","type":"uint256","internalType":"uint256"}],"stateMutability":"view"},{"type":"function","name":"authorizedDepositors","inputs":[{"name":"","type":"address","internalType":"address"}],"outputs":[{"name":"","type":"bool","internalType":"bool"}],"stateMutability":"view"},{"type":"function","name":"authorizedWithdrawers","inputs":[{"name":"","type":"address","internalType":"address"}],"outputs":[{"name":"","type":"bool","internalType":"bool"}],"stateMutability":"view"},{"type":"function","name":"borrowFeeShare","inputs":[],"outputs":[{"name":"","type":"uint256","internalType":"uint256"}],"stateMutability":"view"},{"type":"function","name":"canCoverLoss","inputs":[{"name":"potentialLoss","type":"uint256","internalType":"uint256"}],"outputs":[{"name":"","type":"bool","internalType":"bool"}],"stateMutability":"view"},{"type":"function","name":"collateralToken","inputs":[],"outputs":[{"name":"","type":"address","internalType":"contract IERC20"}],"stateMutability":"view"},{"type":"function","name":"coverBadDebt","inputs":[{"name":"amount","type":"uint256","internalType":"uint256"}],"outputs":[{"name":"covered","type":"uint256","internalType":"uint256"}],"stateMutability":"nonpayable"},{"type":"function","name":"criticalThreshold","inputs":[],"outputs":[{"name":"","type":"uint256","internalType":"uint256"}],"stateMutability":"view"},{"type":"function","name":"deposit","inputs":[{"name":"amount","type":"uint256","internalType":"uint256"}],"outputs":[],"stateMutability":"nonpayable"},{"type":"function","name":"depositFromBorrowFees","inputs":[{"name":"totalFees","type":"uint256","internalType":"uint256"}],"outputs":[],"stateMutability":"nonpayable"},{"type":"function","name":"depositFromLiquidation","inputs":[{"name":"totalPenalty","type":"uint256","internalType":"uint256"}],"outputs":[],"stateMutability":"nonpayable"},{"type":"function","name":"depositFromTradingFees","inputs":[{"name":"totalFees","type":"uint256","internalType":"uint256"}],"outputs":[],"stateMutability":"nonpayable"},{"type":"function","name":"emergencyWithdraw","inputs":[{"name":"to","type":"address","internalType":"address"},{"name":"amount","type":"uint256","internalType":"uint256"}],"outputs":[],"stateMutability":"nonpayable"},{"type":"function","name":"getAdjustedMaxLeverage","inputs":[{"name":"baseMaxLeverage","type":"uint256","internalType":"uint256"}],"outputs":[{"name":"","type":"uint256","internalType":"uint256"}],"stateMutability":"view"},{"type":"function","name":"getAdjustedMaxOI","inputs":[{"name":"baseMaxOI","type":"uint256","internalType":"uint256"}],"outputs":[{"name":"","type":"uint256","internalType":"uint256"}],"stateMutability":"view"},{"type":"function","name":"getHealthStatus","inputs":[],"outputs":[{"name":"status","type":"uint8","internalType":"uint8"}],"stateMutability":"view"},{"type":"function","name":"getRiskAdjustmentFactor","inputs":[],"outputs":[{"name":"factor","type":"uint256","internalType":"uint256"}],"stateMutability":"view"},{"type":"function","name":"healthyThreshold","inputs":[],"outputs":[{"name":"","type":"uint256","internalType":"uint256"}],"stateMutability":"view"},{"type":"function","name":"liquidationFeeShare","inputs":[],"outputs":[{"name":"","type":"uint256","internalType":"uint256"}],"stateMutability":"view"},{"type":"function","name":"owner","inputs":[],"outputs":[{"name":"","type":"address","internalType":"address"}],"stateMutability":"view"},{"type":"function","name":"setDepositorAuthorization","inputs":[{"name":"depositor","type":"address","internalType":"address"},{"name":"authorized","type":"bool","internalType":"bool"}],"outputs":[],"stateMutability":"nonpayable"},{"type":"function","name":"setFeeShares","inputs":[{"name":"_liquidationShare","type":"uint256","internalType":"uint256"},{"name":"_tradingShare","type":"uint256","internalType":"uint256"},{"name":"_borrowShare","type":"uint256","internalType":"uint256"}],"outputs":[],"stateMutability":"nonpayable"},{"type":"function","name":"setThresholds","inputs":[{"name":"_healthy","type":"uint256","internalType":"uint256"},{"name":"_warning","type":"uint256","internalType":"uint256"},{"name":"_critical","type":"uint256","internalType":"uint256"}],"outputs":[],"stateMutability":"nonpayable"},{"type":"function","name":"setWithdrawerAuthorization","inputs":[{"name":"withdrawer","type":"address","internalType":"address"},{"name":"authorized","type":"bool","internalType":"bool"}],"outputs":[],"stateMutability":"nonpayable"},{"type":"function","name":"totalFunds","inputs":[],"outputs":[{"name":"","type":"uint256","internalType":"uint256"}],"stateMutability":"view"},{"type":"function","name":"tradingFeeShare","inputs":[],"outputs":[{"name":"","type":"uint256","internalType":"uint256"}],"stateMutability":"view"},{"type":"function","name":"transferOwnership","inputs":[{"name":"newOwner","type":"address","internalType":"address"}],"outputs":[],"stateMutability":"nonpayable"},{"type":"function","name":"warningThreshold","inputs":[],"outputs":[{"name":"","type":"uint256","internalType":"uint256"}],"stateMutability":"view"},{"type":"event","name":"BadDebtCovered","inputs":[{"name":"amount","type":"uint256","indexed":false,"internalType":"uint256"},{"name":"remainingFunds","type":"uint256","indexed":false,"internalType":"uint256"}],"anonymous":false},{"type":"event","name":"FundsDeposited","inputs":[{"name":"from","type":"address","indexed":true,"internalType":"address"},{"name":"amount","type":"uint256","indexed":false,"internalType":"uint256"},{"name":"reason","type":"string","indexed":false,"internalType":"string"}],"anonymous":false},{"type":"event","name":"FundsWithdrawn","inputs":[{"name":"to","type":"address","indexed":true,"internalType":"address"},{"name":"amount","type":"uint256","indexed":false,"internalType":"uint256"},{"name":"reason","type":"string","indexed":false,"internalType":"string"}],"anonymous":false},{"type":"event","name":"ThresholdsUpdated","inputs":[{"name":"healthy","type":"uint256","indexed":false,"internalType":"uint256"},{"name":"warning","type":"uint256","indexed":false,"internalType":"uint256"},{"name":"critical","type":"uint256","indexed":false,"internalType":"uint256"}],"anonymous":false},{"type":"error","name":"InsufficientFunds","inputs":[]},{"type":"error","name":"Unauthorized","inputs":[]}],"bytecode":{"object":"0x60a0346100d557601f610f8f38819003918201601f19168301916001600160401b038311848410176100d9578084926020946040528339810103126100d557516001600160a01b038116908190036100d557610fa06002556107d06003556103e860045569152d02c7e14af6800000600555690a968163f0a57b40000060065569021e19e0c9bab24000006007555f80546001600160a01b03191633179055608052604051610ea190816100ee82396080518181816102e50152818161053801528181610605015281816106f80152610d9a0152f35b5f80fd5b634e487b7160e01b5f52604160045260245ffdfe6080604081815260049182361015610015575f80fd5b5f92833560e01c91826303fdd16714610aa45750816315bb6f7d1461098e5781631801e15614610a7d5781632bf928a814610a185781633fd8d15b146109da57816342481f281461099357816343c8480d1461098e57816372402e001461095057816381a7e262146108ea5781638b67ce4e146108225781638da5cb5b146107fa578163913ba392146107d657816395ccea6714610676578163968ed60014610657578163aaf5eb6814610634578163b2016bd4146105f0578163b6b55f25146104ee578163be127701146104cf578163bec56a6414610479578163d095c51f1461045a578163d8831c9e1461043b578163e1f1c4a71461041e578163e7da004e146103a7578163ecc6d9ff1461025a578163ee1692281461023c578163f28f7972146101fc578163f2fde38b146101a057508063f8fec54a146101825763fd91164814610161575f80fd5b3461017e578160031936011261017e576020906006549051908152f35b5080fd5b503461017e578160031936011261017e576020906007549051908152f35b919050346101f85760203660031901126101f8576101bc610b57565b8354926001600160a01b039283851633036101ec57505016906bffffffffffffffffffffffff60a01b1617815580f35b516282b42960e81b8152fd5b8280fd5b9050346101f85761020c36610b9c565b85549094919291906001600160a01b0316330361022e57506002556003555580f35b516282b42960e81b81528390fd5b9050346101f857826003193601126101f85760209250549051908152f35b919050346101f857602092836003193601126103a4578235903381526009855260ff8382205416156103965784600154928381115f1461038f57508280955b816102a7575b508451908152f35b6102b4826102e096610c8a565b600155855163a9059cbb60e01b8152339181019182526020820192909252909384918291604090910190565b0381847f00000000000000000000000000000000000000000000000000000000000000006001600160a01b03165af19081156103845750610357575b507f242e1f451f8c7015bf7d048b163e3aad53106aa7042dba8ba77adbdcc21c02d98160015481519085825286820152a15f8084848261029f565b61037690843d861161037d575b61036e8183610c43565b810190610c65565b505f61031c565b503d610364565b8351903d90823e3d90fd5b8095610299565b5050516282b42960e81b8152fd5b80fd5b9050346101f85760203660031901126101f857338352600860205260ff82842054161561041157906127106103e361040e936003549035610be2565b049051906103f082610c13565b600c82526b74726164696e675f6665657360a01b6020830152610d61565b80f35b90516282b42960e81b8152fd5b50503461017e578160031936011261017e57602090516127108152f35b50503461017e578160031936011261017e576020906002549051908152f35b50503461017e578160031936011261017e576020906003549051908152f35b83833461017e5761048936610b6d565b83549092916001600160a01b0391821633036104c05761040e949550168452600860205283209060ff801983541691151516179055565b82516282b42960e81b81528690fd5b50503461017e578160031936011261017e576020906005549051908152f35b9050346101f85760203660031901126101f85781516323b872dd60e01b815233818301908152306020828101919091529235604082018190529193919290849081906060010381877f00000000000000000000000000000000000000000000000000000000000000006001600160a01b03165af19283156105e657600692936105c8575b5061057f83600154610c7d565b600155805192835280602084015282015265191a5c9958dd60d21b60608201527f760c7a2378a4ae64d649fb2461347a9d495bf652e73d4315f1bbd6b7962602a860803392a280f35b6105df9060203d811161037d5761036e8183610c43565b505f610572565b81513d86823e3d90fd5b50503461017e578160031936011261017e57517f00000000000000000000000000000000000000000000000000000000000000006001600160a01b03168152602090f35b50503461017e578160031936011261017e5760209051670de0b6b3a76400008152f35b50503461017e578160031936011261017e576020906001549051908152f35b9050346101f857816003193601126101f857610690610b57565b8354602435936001600160a01b03939091841633036104115760015480861161079e578386926106c284602094610c8a565b600155845163a9059cbb60e01b81526001600160a01b0390921690820190815260208101939093529182908190604001038189887f0000000000000000000000000000000000000000000000000000000000000000165af18015610794577fd30b68ba794ba733ec10c7ddce3e044482efdaa4c2e6b3d233800535afe5139b949260809492600992610776575b50805196875280602088015286015268656d657267656e637960b81b60608601521692a280f35b61078d9060203d811161037d5761036e8183610c43565b505f61074f565b82513d88823e3d90fd5b506020606492519162461bcd60e51b83528201526012602482015271496e73756666696369656e742066756e647360701b6044820152fd5b50503461017e578160031936011261017e576020906107f3610cbc565b9051908152f35b50503461017e578160031936011261017e57905490516001600160a01b039091168152602090f35b919050346101f85761083336610b9c565b855492949093926001600160a01b031633036108dd57818511806108d4575b1561089c57509183916060937f5c18dc8d95da80ea715f2473abe6f01199d4bfa87d2ed1ef051058a60dcce25895600555806006558260075581519384526020840152820152a180f35b606490602084519162461bcd60e51b83528201526012602482015271496e76616c6964207468726573686f6c647360701b6044820152fd5b50838211610852565b82516282b42960e81b8152fd5b9050346101f85760203660031901126101f857338352600860205260ff828420541615610411579061271061092661040e936002549035610be2565b0490519061093382610c13565b600b82526a3634b8bab4b230ba34b7b760a91b6020830152610d61565b50503461017e57602036600319011261017e5760209160ff9082906001600160a01b0361097b610b57565b1681526008855220541690519015158152f35b610ac5565b83833461017e576109a336610b6d565b83549092916001600160a01b0391821633036104c05761040e949550168452600960205283209060ff801983541691151516179055565b50503461017e57602036600319011261017e5760209160ff9082906001600160a01b03610a05610b57565b1681526009855220541690519015158152f35b9050346101f85760203660031901126101f857338352600860205260ff8284205416156104115790612710610a538361040e94549035610be2565b04905190610a6082610c13565b600b82526a626f72726f775f6665657360a81b6020830152610d61565b50503461017e578160031936011261017e5760209060ff610a9c610c97565b915191168152f35b8491346101f85760203660031901126101f857602092503560015410158152f35b34610b5357602080600319360112610b535760405163489dd1c960e11b81528181600481305afa908115610b48575f91610b19575b50610b10670de0b6b3a764000091600435610be2565b04604051908152f35b908282813d8311610b41575b610b2f8183610c43565b810103126103a4575051610b10610afa565b503d610b25565b6040513d5f823e3d90fd5b5f80fd5b600435906001600160a01b0382168203610b5357565b6040906003190112610b53576004356001600160a01b0381168103610b5357906024358015158103610b535790565b6060906003190112610b5357600435906024359060443590565b906703782dace9d900009180830292830403610bce57565b634e487b7160e01b5f52601160045260245ffd5b81810292918115918404141715610bce57565b8115610bff570490565b634e487b7160e01b5f52601260045260245ffd5b6040810190811067ffffffffffffffff821117610c2f57604052565b634e487b7160e01b5f52604160045260245ffd5b90601f8019910116810190811067ffffffffffffffff821117610c2f57604052565b90816020910312610b5357518015158103610b535790565b91908201809211610bce57565b91908203918211610bce57565b600154600554811015610cb6576006541115610cb1575f90565b600190565b50600290565b60015460055490818110610cd8575050670de0b6b3a764000090565b60065491828210610d1d57610cfd83610cf7610d0795610d0294610c8a565b93610c8a565b610bb6565b610bf5565b670a688906bd8b0000908101809111610bce5790565b50600754808210610d5257610cfd81610cf7610d0293610d3c96610c8a565b6706f05b59d3b20000908101809111610bce5790565b5050506706f05b59d3b2000090565b8015610e67576040516323b872dd60e01b81523360048201523060248201526044810182905260209081816064815f6001600160a01b037f0000000000000000000000000000000000000000000000000000000000000000165af18015610b4857610e4a575b50610dd482600154610c7d565b6001556040519182526040818301528251928360408401525f5b848110610e3657505050805f6060847f760c7a2378a4ae64d649fb2461347a9d495bf652e73d4315f1bbd6b7962602a8940101526060813394601f80199101168101030190a2565b818101830151848201606001528201610dee565b610e6090823d841161037d5761036e8183610c43565b505f610dc7565b505056fea26469706673582212207c4a5014c7f5593b37ff9cafb69b94bc0e5c25f9cd22a78949f5fba760e98a7964736f6c63430008140033","linkReferences":{}},"methodIdentifiers":{"BASIS_POINTS()":"e1f1c4a7","PRECISION()":"aaf5eb68","authorizedDepositors(address)":"72402e00","authorizedWithdrawers(address)":"3fd8d15b","borrowFeeShare()":"ee169228","canCoverLoss(uint256)":"03fdd167","collateralToken()":"b2016bd4","coverBadDebt(uint256)":"ecc6d9ff","criticalThreshold()":"f8fec54a","deposit(uint256)":"b6b55f25","depositFromBorrowFees(uint256)":"2bf928a8","depositFromLiquidation(uint256)":"81a7e262","depositFromTradingFees(uint256)":"e7da004e","emergencyWithdraw(address,uint256)":"95ccea67","getAdjustedMaxLeverage(uint256)":"15bb6f7d","getAdjustedMaxOI(uint256)":"43c8480d","getHealthStatus()":"1801e156","getRiskAdjustmentFactor()":"913ba392","healthyThreshold()":"be127701","liquidationFeeShare()":"d8831c9e","owner()":"8da5cb5b","setDepositorAuthorization(address,bool)":"bec56a64","setFeeShares(uint256,uint256,uint256)":"f28f7972","setThresholds(uint256,uint256,uint256)":"8b67ce4e","setWithdrawerAuthorization(address,bool)":"42481f28","totalFunds()":"968ed600","tradingFeeShare()":"d095c51f","transferOwnership(address)":"f2fde38b","warningThreshold()":"fd911648"},"id":19}