{"abi":[{"type":"constructor","inputs":[{"name":"_ledger","type":"address","internalType":"address"}],"stateMutability":"nonpayable"},{"type":"function","name":"BASIS_POINTS","inputs":[],"outputs":[{"name":"","type":"uint256","internalType":"uint256"}],"stateMutability":"view"},{"type":"function","name":"PRECISION","inputs":[],"outputs":[{"name":"","type":"uint256","internalType":"uint256"}],"stateMutability":"view"},{"type":"function","name":"SECONDS_PER_YEAR","inputs":[],"outputs":[{"name":"","type":"uint256","internalType":"uint256"}],"stateMutability":"view"},{"type":"function","name":"accrueInterest","inputs":[{"name":"marketId","type":"uint256","internalType":"uint256"}],"outputs":[],"stateMutability":"nonpayable"},{"type":"function","name":"borrowIndex","inputs":[{"name":"","type":"uint256","internalType":"uint256"}],"outputs":[{"name":"","type":"uint256","internalType":"uint256"}],"stateMutability":"view"},{"type":"function","name":"checkInitialMargin","inputs":[{"name":"marketId","type":"uint256","internalType":"uint256"},{"name":"size","type":"uint256","internalType":"uint256"},{"name":"collateral","type":"uint256","internalType":"uint256"},{"name":"price","type":"uint256","internalType":"uint256"}],"outputs":[{"name":"","type":"bool","internalType":"bool"}],"stateMutability":"view"},{"type":"function","name":"getLiquidationPenalty","inputs":[{"name":"marketId","type":"uint256","internalType":"uint256"},{"name":"collateral","type":"uint256","internalType":"uint256"}],"outputs":[{"name":"","type":"uint256","internalType":"uint256"}],"stateMutability":"view"},{"type":"function","name":"getMaxPositionSize","inputs":[{"name":"marketId","type":"uint256","internalType":"uint256"},{"name":"collateral","type":"uint256","internalType":"uint256"},{"name":"price","type":"uint256","internalType":"uint256"}],"outputs":[{"name":"","type":"uint256","internalType":"uint256"}],"stateMutability":"view"},{"type":"function","name":"getPendingBorrowFee","inputs":[{"name":"trader","type":"address","internalType":"address"},{"name":"marketId","type":"uint256","internalType":"uint256"}],"outputs":[{"name":"fee","type":"uint256","internalType":"uint256"}],"stateMutability":"view"},{"type":"function","name":"getRequiredCollateral","inputs":[{"name":"marketId","type":"uint256","internalType":"uint256"},{"name":"size","type":"uint256","internalType":"uint256"},{"name":"price","type":"uint256","internalType":"uint256"}],"outputs":[{"name":"initial","type":"uint256","internalType":"uint256"},{"name":"maintenance","type":"uint256","internalType":"uint256"}],"stateMutability":"view"},{"type":"function","name":"getUtilization","inputs":[{"name":"marketId","type":"uint256","internalType":"uint256"}],"outputs":[{"name":"data","type":"tuple","internalType":"struct RiskEngine.UtilizationData","components":[{"name":"totalOI","type":"uint256","internalType":"uint256"},{"name":"totalLPCapital","type":"uint256","internalType":"uint256"},{"name":"utilization","type":"uint256","internalType":"uint256"},{"name":"currentBorrowRate","type":"uint256","internalType":"uint256"}]}],"stateMutability":"view"},{"type":"function","name":"globalPause","inputs":[],"outputs":[{"name":"","type":"bool","internalType":"bool"}],"stateMutability":"view"},{"type":"function","name":"isLiquidatable","inputs":[{"name":"trader","type":"address","internalType":"address"},{"name":"marketId","type":"uint256","internalType":"uint256"},{"name":"currentPrice","type":"uint256","internalType":"uint256"}],"outputs":[{"name":"liquidatable","type":"bool","internalType":"bool"},{"name":"shortfall","type":"uint256","internalType":"uint256"}],"stateMutability":"view"},{"type":"function","name":"lastBorrowUpdate","inputs":[{"name":"","type":"uint256","internalType":"uint256"}],"outputs":[{"name":"","type":"uint256","internalType":"uint256"}],"stateMutability":"view"},{"type":"function","name":"ledger","inputs":[],"outputs":[{"name":"","type":"address","internalType":"contract IPositionLedger"}],"stateMutability":"view"},{"type":"function","name":"lpCapital","inputs":[{"name":"","type":"uint256","internalType":"uint256"}],"outputs":[{"name":"","type":"uint256","internalType":"uint256"}],"stateMutability":"view"},{"type":"function","name":"marketPaused","inputs":[{"name":"","type":"uint256","internalType":"uint256"}],"outputs":[{"name":"","type":"bool","internalType":"bool"}],"stateMutability":"view"},{"type":"function","name":"owner","inputs":[],"outputs":[{"name":"","type":"address","internalType":"address"}],"stateMutability":"view"},{"type":"function","name":"riskParams","inputs":[{"name":"","type":"uint256","internalType":"uint256"}],"outputs":[{"name":"initialMarginBps","type":"uint256","internalType":"uint256"},{"name":"maintenanceMarginBps","type":"uint256","internalType":"uint256"},{"name":"maxLeverage","type":"uint256","internalType":"uint256"},{"name":"baseBorrowRate","type":"uint256","internalType":"uint256"},{"name":"maxBorrowRate","type":"uint256","internalType":"uint256"},{"name":"optimalUtilization","type":"uint256","internalType":"uint256"},{"name":"liquidationPenaltyBps","type":"uint256","internalType":"uint256"}],"stateMutability":"view"},{"type":"function","name":"setGlobalPause","inputs":[{"name":"paused","type":"bool","internalType":"bool"}],"outputs":[],"stateMutability":"nonpayable"},{"type":"function","name":"setLPCapital","inputs":[{"name":"marketId","type":"uint256","internalType":"uint256"},{"name":"capital","type":"uint256","internalType":"uint256"}],"outputs":[],"stateMutability":"nonpayable"},{"type":"function","name":"setMarketPaused","inputs":[{"name":"marketId","type":"uint256","internalType":"uint256"},{"name":"paused","type":"bool","internalType":"bool"}],"outputs":[],"stateMutability":"nonpayable"},{"type":"function","name":"setRiskParams","inputs":[{"name":"marketId","type":"uint256","internalType":"uint256"},{"name":"initialMarginBps","type":"uint256","internalType":"uint256"},{"name":"maintenanceMarginBps","type":"uint256","internalType":"uint256"},{"name":"maxLeverage","type":"uint256","internalType":"uint256"},{"name":"baseBorrowRate","type":"uint256","internalType":"uint256"},{"name":"maxBorrowRate","type":"uint256","internalType":"uint256"},{"name":"optimalUtilization","type":"uint256","internalType":"uint256"},{"name":"liquidationPenaltyBps","type":"uint256","internalType":"uint256"}],"outputs":[],"stateMutability":"nonpayable"},{"type":"function","name":"transferOwnership","inputs":[{"name":"newOwner","type":"address","internalType":"address"}],"outputs":[],"stateMutability":"nonpayable"},{"type":"event","name":"BorrowIndexUpdated","inputs":[{"name":"marketId","type":"uint256","indexed":true,"internalType":"uint256"},{"name":"newIndex","type":"uint256","indexed":false,"internalType":"uint256"},{"name":"borrowRate","type":"uint256","indexed":false,"internalType":"uint256"}],"anonymous":false},{"type":"event","name":"GlobalPauseSet","inputs":[{"name":"paused","type":"bool","indexed":false,"internalType":"bool"}],"anonymous":false},{"type":"event","name":"LPCapitalUpdated","inputs":[{"name":"marketId","type":"uint256","indexed":true,"internalType":"uint256"},{"name":"newCapital","type":"uint256","indexed":false,"internalType":"uint256"}],"anonymous":false},{"type":"event","name":"MarketPaused","inputs":[{"name":"marketId","type":"uint256","indexed":true,"internalType":"uint256"},{"name":"paused","type":"bool","indexed":false,"internalType":"bool"}],"anonymous":false},{"type":"event","name":"RiskParamsSet","inputs":[{"name":"marketId","type":"uint256","indexed":true,"internalType":"uint256"},{"name":"imBps","type":"uint256","indexed":false,"internalType":"uint256"},{"name":"mmBps","type":"uint256","indexed":false,"internalType":"uint256"},{"name":"maxLeverage","type":"uint256","indexed":false,"internalType":"uint256"}],"anonymous":false},{"type":"error","name":"ExceedsMaxLeverage","inputs":[]},{"type":"error","name":"GloballyPaused","inputs":[]},{"type":"error","name":"InsufficientMargin","inputs":[]},{"type":"error","name":"MarketNotConfigured","inputs":[]},{"type":"error","name":"MarketPausedError","inputs":[]},{"type":"error","name":"Unauthorized","inputs":[]}],"bytecode":{"object":"0x60a0346100a057601f6114f438819003918201601f19168301916001600160401b038311848410176100a4578084926020946040528339810103126100a057516001600160a01b038116908190036100a0575f80546001600160a01b0319163317905560805260405161143b90816100b982396080518181816106090152818161090901528181610c8601528181610f240152818161100301526112d30152f35b5f80fd5b634e487b7160e01b5f52604160045260245ffdfe6080604081815260049081361015610015575f80fd5b5f92833560e01c9081630a9e47b614610a585750806318686b2614610a305780631da608611461089f57806330051dae1461070b5780633557ee871461068e57806341d1fb201461063857806356397c35146105f45780635c749f82146105755780636436dca81461052057806369a6b3db146104af5780638bab83b6146104485780638da5cb5b146104205780639080043a146103f8578063948523451461038c578063aaf5eb6814610369578063ab0ddc8c1461033c578063dbe9a7b2146102b5578063e0dc175014610274578063e1f1c4a714610257578063e6a69ab814610238578063eaa33e14146101da578063f12d54d8146101b6578063f2941219146101825763f2fde38b14610129575f80fd5b3461017e57602036600319011261017e57610142610ab0565b8354926001600160a01b0392838516330361017257505016906bffffffffffffffffffffffff60a01b1617815580f35b516282b42960e81b8152fd5b8280fd5b8382346101b257806003193601126101b2576020906101ab6101a2610ab0565b60243590610ef3565b9051908152f35b5080fd5b8382346101b257816003193601126101b25760209060ff6006541690519015158152f35b508234610235576060366003190112610235576101f5610ab0565b908260243591828152600160205220541561022657906102189160443591610c56565b825191151582526020820152f35b505051639d5abc1360e01b8152fd5b80fd5b8382346101b257816003193601126101b257602090516301e133808152f35b8382346101b257816003193601126101b257602090516127108152f35b50903461017e57602036600319011261017e57803591828452600160205280842054156102a857836102a584610fca565b80f35b51639d5abc1360e01b8152fd5b508234610235576102c536610a96565b9291908183526001602052848320541561032c576102f191835260016020526002858420015490610b18565b90670de0b6b3a764000091828102928184041490151715610319576020846101ab8585610b3f565b634e487b7160e01b815260118552602490fd5b8451639d5abc1360e01b81528690fd5b50903461017e57602036600319011261017e578160209360ff923581526005855220541690519015158152f35b8382346101b257816003193601126101b25760209051670de0b6b3a76400008152f35b503461017e5761039b36610a7c565b845491939092916001600160a01b031633036103eb57507f8850655c9c300d5636bfca8dadad9943094b005c7d809155ef37a80210ae39729160209184865260028352818187205551908152a280f35b90516282b42960e81b8152fd5b50903461017e57602036600319011261017e5760209282913581526003845220549051908152f35b8382346101b257816003193601126101b257905490516001600160a01b039091168152602090f35b50903461017e57602036600319011261017e578160e093823581526001602052208054926001820154926002830154600384015491840154926006600586015495015495815197885260208801528601526060850152608084015260a083015260c0820152f35b503461017e57602036600319011261017e5781359182151580930361051c5783546001600160a01b031633036103eb57507f971be26fcde2df81b2b63dfb7fa1d2294b524eb1896b10e5228d9c154a30af099160209160ff196006541660ff83161760065551908152a180f35b8380fd5b50903461017e57608036600319011261017e57818135938481526001602052205415610567575061055e602092606435906044359060243590610b5d565b90519015158152f35b9051639d5abc1360e01b8152fd5b5091346102355761058536610a96565b92919093818352600160205285832054156105e65750918482670de0b6b3a7640000946105b9945260016020522093610b18565b046105d9612710916001836105cf865484610b18565b0494015490610b18565b0482519182526020820152f35b8551639d5abc1360e01b8152fd5b8382346101b257816003193601126101b257517f00000000000000000000000000000000000000000000000000000000000000006001600160a01b03168152602090f35b5082346102355761064836610a7c565b93818352600160205283832054156106805750602093600684846106789461271096526001885220015490610b18565b049051908152f35b8351639d5abc1360e01b8152fd5b50903461017e578160031936011261017e57803591602435918215158093036107075784546001600160a01b031633036103eb57507fea0b9904118e5ccd7fb0899ac0977af5ba4dd576bea7a8218e86ae96925ebd8a916020918486526005835280862060ff1981541660ff841617905551908152a280f35b8480fd5b503461017e5761010036600319011261017e57825482359260243592606435929091604435916001600160a01b03163303610892578482101561085d5783156108275791606093917f82943760bb2c05df74e0d910fe8461fbf763ead5ff7b29daeb45669e0d24acea9593825161078181610ac6565b8581526006898b602084018681528785018981528b8601906084358252608087019260a43584528a60a089019560c435875260c08a019760e4358952815260016020522097518855516001880155516002870155516003860155518585015551600584015551910155600360205282892080541561080d575b505081519384526020840152820152a280f35b670de0b6b3a7640000905560205242828920555f806107fa565b606490602084519162461bcd60e51b8352820152601060248201526f496e76616c6964206c6576657261676560801b6044820152fd5b606490602084519162461bcd60e51b8352820152600f60248201526e4d4d206d757374206265203c20494d60881b6044820152fd5b82516282b42960e81b8152fd5b508290346101b25760203660031901126101b2578235908051926080840184811067ffffffffffffffff821117610a1d5782528084526020840181815284830182815260608601838152845163eb44fdd360e01b815288810187905290959193919060e0816024817f00000000000000000000000000000000000000000000000000000000000000006001600160a01b03165afa908115610a1357906109569184916109e5575b5086602082015191015190610ed9565b875280825260026020528482205480845261098f57506080965080835284525b8251945185525160208501525190830152516060820152f35b90865190670de0b6b3a7640000918281029281840414901517156109d2575060809750906109c26109cb92845190610b3f565b908185526111f7565b8452610976565b634e487b7160e01b815260118952602490fd5b610a06915060e03d8111610a0c575b6109fe8183610af6565b810190610e64565b8a610946565b503d6109f4565b86513d85823e3d90fd5b634e487b7160e01b825260418652602482fd5b50903461017e57602036600319011261017e5760209282913581526002845220549051908152f35b9290503461051c57602036600319011261051c579283602094358252845220548152f35b6040906003190112610a92576004359060243590565b5f80fd5b6060906003190112610a9257600435906024359060443590565b600435906001600160a01b0382168203610a9257565b60e0810190811067ffffffffffffffff821117610ae257604052565b634e487b7160e01b5f52604160045260245ffd5b90601f8019910116810190811067ffffffffffffffff821117610ae257604052565b81810292918115918404141715610b2b57565b634e487b7160e01b5f52601160045260245ffd5b8115610b49570490565b634e487b7160e01b5f52601260045260245ffd5b90925f91825260016020526040822093610b81670de0b6b3a7640000928392610b18565b0493612710610b91825487610b18565b049482810290808204841490151715610be857610bb085600292610b3f565b910154828102928184041490151715610bd45711610bce5750101590565b91505090565b634e487b7160e01b83526011600452602483fd5b634e487b7160e01b84526011600452602484fd5b908160e0910312610a925760c060405191610c1683610ac6565b805183526020810151602084015260408101516040840152606081015160608401526080810151608084015260a081015160a0840152015160c082015290565b604051633adbb5af60e01b81526001600160a01b038281166004830152602482018490525f9586959094869492937f00000000000000000000000000000000000000000000000000000000000000008516939160e082604481885afa918215610e19578792610e34575b5060209586830193845115610e24579060648892848b526001845260408b209860405195869485936302986a7560e41b855216600484015260248301528860448301525afa958615610e19578796610de4575b505060600151858582019586129112908015821691151617610dd0578051858112610da55750916001670de0b6b3a7640000610d56610d60946127109651610b18565b0491015490610b18565b0491828212610d6e57505050565b919450919250600193818382039312818412811691841390151617610d91575090565b634e487b7160e01b81526011600452602490fd5b9050600160ff1b8114610dd057916001670de0b6b3a7640000610d56610d6094612710968903610b18565b634e487b7160e01b85526011600452602485fd5b9080929650813d8311610e12575b610dfc8183610af6565b81010312610e0e57519360605f610d13565b8580fd5b503d610df2565b6040513d89823e3d90fd5b5050505050505050925090508190565b610e5691925060e03d8111610e5d575b610e4e8183610af6565b810190610bfc565b905f610cc0565b503d610e44565b908160e0910312610a925760405190610e7c82610ac6565b8051906001600160a01b0382168203610a925760c09183526020810151602084015260408101516040840152606081015160608401526080810151608084015260a081015160a084015201518015158103610a925760c082015290565b91908201809211610b2b57565b91908203918211610b2b57565b604051633adbb5af60e01b81526001600160a01b039091166004820152602481018290529060e082806044810103817f00000000000000000000000000000000000000000000000000000000000000006001600160a01b03165afa918215610fbf575f92610f9f575b50602082015115610f9957670de0b6b3a7640000916060610f8d610f82610f9594611296565b60c084015190610ee6565b910151610b18565b0490565b50505f90565b610fb891925060e03d8111610e5d57610e4e8183610af6565b905f610f5c565b6040513d5f823e3d90fd5b905f918083526004926020848152604091610fe88382205442610ee6565b9081156111ee57835163eb44fdd360e01b81528781018690527f00000000000000000000000000000000000000000000000000000000000000006001600160a01b03169060e081602481855afa908115610a1357906110579184916111d0575b50868682015191015190610ed9565b86835260028552858320549081156111b657670de0b6b3a7640000908181029181830414901517156111a3576110a561109f6a1a1601fc4ea7109e000000936110bf93610b3f565b896111f7565b94888552600387526110ba8689872054610b18565b610b18565b04868352600385526110d5868420918254610ed9565b90558582528784524285832055600384528482205490803b1561017e578660648a8580948a519687958694635c95fdf960e01b8652850152670de0b6b3a7640000602485015260448401525af180156111995761116a575b5084959650807f2609c15c907f8e1abe0c3114d66aaa7f46f16fc5494340c1d4b4b2457651c40895859252600384522054918351928352820152a2565b67ffffffffffffffff811161118657845294955085948361112d565b634e487b7160e01b825260418852602482fd5b85513d84823e3d90fd5b634e487b7160e01b845260118a52602484fd5b50506a1a1601fc4ea7109e0000006110bf6110a58461109f565b6111e8915060e03d8111610a0c576109fe8183610af6565b5f611048565b50505050509050565b5f9081526001602052604090206005810154919082821161124c576112499261123e6004936110ba846112366003611243970154978892015482610ed9565b60011c610ee6565b610b3f565b90610ed9565b90565b9161126e81611265600460038701549601548096610ed9565b60011c93610ee6565b90670de0b6b3a7640000908103908111610b2b5761123e611243926110ba8561124997610ee6565b905f918083526020600481526040906112b28286205442610ee6565b80156113f657825163eb44fdd360e01b81526004810185905260e0816024817f00000000000000000000000000000000000000000000000000000000000000006001600160a01b03165afa9081156113ec579061131f9188916113ce575b50848482015191015190610ed9565b84875260028352838720549081156113a857670de0b6b3a764000090818102918183041490151715611394576113886003936110ba6113796113736112499b9c98966a1a1601fc4ea7109e00000096610b3f565b8a6111f7565b89885286865288882054610b18565b04948352522054610ed9565b634e487b7160e01b88526011600452602488fd5b505085916a1a1601fc4ea7109e0000006113886003936110ba6113796112499a9b611373565b6113e6915060e03d8111610a0c576109fe8183610af6565b5f611310565b84513d89823e3d90fd5b5084926003929495525220549056fea264697066735822122094de2ca37c91a5b82b5b45239e3d3c7799e3acf422b0161be06804c5b7be0e3364736f6c63430008140033","linkReferences":{}},"methodIdentifiers":{"BASIS_POINTS()":"e1f1c4a7","PRECISION()":"aaf5eb68","SECONDS_PER_YEAR()":"e6a69ab8","accrueInterest(uint256)":"e0dc1750","borrowIndex(uint256)":"9080043a","checkInitialMargin(uint256,uint256,uint256,uint256)":"6436dca8","getLiquidationPenalty(uint256,uint256)":"41d1fb20","getMaxPositionSize(uint256,uint256,uint256)":"dbe9a7b2","getPendingBorrowFee(address,uint256)":"f2941219","getRequiredCollateral(uint256,uint256,uint256)":"5c749f82","getUtilization(uint256)":"1da60861","globalPause()":"f12d54d8","isLiquidatable(address,uint256,uint256)":"eaa33e14","lastBorrowUpdate(uint256)":"0a9e47b6","ledger()":"56397c35","lpCapital(uint256)":"18686b26","marketPaused(uint256)":"ab0ddc8c","owner()":"8da5cb5b","riskParams(uint256)":"8bab83b6","setGlobalPause(bool)":"69a6b3db","setLPCapital(uint256,uint256)":"94852345","setMarketPaused(uint256,bool)":"3557ee87","setRiskParams(uint256,uint256,uint256,uint256,uint256,uint256,uint256,uint256)":"30051dae","transferOwnership(address)":"f2fde38b"},"id":37}