{"abi":[{"type":"constructor","inputs":[{"name":"_ledger","type":"address","internalType":"address"}],"stateMutability":"nonpayable"},{"type":"function","name":"BASIS_POINTS","inputs":[],"outputs":[{"name":"","type":"uint256","internalType":"uint256"}],"stateMutability":"view"},{"type":"function","name":"PRECISION","inputs":[],"outputs":[{"name":"","type":"uint256","internalType":"uint256"}],"stateMutability":"view"},{"type":"function","name":"adlHistory","inputs":[{"name":"","type":"uint256","internalType":"uint256"}],"outputs":[{"name":"liquidatedTrader","type":"address","internalType":"address"},{"name":"adlTrader","type":"address","internalType":"address"},{"name":"marketId","type":"uint256","internalType":"uint256"},{"name":"sizeReduced","type":"int256","internalType":"int256"},{"name":"pnlTaken","type":"int256","internalType":"int256"},{"name":"badDebtCovered","type":"uint256","internalType":"uint256"},{"name":"timestamp","type":"uint256","internalType":"uint256"}],"stateMutability":"view"},{"type":"function","name":"authorizedCallers","inputs":[{"name":"","type":"address","internalType":"address"}],"outputs":[{"name":"","type":"bool","internalType":"bool"}],"stateMutability":"view"},{"type":"function","name":"calculateADLScore","inputs":[{"name":"trader","type":"address","internalType":"address"},{"name":"marketId","type":"uint256","internalType":"uint256"},{"name":"currentPrice","type":"uint256","internalType":"uint256"}],"outputs":[{"name":"score","type":"uint256","internalType":"uint256"}],"stateMutability":"view"},{"type":"function","name":"getADLCandidates","inputs":[{"name":"marketId","type":"uint256","internalType":"uint256"},{"name":"side","type":"bool","internalType":"bool"},{"name":"traders","type":"address[]","internalType":"address[]"},{"name":"maxResults","type":"uint256","internalType":"uint256"}],"outputs":[{"name":"candidates","type":"tuple[]","internalType":"struct ADLEngine.ADLCandidate[]","components":[{"name":"trader","type":"address","internalType":"address"},{"name":"size","type":"int256","internalType":"int256"},{"name":"unrealizedPnL","type":"int256","internalType":"int256"},{"name":"leverage","type":"uint256","internalType":"uint256"},{"name":"adlScore","type":"uint256","internalType":"uint256"}]}],"stateMutability":"view"},{"type":"function","name":"getADLHistoryLength","inputs":[],"outputs":[{"name":"","type":"uint256","internalType":"uint256"}],"stateMutability":"view"},{"type":"function","name":"getRecentADLEvents","inputs":[{"name":"count","type":"uint256","internalType":"uint256"}],"outputs":[{"name":"events","type":"tuple[]","internalType":"struct ADLEngine.ADLEvent[]","components":[{"name":"liquidatedTrader","type":"address","internalType":"address"},{"name":"adlTrader","type":"address","internalType":"address"},{"name":"marketId","type":"uint256","internalType":"uint256"},{"name":"sizeReduced","type":"int256","internalType":"int256"},{"name":"pnlTaken","type":"int256","internalType":"int256"},{"name":"badDebtCovered","type":"uint256","internalType":"uint256"},{"name":"timestamp","type":"uint256","internalType":"uint256"}]}],"stateMutability":"view"},{"type":"function","name":"insuranceFund","inputs":[],"outputs":[{"name":"","type":"address","internalType":"contract IInsuranceFund"}],"stateMutability":"view"},{"type":"function","name":"ledger","inputs":[],"outputs":[{"name":"","type":"address","internalType":"contract IPositionLedger"}],"stateMutability":"view"},{"type":"function","name":"minProfitForADL","inputs":[],"outputs":[{"name":"","type":"uint256","internalType":"uint256"}],"stateMutability":"view"},{"type":"function","name":"owner","inputs":[],"outputs":[{"name":"","type":"address","internalType":"address"}],"stateMutability":"view"},{"type":"function","name":"priceEngine","inputs":[],"outputs":[{"name":"","type":"address","internalType":"contract IPriceEngine"}],"stateMutability":"view"},{"type":"function","name":"processBadDebt","inputs":[{"name":"marketId","type":"uint256","internalType":"uint256"},{"name":"badDebtAmount","type":"uint256","internalType":"uint256"},{"name":"liquidatedSide","type":"bool","internalType":"bool"},{"name":"candidates","type":"address[]","internalType":"address[]"}],"outputs":[{"name":"coveredByInsurance","type":"uint256","internalType":"uint256"},{"name":"coveredByADL","type":"uint256","internalType":"uint256"}],"stateMutability":"nonpayable"},{"type":"function","name":"setAuthorizedCaller","inputs":[{"name":"caller","type":"address","internalType":"address"},{"name":"authorized","type":"bool","internalType":"bool"}],"outputs":[],"stateMutability":"nonpayable"},{"type":"function","name":"setInsuranceFund","inputs":[{"name":"_insuranceFund","type":"address","internalType":"address"}],"outputs":[],"stateMutability":"nonpayable"},{"type":"function","name":"setMinProfitForADL","inputs":[{"name":"_minProfit","type":"uint256","internalType":"uint256"}],"outputs":[],"stateMutability":"nonpayable"},{"type":"function","name":"setPriceEngine","inputs":[{"name":"_priceEngine","type":"address","internalType":"address"}],"outputs":[],"stateMutability":"nonpayable"},{"type":"function","name":"wouldTriggerADL","inputs":[{"name":"badDebtAmount","type":"uint256","internalType":"uint256"}],"outputs":[{"name":"","type":"bool","internalType":"bool"}],"stateMutability":"view"},{"type":"event","name":"ADLTriggered","inputs":[{"name":"marketId","type":"uint256","indexed":true,"internalType":"uint256"},{"name":"badDebtAmount","type":"uint256","indexed":false,"internalType":"uint256"},{"name":"insuranceCovered","type":"uint256","indexed":false,"internalType":"uint256"}],"anonymous":false},{"type":"event","name":"AutoDeleveraged","inputs":[{"name":"liquidatedTrader","type":"address","indexed":true,"internalType":"address"},{"name":"adlTrader","type":"address","indexed":true,"internalType":"address"},{"name":"marketId","type":"uint256","indexed":true,"internalType":"uint256"},{"name":"sizeReduced","type":"int256","indexed":false,"internalType":"int256"},{"name":"pnlTaken","type":"int256","indexed":false,"internalType":"int256"},{"name":"badDebtCovered","type":"uint256","indexed":false,"internalType":"uint256"}],"anonymous":false},{"type":"error","name":"InsuranceCoveredDebt","inputs":[]},{"type":"error","name":"NoADLCandidates","inputs":[]},{"type":"error","name":"NoBadDebt","inputs":[]},{"type":"error","name":"Unauthorized","inputs":[]}],"bytecode":{"object":"0x60a0346100c157601f61185038819003918201601f19168301916001600160401b038311848410176100c5578084926020946040528339810103126100c157516001600160a01b038116908190036100c1575f600581905580546001600160a01b0319163317905560805260405161177690816100da82396080518181816102c001528181610349015281816103db0152818161044d015281816109c701528181610a7501528181610b8b01528181610c4001528181610f9301526115160152f35b5f80fd5b634e487b7160e01b5f52604160045260245ffdfe6080806040526004361015610012575f80fd5b5f3560e01c908163010fb961146112d25750806311c756e5146111065780631a227324146110875780633d5e624214611054578063454bbd2914610fff578063536fff6c14610fc257806356397c3514610f7e5780638313e05414610f5657806386fe969f14610f395780638da5cb5b14610f12578063a309718a146108f5578063a484e028146108d8578063aaf5eb68146108b6578063b79023031461088e578063c3c0529314610849578063dec2af1414610821578063e1f1c4a714610805578063f66464c0146101475763fff73fef146100ed575f80fd5b3461014357602036600319011261014357610106611357565b5f546001600160a01b0391908216330361013257166001600160601b0360a01b60025416176002555f80f35b6040516282b42960e81b8152600490fd5b5f80fd5b346101435760803660031901126101435760443580151581036101435760643567ffffffffffffffff81116101435761018490369060040161137c565b9091335f52600460205260ff60405f20541615806107f1575b610132575f915f91602435156107df57600254604051635af3d06160e01b815260048035908201529290602090849060249082906001600160a01b03165afa9283156105f7575f936107ab575b5060015460243591906001600160a01b03168015158061074d575b6106d3575b5060405160243581528660208201527f7fa1d379b9710cff598c47c254d7cf7875f41b02006b255b5e313ed209d4f25c604060043592a2811515806106ca575b61025f575b6040868682519182526020820152f35b5f9693945091928692915b828410806106c1575b156106af5761028b610286858585611422565b611432565b604051633adbb5af60e01b81526001600160a01b03821660048083019190915235602482015290919060e081806044810103817f00000000000000000000000000000000000000000000000000000000000000006001600160a01b03165afa9081156105f7575f91610680575b5060208101518015610631575f881515911314610673576040516302986a7560e41b81526001600160a01b0384166004808301919091523560248201526044810189905290602082806064810103817f00000000000000000000000000000000000000000000000000000000000000006001600160a01b03165afa9182156105f7575f9261063f575b506005548213156106315782821115610628576103bc83925b6020830151845f821315610617576103b7915060208501516114b0565b6114c3565b90811561060857602001515f1215610602576103d7906114a0565b915b7f00000000000000000000000000000000000000000000000000000000000000006001600160a01b03163b156101435760405163d52019e360e01b815260018060a01b038516600482015260043560248201528360448201528960648201525f60848201525f8160a4818360018060a01b037f0000000000000000000000000000000000000000000000000000000000000000165af180156105f7576105df575b50604051610487816113ad565b5f81526001600160a01b03851660208201526004356040820152606081018490526080810183905260a081018390524260c0820152600354680100000000000000008110156105cb578060016104e0920160035561130a565b9290926105b8576105b1956105ab956105a594600660c0889660018060a01b038151166001600160601b0360a01b9081865416178555600185019060018060a01b036020840151169082541617905560408101516002850155606081015160038501556080810151600485015560a0810151600585015501519101556040519081528360208201528360408201525f7ff54e9ab06f25010655e1a7d91279f5144c0a24ae25f43342b5b780c32b8d9a4060606004359460018060a01b031693a4611407565b996114e1565b93611414565b929661026a565b634e487b7160e01b5f525f60045260245ffd5b634e487b7160e01b5f52604160045260245ffd5b67ffffffffffffffff81116105cb576040528b61047a565b6040513d5f823e3d90fd5b916103d9565b50505097936105b19150611414565b6106236103b7926114a0565b6114b0565b6103bc8261039a565b505097936105b19150611414565b9091506020813d60201161066b575b8161065b602093836113e5565b810103126101435751908b610381565b3d915061064e565b5097936105b19150611414565b6106a2915060e03d60e0116106a8575b61069a81836113e5565b810190611446565b8a6102f8565b503d610690565b5050505050506040918380808061024f565b50801515610273565b5080151561024a565b5f9650602091925060246040518098819363ecc6d9ff60e01b8352833560048401525af19485156105f7575f95610719575b5061071285602435611407565b908761020a565b9094506020813d602011610745575b81610735602093836113e5565b8101031261014357519386610705565b3d9150610728565b50604051624b476b60e91b8152602081600481855afa9081156105f7575f91610779575b501515610205565b90506020813d6020116107a3575b81610794602093836113e5565b81010312610143575189610771565b3d9150610787565b9092506020813d6020116107d7575b816107c7602093836113e5565b81010312610143575191866101ea565b3d91506107ba565b6040516338b13f8d60e01b8152600490fd5b505f546001600160a01b031633141561019d565b34610143575f3660031901126101435760206040516127108152f35b3461014357602036600319011261014357602061083f6004356116ce565b6040519015158152f35b3461014357602036600319011261014357610862611357565b5f546001600160a01b0391908216330361013257166001600160601b0360a01b60015416176001555f80f35b34610143575f366003190112610143576001546040516001600160a01b039091168152602090f35b34610143575f366003190112610143576020604051670de0b6b3a76400008152f35b34610143575f366003190112610143576020600554604051908152f35b346101435760803660031901126101435761090e61136d565b6044359067ffffffffffffffff821161014357610931602492369060040161137c565b600254604051635af3d06160e01b815260048035908201529460209186919082906001600160a01b03165afa9384156105f7575f94610ede575b505f915f5b82811080610ed3575b15610b2c576109c360e0610991610286848787611422565b604051633adbb5af831b81526001600160a01b0390911660048083019190915235602482015291829081906044820190565b03817f00000000000000000000000000000000000000000000000000000000000000006001600160a01b03165afa80156105f7576020915f91610b0d575b5001518015159081610afe575b50610a22575b610a1d90611414565b610970565b610a71602087610a36610286858888611422565b6040516302986a7560e41b81526001600160a01b03909116600480830191909152356024820152604481019190915291829081906064820190565b03817f00000000000000000000000000000000000000000000000000000000000000006001600160a01b03165afa9081156105f7575f91610acc575b506005541215610a145792610ac4610a1d91611414565b939050610a14565b90506020813d602011610af6575b81610ae7602093836113e5565b81010312610143575187610aad565b3d9150610ada565b90505f86151591131487610a0e565b610b26915060e03d60e0116106a85761069a81836113e5565b88610a01565b5092849193610b3a846116a2565b610b4760405191826113e5565b848152601f19610b56866116a2565b015f5b818110610e9e5750505f925f5b87811080610e95575b15610e1f57610b8760e0610991610286848c89611422565b03817f00000000000000000000000000000000000000000000000000000000000000006001600160a01b03165afa9081156105f7575f91610e00575b50868960208301518015159081610df1575b50610bec575b505050610be790611414565b610b66565b610c3c9291610c01610286866020948b611422565b6040516302986a7560e41b81526001600160a01b03909116600480830191909152356024820152604481019190915292839081906064820190565b03817f00000000000000000000000000000000000000000000000000000000000000006001600160a01b03165afa9081156105f75788925f92610dba575b506005548213610c8e575b50508089610bdb565b602081989293949801515f81135f14610dac575060208101515b610cbc670de0b6b3a76400009586926114b0565b048b89606084015115155f14610d8e5750508085810204851481151715610d7a5788610d6f94610d278c8f94610d22610286610d038f93610be79d60608c015191026114c3565b965b6020610d15610286838c88611422565b9a01519860043594611422565b6114ee565b9260405194610d35866113c9565b6001600160a01b031685526020850152604084015260608301526080820152610d5e82876116ba565b52610d6981866116ba565b50611414565b949050858980610c85565b634e487b7160e01b5f52601160045260245ffd5b909150610be79550610d6f94610d278c8b610d226102865f96610d05565b610db5906114a0565b610ca8565b925090506020823d602011610de9575b81610dd7602093836113e5565b8101031261014357879151908b610c7a565b3d9150610dca565b90505f8615159113148c610bd5565b610e19915060e03d60e0116106a85761069a81836113e5565b89610bc3565b826040518091602082016020835281518091526020604084019201905f5b818110610e4b575050500390f35b91935091602060a0600192608087518580851b0381511683528481015185840152604081015160408401526060808201519084015201516080820152019401910191849392610e3d565b50868510610b6f565b602090604051610ead816113c9565b5f81525f838201525f60408201525f60608201525f608082015282828601015201610b59565b506064358410610979565b9093506020813d602011610f0a575b81610efa602093836113e5565b810103126101435751928461096b565b3d9150610eed565b34610143575f366003190112610143575f546040516001600160a01b039091168152602090f35b34610143575f366003190112610143576020600354604051908152f35b34610143575f366003190112610143576002546040516001600160a01b039091168152602090f35b34610143575f366003190112610143576040517f00000000000000000000000000000000000000000000000000000000000000006001600160a01b03168152602090f35b34610143576020366003190112610143576001600160a01b03610fe3611357565b165f526004602052602060ff60405f2054166040519015158152f35b3461014357604036600319011261014357611018611357565b61102061136d565b5f5490916001600160a01b03918216330361013257165f52600460205260405f209060ff8019835416911515161790555f80f35b3461014357606036600319011261014357602061107f611072611357565b60443590602435906114ee565b604051908152f35b3461014357602036600319011261014357600435600354811015610143576110b060e09161130a565b5060018060a01b0390818154169160018201541690600281015460038201546004830154916006600585015494015494604051968752602087015260408601526060850152608084015260a083015260c0820152f35b346101435760208060031936011261014357600380549190600435808411156112c65761113661113d9185611407565b8094611407565b90611147826116a2565b9361115560405195866113e5565b828552601f19611164846116a2565b01845f5b828110611286575050505f5b8381106111ff5760408051868152875181880181905288880192820190885f5b8281106111a15784840385f35b855180516001600160a01b03908116865281840151168584015260408082015190860152606080820151908601526080808201519086015260a0808201519086015260c090810151908501529481019460e090930192600101611194565b8061121561121061128193856114e1565b61130a565b50600660405191611225836113ad565b80546001600160a01b039081168452600182015416898401526002810154604084015286810154606084015260048101546080840152600581015460a0840152015460c082015261127682896116ba565b52610d6981886116ba565b611174565b604051611292816113ad565b5f81525f838201525f60408201525f60608201525f60808201525f60a08201525f60c082015282828a010152018590611168565b5061113d5f8094611407565b34610143576020366003190112610143575f546001600160a01b031633036112fc57600435600555005b6282b42960e81b8152600490fd5b6003548110156113435760079060035f52027fc2575a0e9e593c00f959f8c92f12db2869c3395a3b0502d05e2516446f71f85b01905f90565b634e487b7160e01b5f52603260045260245ffd5b600435906001600160a01b038216820361014357565b60243590811515820361014357565b9181601f840112156101435782359167ffffffffffffffff8311610143576020808501948460051b01011161014357565b60e0810190811067ffffffffffffffff8211176105cb57604052565b60a0810190811067ffffffffffffffff8211176105cb57604052565b90601f8019910116810190811067ffffffffffffffff8211176105cb57604052565b91908203918211610d7a57565b5f198114610d7a5760010190565b91908110156113435760051b0190565b356001600160a01b03811681036101435790565b908160e09103126101435760c060405191611460836113ad565b805183526020810151602084015260408101516040840152606081015160608401526080810151608084015260a081015160a0840152015160c082015290565b600160ff1b8114610d7a575f0390565b81810292918115918404141715610d7a57565b81156114cd570490565b634e487b7160e01b5f52601260045260245ffd5b91908201809211610d7a57565b604051633adbb5af60e01b81526001600160a01b0382811660048301526024820184905290937f00000000000000000000000000000000000000000000000000000000000000009091169260e085604481875afa9485156105f7575f95611682575b5060208501928351158015611676575b61166c576040516302986a7560e41b81526001600160a01b0391909116600482015260248101919091526044810182905292602090849060649082905afa9283156105f7575f93611636575b505f83131561162e57670de0b6b3a76400009384840293808504861490151715610d7a5784916115e560606115f89301958651906114c3565b9380515f81135f146116245750516114b0565b049183830292808404851490151715610d7a576116209261161a9151906114c3565b906114b0565b0490565b61062391506114a0565b505050505f90565b90926020823d8211611664575b81611650602093836113e5565b81010312611661575051915f6115ac565b80fd5b3d9150611643565b5050505050505f90565b50606086015115611560565b61169b91955060e03d81116106a85761069a81836113e5565b935f611550565b67ffffffffffffffff81116105cb5760051b60200190565b80518210156113435760209160051b010190565b6001546001600160a01b0316801561173a5790602060049260405193848092624b476b60e91b82525afa9182156105f7575f9261170a57501190565b90916020823d8211611732575b81611724602093836113e5565b810103126116615750511090565b3d9150611717565b5015159056fea2646970667358221220c80ae32fc897bea700f9681dfb679e9cd18049be9c2e3fb5dfbc71747ab8d08064736f6c63430008140033","linkReferences":{}},"methodIdentifiers":{"BASIS_POINTS()":"e1f1c4a7","PRECISION()":"aaf5eb68","adlHistory(uint256)":"1a227324","authorizedCallers(address)":"536fff6c","calculateADLScore(address,uint256,uint256)":"3d5e6242","getADLCandidates(uint256,bool,address[],uint256)":"a309718a","getADLHistoryLength()":"86fe969f","getRecentADLEvents(uint256)":"11c756e5","insuranceFund()":"b7902303","ledger()":"56397c35","minProfitForADL()":"a484e028","owner()":"8da5cb5b","priceEngine()":"8313e054","processBadDebt(uint256,uint256,bool,address[])":"f66464c0","setAuthorizedCaller(address,bool)":"454bbd29","setInsuranceFund(address)":"c3c05293","setMinProfitForADL(uint256)":"010fb961","setPriceEngine(address)":"fff73fef","wouldTriggerADL(uint256)":"dec2af14"},"id":16}