{"abi":[{"type":"constructor","inputs":[],"stateMutability":"nonpayable"},{"type":"function","name":"addMinter","inputs":[{"name":"minter","type":"address","internalType":"address"}],"outputs":[],"stateMutability":"nonpayable"},{"type":"function","name":"allowance","inputs":[{"name":"","type":"address","internalType":"address"},{"name":"","type":"address","internalType":"address"}],"outputs":[{"name":"","type":"uint256","internalType":"uint256"}],"stateMutability":"view"},{"type":"function","name":"approve","inputs":[{"name":"spender","type":"address","internalType":"address"},{"name":"amount","type":"uint256","internalType":"uint256"}],"outputs":[{"name":"","type":"bool","internalType":"bool"}],"stateMutability":"nonpayable"},{"type":"function","name":"balanceOf","inputs":[{"name":"","type":"address","internalType":"address"}],"outputs":[{"name":"","type":"uint256","internalType":"uint256"}],"stateMutability":"view"},{"type":"function","name":"burn","inputs":[{"name":"amount","type":"uint256","internalType":"uint256"}],"outputs":[],"stateMutability":"nonpayable"},{"type":"function","name":"decimals","inputs":[],"outputs":[{"name":"","type":"uint8","internalType":"uint8"}],"stateMutability":"view"},{"type":"function","name":"mint","inputs":[{"name":"to","type":"address","internalType":"address"},{"name":"amount","type":"uint256","internalType":"uint256"}],"outputs":[],"stateMutability":"nonpayable"},{"type":"function","name":"minters","inputs":[{"name":"","type":"address","internalType":"address"}],"outputs":[{"name":"","type":"bool","internalType":"bool"}],"stateMutability":"view"},{"type":"function","name":"name","inputs":[],"outputs":[{"name":"","type":"string","internalType":"string"}],"stateMutability":"view"},{"type":"function","name":"owner","inputs":[],"outputs":[{"name":"","type":"address","internalType":"address"}],"stateMutability":"view"},{"type":"function","name":"removeMinter","inputs":[{"name":"minter","type":"address","internalType":"address"}],"outputs":[],"stateMutability":"nonpayable"},{"type":"function","name":"symbol","inputs":[],"outputs":[{"name":"","type":"string","internalType":"string"}],"stateMutability":"view"},{"type":"function","name":"totalSupply","inputs":[],"outputs":[{"name":"","type":"uint256","internalType":"uint256"}],"stateMutability":"view"},{"type":"function","name":"transfer","inputs":[{"name":"to","type":"address","internalType":"address"},{"name":"amount","type":"uint256","internalType":"uint256"}],"outputs":[{"name":"","type":"bool","internalType":"bool"}],"stateMutability":"nonpayable"},{"type":"function","name":"transferFrom","inputs":[{"name":"from","type":"address","internalType":"address"},{"name":"to","type":"address","internalType":"address"},{"name":"amount","type":"uint256","internalType":"uint256"}],"outputs":[{"name":"","type":"bool","internalType":"bool"}],"stateMutability":"nonpayable"},{"type":"event","name":"Approval","inputs":[{"name":"owner","type":"address","indexed":true,"internalType":"address"},{"name":"spender","type":"address","indexed":true,"internalType":"address"},{"name":"value","type":"uint256","indexed":false,"internalType":"uint256"}],"anonymous":false},{"type":"event","name":"MinterAdded","inputs":[{"name":"minter","type":"address","indexed":true,"internalType":"address"}],"anonymous":false},{"type":"event","name":"MinterRemoved","inputs":[{"name":"minter","type":"address","indexed":true,"internalType":"address"}],"anonymous":false},{"type":"event","name":"Transfer","inputs":[{"name":"from","type":"address","indexed":true,"internalType":"address"},{"name":"to","type":"address","indexed":true,"internalType":"address"},{"name":"value","type":"uint256","indexed":false,"internalType":"uint256"}],"anonymous":false}],"bytecode":{"object":"0x6080806040523461004357600380546001600160a01b031916339081179091555f908152600460205260409020805460ff1916600117905561084190816100488239f35b5f80fdfe60806040818152600480361015610014575f80fd5b5f92833560e01c90816306fdde031461067657508063095ea7b31461060557806318160ddd146105e857806323b872dd146104d65780633092afd514610468578063313ce5671461044c57806340c10f19146103885783816342966c68146103185750806370a08231146102e05780638da5cb5b146102b757806395d89b4114610252578063983b2d56146101e1578063a9059cbb14610153578063dd62ed3e146101065763f46eccc4146100c7575f80fd5b346101025760203660031901126101025760209260ff918391906001600160a01b036100f1610712565b168252855220541690519015158152f35b8280fd5b50503461014f578060031936011261014f5780602092610124610712565b61012c61072c565b6001600160a01b0391821683526002865283832091168252845220549051908152f35b5080fd5b50503461014f578060031936011261014f57602091610170610712565b82602435913384526001865261018b8383862054101561079b565b338452600186528184206101a08482546107de565b90556001600160a01b031680845260018652922080546101c190839061077a565b905582519081525f805160206107ec833981519152843392a35160018152f35b509034610102576020366003190112610102576101fc610712565b6003546001600160a01b0391906102169083163314610742565b16918284526020528220600160ff198254161790557f6ae172837ea30b801fbfcdd4108aa1d5bf8ff775444fd70256b44e6bf3dfc3f68280a280f35b5091903461014f578160031936011261014f578051918183019083821067ffffffffffffffff8311176102a45750926102a09382528252631554d11560e21b602083015251918291826106cb565b0390f35b634e487b7160e01b815260418552602490fd5b50503461014f578160031936011261014f5760035490516001600160a01b039091168152602090f35b50503461014f57602036600319011261014f5760209181906001600160a01b03610308610712565b1681526001845220549051908152f35b8084843461038457602036600319011261038457359033835260016020526103458282852054101561079b565b338352600160205280832061035b8382546107de565b90556103688284546107de565b8355519081525f805160206107ec83398151915260203392a380f35b5050fd5b50346101025781600319360112610102576103a1610712565b602435913385528060205260ff84862054168015610438575b1561040857506020825f805160206107ec833981519152926103de8795865461077a565b855560018060a01b031694858552600183528085206103fe83825461077a565b905551908152a380f35b606490602085519162461bcd60e51b8352820152600a6024820152692737ba1036b4b73a32b960b11b6044820152fd5b506003546001600160a01b031633146103ba565b50503461014f578160031936011261014f576020905160128152f35b50903461010257602036600319011261010257610483610712565b6003546001600160a01b03919061049d9083163314610742565b1691828452602052822060ff1981541690557fe94479a9f7e1952cc78f2d6baab678adc1b772d936c6583def489e524cb666928280a280f35b5091346105e55760603660031901126105e5576104f1610712565b6104f961072c565b906044359060018060a01b0380911692838552602096600188526105228488882054101561079b565b8486526002885286862033875288528387872054106105a95750918587925f805160206107ec8339815191529486885260028552828820338952855282882061056c8582546107de565b9055868852600185528288206105838582546107de565b90551695868152600184522061059a82825461077a565b90558551908152a35160018152f35b865162461bcd60e51b81529081018890526016602482015275496e73756666696369656e7420616c6c6f77616e636560501b6044820152606490fd5b80fd5b50503461014f578160031936011261014f57602091549051908152f35b50503461014f578060031936011261014f5760209181610623610712565b91602435918291338152600287528181209460018060a01b0316948582528752205582519081527f8c5be1e5ebec7d5bd14f71427d1e84f3dd0314c0f7b2291e5b200ac8c7c3b925843392a35160018152f35b90508284346105e557806003193601126105e5578183019083821067ffffffffffffffff8311176102a457506102a093508152600f82526e135bd8dac815195d1a195c881554d1608a1b602083015251918291825b602080825282518183018190529093925f5b8281106106fe57505060409293505f838284010152601f8019910116010190565b8181018601518482016040015285016106dd565b600435906001600160a01b038216820361072857565b5f80fd5b602435906001600160a01b038216820361072857565b1561074957565b60405162461bcd60e51b81526020600482015260096024820152682737ba1037bbb732b960b91b6044820152606490fd5b9190820180921161078757565b634e487b7160e01b5f52601160045260245ffd5b156107a257565b60405162461bcd60e51b8152602060048201526014602482015273496e73756666696369656e742062616c616e636560601b6044820152606490fd5b919082039182116107875756feddf252ad1be2c89b69c2b068fc378daa952ba7f163c4a11628f55a4df523b3efa2646970667358221220a92c09ca5e6bfc97251a7e2eee859b3d0ce55a646a9f8716919125403d66837364736f6c63430008140033","linkReferences":{}},"methodIdentifiers":{"addMinter(address)":"983b2d56","allowance(address,address)":"dd62ed3e","approve(address,uint256)":"095ea7b3","balanceOf(address)":"70a08231","burn(uint256)":"42966c68","decimals()":"313ce567","mint(address,uint256)":"40c10f19","minters(address)":"f46eccc4","name()":"06fdde03","owner()":"8da5cb5b","removeMinter(address)":"3092afd5","symbol()":"95d89b41","totalSupply()":"18160ddd","transfer(address,uint256)":"a9059cbb","transferFrom(address,address,uint256)":"23b872dd"},"id":49}