{"abi":[{"type":"constructor","inputs":[{"name":"_ledger","type":"address","internalType":"address"},{"name":"_collateralToken","type":"address","internalType":"address"},{"name":"_protocolFeeRecipient","type":"address","internalType":"address"},{"name":"_lpPool","type":"address","internalType":"address"}],"stateMutability":"nonpayable"},{"type":"function","name":"BASIS_POINTS","inputs":[],"outputs":[{"name":"","type":"uint256","internalType":"uint256"}],"stateMutability":"view"},{"type":"function","name":"PRECISION","inputs":[],"outputs":[{"name":"","type":"uint256","internalType":"uint256"}],"stateMutability":"view"},{"type":"function","name":"batchLiquidate","inputs":[{"name":"traders","type":"address[]","internalType":"address[]"},{"name":"marketIds","type":"uint256[]","internalType":"uint256[]"}],"outputs":[{"name":"liquidated","type":"uint256","internalType":"uint256"}],"stateMutability":"nonpayable"},{"type":"function","name":"canLiquidate","inputs":[{"name":"trader","type":"address","internalType":"address"},{"name":"marketId","type":"uint256","internalType":"uint256"}],"outputs":[{"name":"","type":"bool","internalType":"bool"}],"stateMutability":"view"},{"type":"function","name":"collateralToken","inputs":[],"outputs":[{"name":"","type":"address","internalType":"contract IERC20"}],"stateMutability":"view"},{"type":"function","name":"getLiquidatablePositions","inputs":[{"name":"marketId","type":"uint256","internalType":"uint256"},{"name":"traders","type":"address[]","internalType":"address[]"}],"outputs":[{"name":"liquidatable","type":"address[]","internalType":"address[]"}],"stateMutability":"view"},{"type":"function","name":"ledger","inputs":[],"outputs":[{"name":"","type":"address","internalType":"contract IPositionLedger"}],"stateMutability":"view"},{"type":"function","name":"liquidate","inputs":[{"name":"trader","type":"address","internalType":"address"},{"name":"marketId","type":"uint256","internalType":"uint256"}],"outputs":[{"name":"result","type":"tuple","internalType":"struct LiquidationEngine.LiquidationResult","components":[{"name":"trader","type":"address","internalType":"address"},{"name":"marketId","type":"uint256","internalType":"uint256"},{"name":"positionSize","type":"int256","internalType":"int256"},{"name":"collateral","type":"uint256","internalType":"uint256"},{"name":"pnl","type":"int256","internalType":"int256"},{"name":"penalty","type":"uint256","internalType":"uint256"},{"name":"liquidatorReward","type":"uint256","internalType":"uint256"},{"name":"protocolFee","type":"uint256","internalType":"uint256"},{"name":"lpRecovery","type":"uint256","internalType":"uint256"}]}],"stateMutability":"nonpayable"},{"type":"function","name":"liquidatorRewardBps","inputs":[],"outputs":[{"name":"","type":"uint256","internalType":"uint256"}],"stateMutability":"view"},{"type":"function","name":"lpPool","inputs":[],"outputs":[{"name":"","type":"address","internalType":"address"}],"stateMutability":"view"},{"type":"function","name":"owner","inputs":[],"outputs":[{"name":"","type":"address","internalType":"address"}],"stateMutability":"view"},{"type":"function","name":"partialLiquidate","inputs":[{"name":"trader","type":"address","internalType":"address"},{"name":"marketId","type":"uint256","internalType":"uint256"},{"name":"targetSize","type":"uint256","internalType":"uint256"}],"outputs":[{"name":"collateralSeized","type":"uint256","internalType":"uint256"}],"stateMutability":"nonpayable"},{"type":"function","name":"previewLiquidation","inputs":[{"name":"trader","type":"address","internalType":"address"},{"name":"marketId","type":"uint256","internalType":"uint256"}],"outputs":[{"name":"result","type":"tuple","internalType":"struct LiquidationEngine.LiquidationResult","components":[{"name":"trader","type":"address","internalType":"address"},{"name":"marketId","type":"uint256","internalType":"uint256"},{"name":"positionSize","type":"int256","internalType":"int256"},{"name":"collateral","type":"uint256","internalType":"uint256"},{"name":"pnl","type":"int256","internalType":"int256"},{"name":"penalty","type":"uint256","internalType":"uint256"},{"name":"liquidatorReward","type":"uint256","internalType":"uint256"},{"name":"protocolFee","type":"uint256","internalType":"uint256"},{"name":"lpRecovery","type":"uint256","internalType":"uint256"}]}],"stateMutability":"view"},{"type":"function","name":"priceEngine","inputs":[],"outputs":[{"name":"","type":"address","internalType":"contract IPriceEngine"}],"stateMutability":"view"},{"type":"function","name":"protocolFeeBps","inputs":[],"outputs":[{"name":"","type":"uint256","internalType":"uint256"}],"stateMutability":"view"},{"type":"function","name":"protocolFeeRecipient","inputs":[],"outputs":[{"name":"","type":"address","internalType":"address"}],"stateMutability":"view"},{"type":"function","name":"riskEngine","inputs":[],"outputs":[{"name":"","type":"address","internalType":"contract IRiskEngine"}],"stateMutability":"view"},{"type":"function","name":"setEngines","inputs":[{"name":"_riskEngine","type":"address","internalType":"address"},{"name":"_priceEngine","type":"address","internalType":"address"}],"outputs":[],"stateMutability":"nonpayable"},{"type":"function","name":"setFeeDistribution","inputs":[{"name":"_liquidatorBps","type":"uint256","internalType":"uint256"},{"name":"_protocolBps","type":"uint256","internalType":"uint256"}],"outputs":[],"stateMutability":"nonpayable"},{"type":"function","name":"setLPPool","inputs":[{"name":"_lpPool","type":"address","internalType":"address"}],"outputs":[],"stateMutability":"nonpayable"},{"type":"function","name":"setProtocolFeeRecipient","inputs":[{"name":"_recipient","type":"address","internalType":"address"}],"outputs":[],"stateMutability":"nonpayable"},{"type":"function","name":"totalLiquidations","inputs":[],"outputs":[{"name":"","type":"uint256","internalType":"uint256"}],"stateMutability":"view"},{"type":"function","name":"totalPenaltiesCollected","inputs":[],"outputs":[{"name":"","type":"uint256","internalType":"uint256"}],"stateMutability":"view"},{"type":"function","name":"transferOwnership","inputs":[{"name":"newOwner","type":"address","internalType":"address"}],"outputs":[],"stateMutability":"nonpayable"},{"type":"event","name":"EnginesUpdated","inputs":[{"name":"riskEngine","type":"address","indexed":false,"internalType":"address"},{"name":"priceEngine","type":"address","indexed":false,"internalType":"address"}],"anonymous":false},{"type":"event","name":"FeeDistributionUpdated","inputs":[{"name":"liquidatorBps","type":"uint256","indexed":false,"internalType":"uint256"},{"name":"protocolBps","type":"uint256","indexed":false,"internalType":"uint256"}],"anonymous":false},{"type":"event","name":"Liquidation","inputs":[{"name":"trader","type":"address","indexed":true,"internalType":"address"},{"name":"marketId","type":"uint256","indexed":true,"internalType":"uint256"},{"name":"liquidator","type":"address","indexed":true,"internalType":"address"},{"name":"positionSize","type":"int256","indexed":false,"internalType":"int256"},{"name":"collateralSeized","type":"uint256","indexed":false,"internalType":"uint256"},{"name":"penalty","type":"uint256","indexed":false,"internalType":"uint256"},{"name":"liquidatorReward","type":"uint256","indexed":false,"internalType":"uint256"}],"anonymous":false},{"type":"event","name":"PartialLiquidation","inputs":[{"name":"trader","type":"address","indexed":true,"internalType":"address"},{"name":"marketId","type":"uint256","indexed":true,"internalType":"uint256"},{"name":"sizeLiquidated","type":"int256","indexed":false,"internalType":"int256"},{"name":"collateralSeized","type":"uint256","indexed":false,"internalType":"uint256"}],"anonymous":false},{"type":"error","name":"InvalidConfiguration","inputs":[]},{"type":"error","name":"NotLiquidatable","inputs":[]},{"type":"error","name":"TransferFailed","inputs":[]},{"type":"error","name":"Unauthorized","inputs":[]}],"bytecode":{"object":"0x60c0346200012657601f62001b6f38819003918201601f19168301916001600160401b038311848410176200012a5780849260809460405283398101031262000126576200004d816200013e565b6200005b602083016200013e565b9062000078606062000070604086016200013e565b94016200013e565b906113886003556103e860045560018060a01b03199333855f5416175f5560018060a01b038094818094166080521660a0521683600554161760055516906006541617600655604051611a1b9081620001548239608051818181610300015281816106ee015281816107630152818161081f0152818161088f01528181610d4c01528181610e4601528181610eb901528181610ef201528181610f4c015261151a015260a05181610bb10152f35b5f80fd5b634e487b7160e01b5f52604160045260245ffd5b51906001600160a01b0382168203620001265756fe6080806040526004361015610012575f80fd5b5f90813560e01c9081631c1c4c44146115905750806335659fb8146115725780633737bcb41461154957806356397c35146115045780635819f8a2146112385780635ac35a261461121a57806360d458ed1461119057806364df049e146111675780637eaacdb0146111495780638313e054146111205780638b1449d914610c715780638da5cb5b14610c4a57806392b888ae14610c21578063954806d714610c03578063aaf5eb6814610be0578063b2016bd414610b9b578063b39ff73614610a87578063bcbaf4871461060d578063bd02739a1461057f578063cd46406914610223578063e1f1c4a714610206578063e521cb92146101c1578063ece153b61461017c5763f2fde38b14610126575f80fd5b346101795760203660031901126101795761013f611781565b81546001600160a01b0391908216330361016857166001600160601b0360a01b5f5416175f5580f35b6040516282b42960e81b8152600490fd5b80fd5b503461017957602036600319011261017957610196611781565b81546001600160a01b0391908216330361016857166001600160601b0360a01b600654161760065580f35b5034610179576020366003190112610179576101db611781565b81546001600160a01b0391908216330361016857166001600160601b0360a01b600554161760055580f35b503461017957806003193601126101795760206040516127108152f35b50346101795760403660031901126101795761023d611781565b60243591610249611886565b50600254604051635af3d06160e01b8152600481018590526001600160a01b039490926020928390859060249082908a165afa938415610572578194610543575b5060015460408051633aa8cf8560e21b81526001600160a01b03881660048201526024810185905260448101879052918816979190816064818b5afa9081156104b0578391610513575b501561050157604051633adbb5af60e01b81526001600160a01b038716600482015260248101849052947f0000000000000000000000000000000000000000000000000000000000000000821660e087604481845afa9687156104f65784976104bb575b506040516302986a7560e41b81526001600160a01b0389166004820152602481018690526044810192909252909190859083908180606481015b03915afa9182156104b0578392610481575b50606086018581516044604051809c819363020e8fd960e51b83528a600484015260248301525afa9384156104755793610440575b61043c985061271094856103cf60035487611957565b04956103dd60045487611957565b0496806103f3896103ee8a8a61196a565b61196a565b9901519251936040519a6104068c61181f565b168a5289015260408801526060870152608086015260a085015260c084015260e083015261010082015260405191829182611797565b0390f35b92508488813d831161046e575b6104578183611864565b8101031261046a5761043c9751926103b9565b5f80fd5b503d61044d565b604051903d90823e3d90fd5b9091508481813d83116104a9575b6104998183611864565b8101031261046a5751905f610384565b503d61048f565b6040513d85823e3d90fd5b86919750916104e5610372949360e03d60e0116104ef575b6104dd8183611864565b8101906118ea565b9791509192610338565b503d6104d3565b6040513d86823e3d90fd5b604051636ef5bcdd60e11b8152600490fd5b610535915060403d60401161053c575b61052d8183611864565b8101906118ca565b505f6102d4565b503d610523565b9093508281813d831161056b575b61055b8183611864565b8101031261046a5751925f61028a565b503d610551565b50604051903d90823e3d90fd5b503461017957604036600319011261017957610599611781565b6001600160a01b03906024358281169081900361046a57828454163303610168577f2bd0307553de98f877b8b2bf429aa6698ab60f880c65f4f4d31ac802129178c4926040921690806001600160601b0360a01b83816001541617600155600254161760025582519182526020820152a180f35b50346101795760403660031901126101795760249061062a611781565b610632611886565b50600254604051635af3d06160e01b8152843560048201529360209185919082906001600160a01b03165afa928315610988578293610a53575b5060015460408051633aa8cf8560e21b81526001600160a01b038481166004830152602480359083015260448201879052909216919081606481855afa9081156104f6578491610a33575b501561050157604051633adbb5af60e01b81526001600160a01b038316600482015260248035908201529260e084806044810103817f00000000000000000000000000000000000000000000000000000000000000006001600160a01b03165afa938415610572578194610a0d575b506040516302986a7560e41b81526001600160a01b03841660048201526024803590820152604481019590955292939260208480606481015b03817f00000000000000000000000000000000000000000000000000000000000000006001600160a01b03165afa9384156105725781946109d9575b5060608501916020835160446040518094819363020e8fd960e51b8352602435600484015260248301525afa9081156109885782916109a7575b5061271091826107e760035484611957565b04926107f560045484611957565b0490610805826103ee868661196a565b9085518189808301129112908015821691151617610993577f00000000000000000000000000000000000000000000000000000000000000006001600160a01b03163b1561017957604051631c719cd360e31b81526001600160a01b03978816600482018190526024803590830152336044830152606482018690529782908290608490829084907f0000000000000000000000000000000000000000000000000000000000000000165af1801561098857610974575b5050602061043c9801918251978651604051996108d88b61181f565b898b5260243560208c015260408b015260608a015260808901528360a08901528460c089015260e0880152610100870152610914600754611977565b600755610923826008546117fe565b60085551925160405193845260208401526040830152606082015233917ff8e84adf6c543ff3c5966af3c27b6f41dd572a65dbb15d594bded45acc0bb08d608060243593a460405191829182611797565b61097e8291611850565b61017957806108bc565b6040513d84823e3d90fd5b634e487b7160e01b81526011600452602490fd5b90506020813d6020116109d1575b816109c260209383611864565b8101031261046a57515f6107d5565b3d91506109b5565b9093506020813d602011610a05575b816109f560209383611864565b8101031261046a5751925f61079b565b3d91506109e8565b61075f9450610a2c60209160e03d60e0116104ef576104dd8183611864565b9450610726565b610a4c915060403d60401161053c5761052d8183611864565b505f6106b7565b9092506020813d602011610a7f575b81610a6f60209383611864565b8101031261046a5751915f61066c565b3d9150610a62565b503461017957604036600319011261017957610aa1611781565b602480359160018060a01b036020816002541660405194858092635af3d06160e01b82528860048301525afa928315610b90578593610b59575b5060015460408051633aa8cf8560e21b81526001600160a01b039094166004850152602484019590955260448301939093529092918391168180606481015b03915afa9081156109885760209291610b39575b506040519015158152f35b610b52915060403d60401161053c5761052d8183611864565b505f610b2e565b9250906020833d8211610b88575b81610b7460209383611864565b8101031261046a5791519190610b1a610adb565b3d9150610b67565b6040513d87823e3d90fd5b50346101795780600319360112610179576040517f00000000000000000000000000000000000000000000000000000000000000006001600160a01b03168152602090f35b50346101795780600319360112610179576020604051670de0b6b3a76400008152f35b50346101795780600319360112610179576020600754604051908152f35b50346101795780600319360112610179576001546040516001600160a01b039091168152602090f35b5034610179578060031936011261017957546040516001600160a01b039091168152602090f35b503461017957606036600319011261017957610c8b611781565b600254604051635af3d06160e01b81526024803560048301526044359392602091839182906001600160a01b03165afa9081156104f65784916110ee575b5060015460408051633aa8cf8560e21b81526001600160a01b03858116600483015260248035908301526044820185905290921694919081606481885afa9081156110c35786916110ce575b501561050157604051633adbb5af60e01b81526001600160a01b038416600482015260248035908201529360e085806044810103817f00000000000000000000000000000000000000000000000000000000000000006001600160a01b03165afa9485156110c35786956110a2575b50602085015186811261109357506020850151915b8281101561105557610dab908361196a565b9182670de0b6b3a7640000810204670de0b6b3a7640000148315171561104157801561102d579060446020670de0b6b3a7640000610df28a958288020460608b0151611957565b04926040519283809263020e8fd960e51b825260243560048301528660248301525afa9081156104b0578391610ff6575b50610e30906020926117fe565b9501511315610ff057610e42906119bd565b915b7f00000000000000000000000000000000000000000000000000000000000000006001600160a01b03163b15610fd9576040519063d52019e360e01b825260018060a01b03169182600483015260243560248301528360448301526064820152846084820152848160a4818360018060a01b037f0000000000000000000000000000000000000000000000000000000000000000165af18015610b9057610fdd575b50610ef0836119bd565b7f00000000000000000000000000000000000000000000000000000000000000006001600160a01b03163b15610fd957604051636a4e5a1d60e11b815260048101839052602480359082015260448101919091528481606481837f00000000000000000000000000000000000000000000000000000000000000006001600160a01b03165af18015610b9057610fc1575b506020935060405191825282848301527fc13c0630391c4e7cb4d022b0dee36b97d4dbdf4c78fdf937f065083a8719219c604060243593a3604051908152f35b610fcb8591611850565b610fd55783610f81565b8380fd5b8480fd5b610fe990949194611850565b925f610ee6565b91610e44565b90506020813d602011611025575b8161101160209383611864565b8101031261102157516020610e23565b8280fd5b3d9150611004565b634e487b7160e01b87526012600452602487fd5b634e487b7160e01b87526011600452602487fd5b60405162461bcd60e51b81526020600482015260166024820152752a30b933b2ba1036bab9ba1031329039b6b0b63632b960511b6044820152606490fd5b61109c906119bd565b91610d99565b6110bc91955060e03d60e0116104ef576104dd8183611864565b935f610d84565b6040513d88823e3d90fd5b6110e7915060403d60401161053c5761052d8183611864565b505f610d15565b90506020813d602011611118575b8161110960209383611864565b81010312610fd557515f610cc9565b3d91506110fc565b50346101795780600319360112610179576002546040516001600160a01b039091168152602090f35b50346101795780600319360112610179576020600854604051908152f35b50346101795780600319360112610179576005546040516001600160a01b039091168152602090f35b503461017957604036600319011261017957805460043590602435906001600160a01b03163303610168576127106111c882846117fe565b1161120857816040917f9de2276677f0ed74ae6f9209d0b547e3dea001202cb0de314ff2c3dc57d07c2a936003558060045582519182526020820152a180f35b60405163c52a9bd360e01b8152600490fd5b50346101795780600319360112610179576020600354604051908152f35b50346101795760403660031901126101795760243567ffffffffffffffff81116115005761126a903690600401611750565b9190816024602060018060a01b036002541660405192838092635af3d06160e01b825260043560048301525afa9081156104f65784916114ce575b508391939492949060019360018060a01b03855416925b81811061144857506112e66112d0876119cd565b966112de6040519889611864565b8088526119cd565b602087019790601f19013689378492855b8381106113475750505050505060405192602084019060208552518091526040840194915b8181106113295784860385f35b82516001600160a01b0316865260209586019590920191830161131c565b6113a0604083611366611361859c9e9c899c9e9c89611985565b6119a9565b8251633aa8cf8560e21b81526001600160a01b03909116600480830191909152356024820152604481019190915291829081906064820190565b03818a5afa90811561143d578a9161141d575b506113cd575b6113c290611977565b9896989795976112f7565b6113db611361828686611985565b946113e581611977565b958851821015611409576001600160a01b031660059190911b8801602001526113b9565b634e487b7160e01b8b52603260045260248bfd5b611436915060403d60401161053c5761052d8183611864565b505f6113b3565b6040513d8c823e3d90fd5b61146160408461136661136185878e9c9e9d9b9d611985565b0381885afa9081156114c35788916114a3575b5061148e575b61148390611977565b9694969593956112bc565b9361149b61148391611977565b94905061147a565b6114bc915060403d60401161053c5761052d8183611864565b505f611474565b6040513d8a823e3d90fd5b90506020813d6020116114f8575b816114e960209383611864565b81010312610fd557515f6112a5565b3d91506114dc565b5080fd5b50346101795780600319360112610179576040517f00000000000000000000000000000000000000000000000000000000000000006001600160a01b03168152602090f35b50346101795780600319360112610179576006546040516001600160a01b039091168152602090f35b50346101795780600319360112610179576020600454604051908152f35b9050346115005760403660031901126115005767ffffffffffffffff600435818111610fd5576115c4903690600401611750565b9091602435908111610fd9576115de903690600401611750565b9091859482820361171c5750855b8181106115fe57602086604051908152f35b61160c611361828488611985565b611617828587611985565b60405163bcbaf48760e01b81526001600160a01b039290921660048301523560248201526101209081816044818c305af19182611679575b5050611664575b61165f90611977565b6115ec565b9461167161165f91611977565b959050611656565b81813d8311611715575b61168d8183611864565b8101031261171157604051906116a28261181f565b80516001600160a01b038116810361170d5782526020808201519083015260408101516040830152606080820151908301526080808201519083015260a0808201519083015260c0808201519083015260e081015160e0830152610100809101519101525f8061164f565b8a80fd5b8880fd5b503d611683565b62461bcd60e51b815260206004820152600f60248201526e098cadccee8d040dad2e6dac2e8c6d608b1b6044820152606490fd5b9181601f8401121561046a5782359167ffffffffffffffff831161046a576020808501948460051b01011161046a57565b600435906001600160a01b038216820361046a57565b91909161012081019260018060a01b0381511682526020810151602083015260408101516040830152606081015160608301526080810151608083015260a081015160a083015260c081015160c083015260e081015160e083015261010080910151910152565b9190820180921161180b57565b634e487b7160e01b5f52601160045260245ffd5b610120810190811067ffffffffffffffff82111761183c57604052565b634e487b7160e01b5f52604160045260245ffd5b67ffffffffffffffff811161183c57604052565b90601f8019910116810190811067ffffffffffffffff82111761183c57604052565b604051906118938261181f565b816101005f918281528260208201528260408201528260608201528260808201528260a08201528260c08201528260e08201520152565b919082604091031261046a578151801515810361046a5760209092015190565b908160e091031261046a576040519060e082019082821067ffffffffffffffff83111761183c5760c091604052805183526020810151602084015260408101516040840152606081015160608401526080810151608084015260a081015160a0840152015160c082015290565b8181029291811591840414171561180b57565b9190820391821161180b57565b5f19811461180b5760010190565b91908110156119955760051b0190565b634e487b7160e01b5f52603260045260245ffd5b356001600160a01b038116810361046a5790565b600160ff1b811461180b575f0390565b67ffffffffffffffff811161183c5760051b6020019056fea2646970667358221220ea835cd1942632b885751872d21a340f8b9126c83d143da5c02df224ba8cec6364736f6c63430008140033","linkReferences":{}},"methodIdentifiers":{"BASIS_POINTS()":"e1f1c4a7","PRECISION()":"aaf5eb68","batchLiquidate(address[],uint256[])":"1c1c4c44","canLiquidate(address,uint256)":"b39ff736","collateralToken()":"b2016bd4","getLiquidatablePositions(uint256,address[])":"5819f8a2","ledger()":"56397c35","liquidate(address,uint256)":"bcbaf487","liquidatorRewardBps()":"5ac35a26","lpPool()":"3737bcb4","owner()":"8da5cb5b","partialLiquidate(address,uint256,uint256)":"8b1449d9","previewLiquidation(address,uint256)":"cd464069","priceEngine()":"8313e054","protocolFeeBps()":"35659fb8","protocolFeeRecipient()":"64df049e","riskEngine()":"92b888ae","setEngines(address,address)":"bd02739a","setFeeDistribution(uint256,uint256)":"60d458ed","setLPPool(address)":"ece153b6","setProtocolFeeRecipient(address)":"e521cb92","totalLiquidations()":"954806d7","totalPenaltiesCollected()":"7eaacdb0","transferOwnership(address)":"f2fde38b"},"id":21}