{"abi":[{"type":"constructor","inputs":[{"name":"_asset","type":"address","internalType":"address"}],"stateMutability":"nonpayable"},{"type":"function","name":"PRECISION","inputs":[],"outputs":[{"name":"","type":"uint256","internalType":"uint256"}],"stateMutability":"view"},{"type":"function","name":"addFees","inputs":[{"name":"amount","type":"uint256","internalType":"uint256"}],"outputs":[],"stateMutability":"nonpayable"},{"type":"function","name":"allocate","inputs":[{"name":"amount","type":"uint256","internalType":"uint256"}],"outputs":[],"stateMutability":"nonpayable"},{"type":"function","name":"allowance","inputs":[{"name":"","type":"address","internalType":"address"},{"name":"","type":"address","internalType":"address"}],"outputs":[{"name":"","type":"uint256","internalType":"uint256"}],"stateMutability":"view"},{"type":"function","name":"approve","inputs":[{"name":"spender","type":"address","internalType":"address"},{"name":"amount","type":"uint256","internalType":"uint256"}],"outputs":[{"name":"","type":"bool","internalType":"bool"}],"stateMutability":"nonpayable"},{"type":"function","name":"asset","inputs":[],"outputs":[{"name":"","type":"address","internalType":"contract IERC20"}],"stateMutability":"view"},{"type":"function","name":"authorizedAllocators","inputs":[{"name":"","type":"address","internalType":"address"}],"outputs":[{"name":"","type":"bool","internalType":"bool"}],"stateMutability":"view"},{"type":"function","name":"availableLiquidity","inputs":[],"outputs":[{"name":"","type":"uint256","internalType":"uint256"}],"stateMutability":"view"},{"type":"function","name":"balanceOf","inputs":[{"name":"","type":"address","internalType":"address"}],"outputs":[{"name":"","type":"uint256","internalType":"uint256"}],"stateMutability":"view"},{"type":"function","name":"claimFees","inputs":[],"outputs":[{"name":"fees","type":"uint256","internalType":"uint256"}],"stateMutability":"nonpayable"},{"type":"function","name":"convertToAssets","inputs":[{"name":"shares","type":"uint256","internalType":"uint256"}],"outputs":[{"name":"","type":"uint256","internalType":"uint256"}],"stateMutability":"view"},{"type":"function","name":"convertToShares","inputs":[{"name":"assets","type":"uint256","internalType":"uint256"}],"outputs":[{"name":"","type":"uint256","internalType":"uint256"}],"stateMutability":"view"},{"type":"function","name":"cumulativeFeePerShare","inputs":[],"outputs":[{"name":"","type":"uint256","internalType":"uint256"}],"stateMutability":"view"},{"type":"function","name":"deallocate","inputs":[{"name":"amount","type":"uint256","internalType":"uint256"}],"outputs":[],"stateMutability":"nonpayable"},{"type":"function","name":"decimals","inputs":[],"outputs":[{"name":"","type":"uint8","internalType":"uint8"}],"stateMutability":"view"},{"type":"function","name":"deposit","inputs":[{"name":"assets","type":"uint256","internalType":"uint256"},{"name":"receiver","type":"address","internalType":"address"}],"outputs":[{"name":"shares","type":"uint256","internalType":"uint256"}],"stateMutability":"nonpayable"},{"type":"function","name":"maxPoolSize","inputs":[],"outputs":[{"name":"","type":"uint256","internalType":"uint256"}],"stateMutability":"view"},{"type":"function","name":"minDeposit","inputs":[],"outputs":[{"name":"","type":"uint256","internalType":"uint256"}],"stateMutability":"view"},{"type":"function","name":"name","inputs":[],"outputs":[{"name":"","type":"string","internalType":"string"}],"stateMutability":"view"},{"type":"function","name":"owner","inputs":[],"outputs":[{"name":"","type":"address","internalType":"address"}],"stateMutability":"view"},{"type":"function","name":"pendingFees","inputs":[],"outputs":[{"name":"","type":"uint256","internalType":"uint256"}],"stateMutability":"view"},{"type":"function","name":"pendingFeesOf","inputs":[{"name":"user","type":"address","internalType":"address"}],"outputs":[{"name":"","type":"uint256","internalType":"uint256"}],"stateMutability":"view"},{"type":"function","name":"previewDeposit","inputs":[{"name":"assets","type":"uint256","internalType":"uint256"}],"outputs":[{"name":"","type":"uint256","internalType":"uint256"}],"stateMutability":"view"},{"type":"function","name":"previewWithdraw","inputs":[{"name":"shares","type":"uint256","internalType":"uint256"}],"outputs":[{"name":"","type":"uint256","internalType":"uint256"}],"stateMutability":"view"},{"type":"function","name":"processWithdrawal","inputs":[{"name":"receiver","type":"address","internalType":"address"}],"outputs":[{"name":"assets","type":"uint256","internalType":"uint256"}],"stateMutability":"nonpayable"},{"type":"function","name":"recordLoss","inputs":[{"name":"amount","type":"uint256","internalType":"uint256"}],"outputs":[],"stateMutability":"nonpayable"},{"type":"function","name":"requestWithdrawal","inputs":[{"name":"shares","type":"uint256","internalType":"uint256"}],"outputs":[],"stateMutability":"nonpayable"},{"type":"function","name":"setAllocatorAuthorization","inputs":[{"name":"allocator","type":"address","internalType":"address"},{"name":"authorized","type":"bool","internalType":"bool"}],"outputs":[],"stateMutability":"nonpayable"},{"type":"function","name":"setMaxPoolSize","inputs":[{"name":"_maxPoolSize","type":"uint256","internalType":"uint256"}],"outputs":[],"stateMutability":"nonpayable"},{"type":"function","name":"setMinDeposit","inputs":[{"name":"_minDeposit","type":"uint256","internalType":"uint256"}],"outputs":[],"stateMutability":"nonpayable"},{"type":"function","name":"setWithdrawalDelay","inputs":[{"name":"_delay","type":"uint256","internalType":"uint256"}],"outputs":[],"stateMutability":"nonpayable"},{"type":"function","name":"sharePrice","inputs":[],"outputs":[{"name":"","type":"uint256","internalType":"uint256"}],"stateMutability":"view"},{"type":"function","name":"symbol","inputs":[],"outputs":[{"name":"","type":"string","internalType":"string"}],"stateMutability":"view"},{"type":"function","name":"totalAllocated","inputs":[],"outputs":[{"name":"","type":"uint256","internalType":"uint256"}],"stateMutability":"view"},{"type":"function","name":"totalAssets","inputs":[],"outputs":[{"name":"","type":"uint256","internalType":"uint256"}],"stateMutability":"view"},{"type":"function","name":"totalSupply","inputs":[],"outputs":[{"name":"","type":"uint256","internalType":"uint256"}],"stateMutability":"view"},{"type":"function","name":"transfer","inputs":[{"name":"to","type":"address","internalType":"address"},{"name":"amount","type":"uint256","internalType":"uint256"}],"outputs":[{"name":"","type":"bool","internalType":"bool"}],"stateMutability":"nonpayable"},{"type":"function","name":"transferFrom","inputs":[{"name":"from","type":"address","internalType":"address"},{"name":"to","type":"address","internalType":"address"},{"name":"amount","type":"uint256","internalType":"uint256"}],"outputs":[{"name":"","type":"bool","internalType":"bool"}],"stateMutability":"nonpayable"},{"type":"function","name":"transferOwnership","inputs":[{"name":"newOwner","type":"address","internalType":"address"}],"outputs":[],"stateMutability":"nonpayable"},{"type":"function","name":"unclaimedFees","inputs":[{"name":"","type":"address","internalType":"address"}],"outputs":[{"name":"","type":"uint256","internalType":"uint256"}],"stateMutability":"view"},{"type":"function","name":"userFeeCheckpoint","inputs":[{"name":"","type":"address","internalType":"address"}],"outputs":[{"name":"","type":"uint256","internalType":"uint256"}],"stateMutability":"view"},{"type":"function","name":"utilization","inputs":[],"outputs":[{"name":"","type":"uint256","internalType":"uint256"}],"stateMutability":"view"},{"type":"function","name":"withdraw","inputs":[{"name":"shares","type":"uint256","internalType":"uint256"},{"name":"receiver","type":"address","internalType":"address"}],"outputs":[{"name":"assets","type":"uint256","internalType":"uint256"}],"stateMutability":"nonpayable"},{"type":"function","name":"withdrawalDelay","inputs":[],"outputs":[{"name":"","type":"uint256","internalType":"uint256"}],"stateMutability":"view"},{"type":"function","name":"withdrawalRequests","inputs":[{"name":"","type":"address","internalType":"address"}],"outputs":[{"name":"shares","type":"uint256","internalType":"uint256"},{"name":"requestTime","type":"uint256","internalType":"uint256"},{"name":"processed","type":"bool","internalType":"bool"}],"stateMutability":"view"},{"type":"event","name":"Allocated","inputs":[{"name":"amount","type":"uint256","indexed":false,"internalType":"uint256"},{"name":"newTotalAllocated","type":"uint256","indexed":false,"internalType":"uint256"}],"anonymous":false},{"type":"event","name":"Approval","inputs":[{"name":"owner","type":"address","indexed":true,"internalType":"address"},{"name":"spender","type":"address","indexed":true,"internalType":"address"},{"name":"value","type":"uint256","indexed":false,"internalType":"uint256"}],"anonymous":false},{"type":"event","name":"Deallocated","inputs":[{"name":"amount","type":"uint256","indexed":false,"internalType":"uint256"},{"name":"newTotalAllocated","type":"uint256","indexed":false,"internalType":"uint256"}],"anonymous":false},{"type":"event","name":"Deposit","inputs":[{"name":"caller","type":"address","indexed":true,"internalType":"address"},{"name":"owner","type":"address","indexed":true,"internalType":"address"},{"name":"assets","type":"uint256","indexed":false,"internalType":"uint256"},{"name":"shares","type":"uint256","indexed":false,"internalType":"uint256"}],"anonymous":false},{"type":"event","name":"FeesAccrued","inputs":[{"name":"amount","type":"uint256","indexed":false,"internalType":"uint256"},{"name":"newCumulativeFeePerShare","type":"uint256","indexed":false,"internalType":"uint256"}],"anonymous":false},{"type":"event","name":"FeesClaimed","inputs":[{"name":"user","type":"address","indexed":true,"internalType":"address"},{"name":"amount","type":"uint256","indexed":false,"internalType":"uint256"}],"anonymous":false},{"type":"event","name":"Transfer","inputs":[{"name":"from","type":"address","indexed":true,"internalType":"address"},{"name":"to","type":"address","indexed":true,"internalType":"address"},{"name":"value","type":"uint256","indexed":false,"internalType":"uint256"}],"anonymous":false},{"type":"event","name":"Withdraw","inputs":[{"name":"caller","type":"address","indexed":true,"internalType":"address"},{"name":"receiver","type":"address","indexed":true,"internalType":"address"},{"name":"owner","type":"address","indexed":true,"internalType":"address"},{"name":"assets","type":"uint256","indexed":false,"internalType":"uint256"},{"name":"shares","type":"uint256","indexed":false,"internalType":"uint256"}],"anonymous":false},{"type":"event","name":"WithdrawalRequested","inputs":[{"name":"owner","type":"address","indexed":true,"internalType":"address"},{"name":"shares","type":"uint256","indexed":false,"internalType":"uint256"}],"anonymous":false},{"type":"error","name":"BelowMinDeposit","inputs":[]},{"type":"error","name":"ExceedsMaxPoolSize","inputs":[]},{"type":"error","name":"InsufficientAllowance","inputs":[]},{"type":"error","name":"InsufficientBalance","inputs":[]},{"type":"error","name":"InsufficientLiquidity","inputs":[]},{"type":"error","name":"NoWithdrawalPending","inputs":[]},{"type":"error","name":"Unauthorized","inputs":[]},{"type":"error","name":"WithdrawalNotReady","inputs":[]},{"type":"error","name":"WithdrawalPending","inputs":[]},{"type":"error","name":"ZeroAmount","inputs":[]}],"bytecode":{"object":"0x60a0346100b957601f61178238819003918201601f19168301916001600160401b038311848410176100bd578084926020946040528339810103126100b957516001600160a01b038116908190036100b95762015180600b555f19600c5568056bc75e2d63100000600d555f80546001600160a01b031916331790556080526040516116b090816100d2823960805181818161097001528181610c5301528181610d33015281816110b9015281816112e2015261143a0152f35b5f80fd5b634e487b7160e01b5f52604160045260245ffdfe6080604081815260049182361015610015575f80fd5b5f92833560e01c918262f714ce1461100a5750816301e1d11414610fec57816306fdde0314610fa657816307a2d13a14610f15578163095ea7b314610f355781630a28a47714610f15578163107e9cf114610ee257816318160ddd14610ec3578163224438d114610ea457816323b872dd14610dd357816327b380f314610d7e578163313ce56714610d6257816338d52e0f14610d1e5781633c1a501214610b7f57816341b3d18514610b6057816345f7f24914610b4157816348a4565d14610b145781636022743e14610aba57816360e5dd2714610a825781636e553f65146108de5781636f6c441f1461087257816370a082311461083a5781637437535914610817578163752a536d146107f8578163769c62a21461078c578163872697291461076f5781638da5cb5b146107475781638fcc9cfb1461071a57816390ca796b1461067f57816395d89b411461063d578163975e006c146105ca5781639ee679e8146104a9578163a7ab69611461048a578163a9059cbb14610400578163aaf5eb68146103dd578163c5579dc0146103be578163c6e6f592146102ac578163d294f093146103a1578163d2c13da514610374578163dd62ed3e1461032b578163dead8d39146102f3578163ea21cd92146102d6578163ef8b30f7146102ac578163f2fde38b14610250575063f7e8f00314610210575f80fd5b3461024c57602036600319011261024c5760209160ff9082906001600160a01b03610239611185565b168152600e855220541690519015158152f35b5080fd5b919050346102a85760203660031901126102a85761026c611185565b8354926001600160a01b0392838516330361029c57505016906bffffffffffffffffffffffff60a01b1617815580f35b516282b42960e81b8152fd5b8280fd5b8284346102d35760203660031901126102d357506102cc602092356114c7565b9051908152f35b80fd5b50503461024c578160031936011261024c576020906102cc611548565b50503461024c57602036600319011261024c5760209181906001600160a01b0361031b611185565b1681526009845220549051908152f35b50503461024c578060031936011261024c5780602092610349611185565b61035161116b565b6001600160a01b0391821683526003865283832091168252845220549051908152f35b919050346102a85760203660031901126102a85782546001600160a01b0316330361029c575035600b5580f35b50503461024c578160031936011261024c576020906102cc6113ea565b50503461024c578160031936011261024c57602090600c549051908152f35b50503461024c578160031936011261024c5760209051670de0b6b3a76400008152f35b50503461024c578060031936011261024c5760209161041d611185565b826024359161042b336115c9565b610434816115c9565b3384526002865281842061044984825461126d565b90556001600160a01b0316808452600286529220805461046a908390611234565b905582519081525f8051602061165b833981519152843392a35160018152f35b50503461024c578160031936011261024c57602090600b549051908152f35b83833461024c576020806003193601126102a85783359182156105bb57338452600282528281852054106105ac57338452600a825280842080541515908161059c575b5061058d5780516060810181811067ffffffffffffffff82111761057a578291610570917fe670e4e82118d22a1f9ee18920455ebc958bae26a90a05d31d3378788b1b0e44959452858152600284820142815284830190898252338a52600a8752858a209351845551600184015551151591019060ff801983541691151516179055565b519283523392a280f35b634e487b7160e01b865260418752602486fd5b51632cd3d71b60e21b81528490fd5b60ff9150600201541615866104ec565b51631e9acf1760e31b81528490fd5b51631f2a200560e01b81528490fd5b83833461024c578060031936011261024c576105e4611185565b906024359182151583036106395783546001600160a01b0391908216330361062a57610627949550168452600e60205283209060ff801983541691151516179055565b80f35b82516282b42960e81b81528690fd5b8380fd5b50503461024c578160031936011261024c57805161067b9161065e8261119b565b60068252651b1d9554d11560d21b602083015251918291826111ed565b0390f35b9050346102a85760203660031901126102a857803590338452600e60205260ff83852054161561070d578054906106b9600554809361126d565b83116106ff5750906106ed817f06686aaa593b19d01617ac400575a79693899102504b038ef5e3371ff51e4d9f9493611234565b8060055582519182526020820152a180f35b835163bb55fd2760e01b8152fd5b82516282b42960e81b8152fd5b919050346102a85760203660031901126102a85782546001600160a01b0316330361029c575035600d5580f35b50503461024c578160031936011261024c57905490516001600160a01b039091168152602090f35b50503461024c578160031936011261024c576020906102cc61150b565b50503461024c57602036600319011261024c576020916102cc90670de0b6b3a76400006107f16001600160a01b036107c2611185565b16808452600887526107d98685205460075461126d565b9084526009875285808520549460028952205461127a565b0490611234565b50503461024c578160031936011261024c576020906007549051908152f35b8284346102d357806003193601126102d357506102cc602092546005549061126d565b50503461024c57602036600319011261024c5760209181906001600160a01b03610862611185565b1681526002845220549051908152f35b9050346102a85760203660031901126102a857803590338452600e60205260ff83852054161561070d57506005547f45c7b09725b519c56f6c8002e81499c39ba974a242e07699ea72bc0417607dff9291908082116108d6575b816106ed9161126d565b9050806108cc565b919050346102a857806003193601126102a8578135926108fc61116b565b93600d548110610a7357610911818554611234565b600c5410610a6457610922816114c7565b938415610a5657610932866115c9565b83516323b872dd60e01b8152338282019081523060208083019190915260408201859052976001600160a01b039290918990829081900360600181897f000000000000000000000000000000000000000000000000000000000000000088165af18015610a4c57610a1f575b506109ab87600154611234565b600155168381809552600288528581206109c6888254611234565b90555f8051602061165b833981519152888751898152a36109e8828254611234565b9055825190815283858201527fdcbc1c05240f31ff3ad067ef1ee35ce4997762752e3a095284754544f4c709d7833392a351908152f35b610a3e90893d8b11610a45575b610a3681836111cb565b810190611255565b505f61099e565b503d610a2c565b87513d88823e3d90fd5b8351631f2a200560e01b8152fd5b50505163d279763560e01b8152fd5b5050516325bb239560e21b8152fd5b50503461024c57602036600319011261024c5760209181906001600160a01b03610aaa611185565b1681526008845220549051908152f35b919050346102a85760203660031901126102a857813590338452600e60205260ff818520541615610b0657508154610af99190808211610afe5761126d565b905580f35b90508061126d565b516282b42960e81b81529050fd5b919050346102a85760203660031901126102a85782546001600160a01b0316330361029c575035600c5580f35b50503461024c578160031936011261024c576020906005549051908152f35b50503461024c578160031936011261024c57602090600d549051908152f35b83833461024c57602092836003193601126102a857610b9c611185565b90338452600a85528284209384549182158015610d10575b610d0257610bc96001870154600b5490611234565b4210610cf457610bd8836114ed565b95610be782546005549061126d565b8711610ce5579060028592610bfb336115c9565b01805460ff19166001179055610c11843361157d565b610c1c87825461126d565b8155855163a9059cbb60e01b81526001600160a01b03928316918101918252602082018890529192908890839081900360400181847f000000000000000000000000000000000000000000000000000000000000000088165af1908115610cda5750610cbd575b5083519185835286830152339216907ffbde797d201c681b91056529119e0b02407c7bb96a4a2c75c01fc9667232c8db843392a451908152f35b610cd390873d8911610a4557610a3681836111cb565b5086610c83565b8651903d90823e3d90fd5b50845163bb55fd2760e01b8152fd5b8451630f2ca6e760e01b8152fd5b84516383e8949360e01b8152fd5b5060ff600287015416610bb4565b50503461024c578160031936011261024c57517f00000000000000000000000000000000000000000000000000000000000000006001600160a01b03168152602090f35b50503461024c578160031936011261024c576020905160128152f35b50503461024c57602036600319011261024c5760609181906001600160a01b03610da6611185565b168152600a602052209081549160ff60026001830154920154169082519384526020840152151590820152f35b50503461024c57606036600319011261024c57610e3c91610df2611185565b5f8051602061165b833981519152610e0861116b565b916044358560018060a01b03808416958688526020998a9560038752848a20338b5287525f19858b205403610e80576115c9565b610e45816115c9565b86885260028552828820610e5a85825461126d565b905516958681526002845220610e71828254611234565b90558551908152a35160018152f35b888a5260038752848a20338b528752848a20610e9d87825461126d565b90556115c9565b50503461024c578160031936011261024c576020906006549051908152f35b50503461024c578160031936011261024c576020906001549051908152f35b919050346102a85760203660031901126102a857338352600e60205260ff81842054161561029c575061062790356112ab565b8284346102d35760203660031901126102d357506102cc602092356114ed565b50503461024c578060031936011261024c5760209181610f53611185565b91602435918291338152600387528181209460018060a01b0316948582528752205582519081527f8c5be1e5ebec7d5bd14f71427d1e84f3dd0314c0f7b2291e5b200ac8c7c3b925843392a35160018152f35b50503461024c578160031936011261024c57805161067b91610fc78261119b565b600e82526d2622ab22a9102628102a37b5b2b760911b602083015251918291826111ed565b9050346102a857826003193601126102a85760209250549051908152f35b9092915034610639578160031936011261063957823561102861116b565b91811561115d57503385526020946002865281848220541061114d5761104d826114ed565b9461105c81546005549061126d565b861161113f57839061106d336115c9565b611077843361157d565b61108287825461126d565b8155855163a9059cbb60e01b81526001600160a01b03928316918101918252602082018890529192908890839081900360400181847f000000000000000000000000000000000000000000000000000000000000000088165af1908115610cda5750611122575083519185835286830152339216907ffbde797d201c681b91056529119e0b02407c7bb96a4a2c75c01fc9667232c8db843392a451908152f35b61113890873d8911610a4557610a3681836111cb565b505f610c83565b845163bb55fd2760e01b8152fd5b50505051631e9acf1760e31b8152fd5b631f2a200560e01b81528490fd5b602435906001600160a01b038216820361118157565b5f80fd5b600435906001600160a01b038216820361118157565b6040810190811067ffffffffffffffff8211176111b757604052565b634e487b7160e01b5f52604160045260245ffd5b90601f8019910116810190811067ffffffffffffffff8211176111b757604052565b602080825282518183018190529093925f5b82811061122057505060409293505f838284010152601f8019910116010190565b8181018601518482016040015285016111ff565b9190820180921161124157565b634e487b7160e01b5f52601160045260245ffd5b90816020910312611181575180151581036111815790565b9190820391821161124157565b8181029291811591840414171561124157565b8115611297570490565b634e487b7160e01b5f52601260045260245ffd5b80156113e7576040516323b872dd60e01b8152336004820152306024820152604481018290526020816064815f6001600160a01b037f0000000000000000000000000000000000000000000000000000000000000000165af180156113dc576113be575b506001548061135d575b5060408161134a7f49086fb5fbe3012e87f1afd31e52bfcb81e75a7804f59744a6eee012b59cd0a093600454611234565b60045560075482519182526020820152a1565b90670de0b6b3a7640000810290670de0b6b3a763ffff1981830401611241576113b46113ac7f49086fb5fbe3012e87f1afd31e52bfcb81e75a7804f59744a6eee012b59cd0a09460409461128d565b600754611234565b6007559150611319565b6113d59060203d8111610a4557610a3681836111cb565b505f61130f565b6040513d5f823e3d90fd5b50565b6113f3336115c9565b5f903382526009602052604082209182549283156114c25781905560405163a9059cbb60e01b81523360048201526024810184905290602082604481846001600160a01b037f0000000000000000000000000000000000000000000000000000000000000000165af19081156114b65750611498575b506040518281527f9493e5bbe4e8e0ac67284469a2d677403d0378a85a59e341d3abc433d0d9a20960203392a2565b6114af9060203d8111610a4557610a3681836111cb565b505f611469565b604051903d90823e3d90fd5b509150565b60015480156114e9576114dd906114e69261127a565b6004549061128d565b90565b5090565b60015480156114e9576115066114e6926004549061127a565b61128d565b600154801561153b5760045490670de0b6b3a764000091828102928184041490151715611241576114e69161128d565b50670de0b6b3a764000090565b60045480156115785760055490670de0b6b3a764000091828102928184041490151715611241576114e69161128d565b505f90565b905f8051602061165b83398151915260205f9360018060a01b03169283855260028252604085206115af82825461126d565b90556115bd8160015461126d565b600155604051908152a3565b60018060a01b031660405f82815260086020526115eb8282205460075461126d565b80151580611646575b611609575b5060075492815260086020522055565b611627670de0b6b3a76400009185845260026020528484205461127a565b04838252600960205261163e838320918254611234565b90555f6115f9565b5083825260026020528282205415156115f456feddf252ad1be2c89b69c2b068fc378daa952ba7f163c4a11628f55a4df523b3efa26469706673582212204e9eac3002063eec2640c5e5c3c5f26bdfb788eed6e15f1a3eac5dd2defb12df64736f6c63430008140033","linkReferences":{}},"methodIdentifiers":{"PRECISION()":"aaf5eb68","addFees(uint256)":"107e9cf1","allocate(uint256)":"90ca796b","allowance(address,address)":"dd62ed3e","approve(address,uint256)":"095ea7b3","asset()":"38d52e0f","authorizedAllocators(address)":"f7e8f003","availableLiquidity()":"74375359","balanceOf(address)":"70a08231","claimFees()":"d294f093","convertToAssets(uint256)":"07a2d13a","convertToShares(uint256)":"c6e6f592","cumulativeFeePerShare()":"752a536d","deallocate(uint256)":"6f6c441f","decimals()":"313ce567","deposit(uint256,address)":"6e553f65","maxPoolSize()":"c5579dc0","minDeposit()":"41b3d185","name()":"06fdde03","owner()":"8da5cb5b","pendingFees()":"224438d1","pendingFeesOf(address)":"769c62a2","previewDeposit(uint256)":"ef8b30f7","previewWithdraw(uint256)":"0a28a477","processWithdrawal(address)":"3c1a5012","recordLoss(uint256)":"6022743e","requestWithdrawal(uint256)":"9ee679e8","setAllocatorAuthorization(address,bool)":"975e006c","setMaxPoolSize(uint256)":"48a4565d","setMinDeposit(uint256)":"8fcc9cfb","setWithdrawalDelay(uint256)":"d2c13da5","sharePrice()":"87269729","symbol()":"95d89b41","totalAllocated()":"45f7f249","totalAssets()":"01e1d114","totalSupply()":"18160ddd","transfer(address,uint256)":"a9059cbb","transferFrom(address,address,uint256)":"23b872dd","transferOwnership(address)":"f2fde38b","unclaimedFees(address)":"dead8d39","userFeeCheckpoint(address)":"60e5dd27","utilization()":"ea21cd92","withdraw(uint256,address)":"00f714ce","withdrawalDelay()":"a7ab6961","withdrawalRequests(address)":"27b380f3"},"id":32}