{"abi":[{"type":"constructor","inputs":[],"stateMutability":"nonpayable"},{"type":"function","name":"BASIS_POINTS","inputs":[],"outputs":[{"name":"","type":"uint256","internalType":"uint256"}],"stateMutability":"view"},{"type":"function","name":"MAX_SOURCES","inputs":[],"outputs":[{"name":"","type":"uint256","internalType":"uint256"}],"stateMutability":"view"},{"type":"function","name":"PRECISION","inputs":[],"outputs":[{"name":"","type":"uint256","internalType":"uint256"}],"stateMutability":"view"},{"type":"function","name":"activateSource","inputs":[{"name":"marketId","type":"uint256","internalType":"uint256"},{"name":"sourceId","type":"uint256","internalType":"uint256"}],"outputs":[],"stateMutability":"nonpayable"},{"type":"function","name":"addSource","inputs":[{"name":"marketId","type":"uint256","internalType":"uint256"},{"name":"name","type":"string","internalType":"string"},{"name":"weight","type":"uint256","internalType":"uint256"},{"name":"maxStaleness","type":"uint256","internalType":"uint256"},{"name":"maxDeviation","type":"uint256","internalType":"uint256"}],"outputs":[{"name":"sourceId","type":"uint256","internalType":"uint256"}],"stateMutability":"nonpayable"},{"type":"function","name":"authorizedKeepers","inputs":[{"name":"","type":"address","internalType":"address"}],"outputs":[{"name":"","type":"bool","internalType":"bool"}],"stateMutability":"view"},{"type":"function","name":"calculateIndex","inputs":[{"name":"marketId","type":"uint256","internalType":"uint256"}],"outputs":[{"name":"","type":"uint256","internalType":"uint256"}],"stateMutability":"nonpayable"},{"type":"function","name":"configureIndex","inputs":[{"name":"marketId","type":"uint256","internalType":"uint256"},{"name":"minSources","type":"uint256","internalType":"uint256"},{"name":"outlierThreshold","type":"uint256","internalType":"uint256"},{"name":"updateCooldown","type":"uint256","internalType":"uint256"}],"outputs":[],"stateMutability":"nonpayable"},{"type":"function","name":"deactivateSource","inputs":[{"name":"marketId","type":"uint256","internalType":"uint256"},{"name":"sourceId","type":"uint256","internalType":"uint256"}],"outputs":[],"stateMutability":"nonpayable"},{"type":"function","name":"getIndexPrice","inputs":[{"name":"marketId","type":"uint256","internalType":"uint256"}],"outputs":[{"name":"","type":"uint256","internalType":"uint256"}],"stateMutability":"view"},{"type":"function","name":"getSources","inputs":[{"name":"marketId","type":"uint256","internalType":"uint256"}],"outputs":[{"name":"names","type":"string[]","internalType":"string[]"},{"name":"weights","type":"uint256[]","internalType":"uint256[]"},{"name":"prices","type":"uint256[]","internalType":"uint256[]"},{"name":"timestamps","type":"uint256[]","internalType":"uint256[]"},{"name":"isStale","type":"bool[]","internalType":"bool[]"}],"stateMutability":"view"},{"type":"function","name":"indexConfigs","inputs":[{"name":"","type":"uint256","internalType":"uint256"}],"outputs":[{"name":"minSources","type":"uint256","internalType":"uint256"},{"name":"outlierThreshold","type":"uint256","internalType":"uint256"},{"name":"updateCooldown","type":"uint256","internalType":"uint256"}],"stateMutability":"view"},{"type":"function","name":"indexPrice","inputs":[{"name":"","type":"uint256","internalType":"uint256"}],"outputs":[{"name":"","type":"uint256","internalType":"uint256"}],"stateMutability":"view"},{"type":"function","name":"isSourceStale","inputs":[{"name":"marketId","type":"uint256","internalType":"uint256"},{"name":"sourceId","type":"uint256","internalType":"uint256"}],"outputs":[{"name":"","type":"bool","internalType":"bool"}],"stateMutability":"view"},{"type":"function","name":"lastIndexUpdate","inputs":[{"name":"","type":"uint256","internalType":"uint256"}],"outputs":[{"name":"","type":"uint256","internalType":"uint256"}],"stateMutability":"view"},{"type":"function","name":"owner","inputs":[],"outputs":[{"name":"","type":"address","internalType":"address"}],"stateMutability":"view"},{"type":"function","name":"previewIndex","inputs":[{"name":"marketId","type":"uint256","internalType":"uint256"}],"outputs":[{"name":"calculatedIndex","type":"uint256","internalType":"uint256"},{"name":"sourcesUsed","type":"uint256","internalType":"uint256"},{"name":"usedSourceIds","type":"uint256[]","internalType":"uint256[]"},{"name":"usedPrices","type":"uint256[]","internalType":"uint256[]"}],"stateMutability":"view"},{"type":"function","name":"setKeeperAuthorization","inputs":[{"name":"keeper","type":"address","internalType":"address"},{"name":"authorized","type":"bool","internalType":"bool"}],"outputs":[],"stateMutability":"nonpayable"},{"type":"function","name":"sourceCount","inputs":[{"name":"","type":"uint256","internalType":"uint256"}],"outputs":[{"name":"","type":"uint256","internalType":"uint256"}],"stateMutability":"view"},{"type":"function","name":"sources","inputs":[{"name":"","type":"uint256","internalType":"uint256"},{"name":"","type":"uint256","internalType":"uint256"}],"outputs":[{"name":"name","type":"string","internalType":"string"},{"name":"weight","type":"uint256","internalType":"uint256"},{"name":"maxStaleness","type":"uint256","internalType":"uint256"},{"name":"maxDeviation","type":"uint256","internalType":"uint256"},{"name":"active","type":"bool","internalType":"bool"},{"name":"lastPrice","type":"uint256","internalType":"uint256"},{"name":"lastUpdate","type":"uint256","internalType":"uint256"}],"stateMutability":"view"},{"type":"function","name":"submitPrice","inputs":[{"name":"marketId","type":"uint256","internalType":"uint256"},{"name":"sourceId","type":"uint256","internalType":"uint256"},{"name":"price","type":"uint256","internalType":"uint256"}],"outputs":[],"stateMutability":"nonpayable"},{"type":"function","name":"submitPricesBatch","inputs":[{"name":"marketId","type":"uint256","internalType":"uint256"},{"name":"sourceIds","type":"uint256[]","internalType":"uint256[]"},{"name":"prices","type":"uint256[]","internalType":"uint256[]"}],"outputs":[],"stateMutability":"nonpayable"},{"type":"function","name":"updateSourceConfig","inputs":[{"name":"marketId","type":"uint256","internalType":"uint256"},{"name":"sourceId","type":"uint256","internalType":"uint256"},{"name":"weight","type":"uint256","internalType":"uint256"},{"name":"maxStaleness","type":"uint256","internalType":"uint256"},{"name":"maxDeviation","type":"uint256","internalType":"uint256"}],"outputs":[],"stateMutability":"nonpayable"},{"type":"event","name":"IndexCalculated","inputs":[{"name":"marketId","type":"uint256","indexed":true,"internalType":"uint256"},{"name":"indexPrice","type":"uint256","indexed":false,"internalType":"uint256"},{"name":"sourcesUsed","type":"uint256","indexed":false,"internalType":"uint256"}],"anonymous":false},{"type":"event","name":"KeeperAuthorized","inputs":[{"name":"keeper","type":"address","indexed":false,"internalType":"address"},{"name":"authorized","type":"bool","indexed":false,"internalType":"bool"}],"anonymous":false},{"type":"event","name":"SourceAdded","inputs":[{"name":"marketId","type":"uint256","indexed":true,"internalType":"uint256"},{"name":"sourceId","type":"uint256","indexed":false,"internalType":"uint256"},{"name":"name","type":"string","indexed":false,"internalType":"string"},{"name":"weight","type":"uint256","indexed":false,"internalType":"uint256"}],"anonymous":false},{"type":"event","name":"SourceDeactivated","inputs":[{"name":"marketId","type":"uint256","indexed":true,"internalType":"uint256"},{"name":"sourceId","type":"uint256","indexed":false,"internalType":"uint256"}],"anonymous":false},{"type":"event","name":"SourceUpdated","inputs":[{"name":"marketId","type":"uint256","indexed":true,"internalType":"uint256"},{"name":"sourceId","type":"uint256","indexed":false,"internalType":"uint256"},{"name":"price","type":"uint256","indexed":false,"internalType":"uint256"},{"name":"timestamp","type":"uint256","indexed":false,"internalType":"uint256"}],"anonymous":false},{"type":"error","name":"InsufficientSources","inputs":[]},{"type":"error","name":"InvalidSource","inputs":[]},{"type":"error","name":"PriceOutOfRange","inputs":[]},{"type":"error","name":"SourceStale","inputs":[]},{"type":"error","name":"TooManySources","inputs":[]},{"type":"error","name":"Unauthorized","inputs":[]},{"type":"error","name":"UpdateTooFrequent","inputs":[]}],"bytecode":{"object":"0x6080806040523461003f575f80546001600160a01b0319163390811782558152600660205260409020805460ff191660011790556115e590816100448239f35b5f80fdfe6080806040526004361015610012575f80fd5b5f3560e01c90816311f3a2fb14610dd7575080631208064714610cf95780631e6c559d14610d8e5780631f9cb77214610d235780631fb4ef6714610cf95780632ce52d3114610ccf578063388ab84d14610aa4578063579e33dc1461099a578063599d4b8b1461066457806364aefc06146106495780636cac2f2d146105ba5780638da5cb5b146105935780639946c5f31461056957806399f457c814610531578063a2ace035146104a4578063a58a8f78146103e4578063aaf5eb68146103c2578063bf7cfbe114610377578063c4408d331461026d578063c56f264d14610230578063d8ed214b146101d8578063e1f1c4a7146101bc5763eee81ff914610119575f80fd5b346101b85760403660031901126101b857610132611133565b602435801515908181036101b8575f546001600160a01b039290831633036101a75761019a6040937fd370523e7a29cc54b0e1e6b66ffeb47a2c0d6e37b090e2da19993c7282da39ac951692835f526006602052845f209060ff801983541691151516179055565b82519182526020820152a1005b6040516282b42960e81b8152600490fd5b5f80fd5b346101b8575f3660031901126101b85760206040516127108152f35b346101b85760a03660031901126101b8575f546001600160a01b031633036101a7576004355f52600160205260405f206024355f5260205260405f206044356001820155606435600282015560036084359101555f80f35b346101b85760203660031901126101b8576001600160a01b03610251611133565b165f526006602052602060ff60405f2054166040519015158152f35b346101b8576020806003193601126101b857600435805f526002825260405f205490610298826111b4565b906102a2836111b4565b6102ab8261125d565b9590925f935f5b8781108061036e575b1561033557825f526001845260405f20815f52845260405f206102dd816111fa565b1580610328575b6102f8575b506102f390611149565b6102b2565b866005610321928461030e6102f3969b8d6111e6565b52015461031b82896111e6565b52611149565b95906102e9565b50600581015415156102e4565b838261036a8761035c8b8e6040519687968752860152608060408601526080850190611005565b908382036060850152611005565b0390f35b508886106102bb565b346101b85760203660031901126101b8576004355f52600360205260405f20805461036a60026001840154930154604051938493846040919493926060820195825260208201520152565b346101b8575f3660031901126101b8576020604051670de0b6b3a76400008152f35b346101b8576020806003193601126101b857600435805f526003825260405f20906005835261041c60405f205460028401549061118f565b42106104925761042b8161125d565b90925481106104805760407f9e492ae22d72969edc1993a6c22de3da4eeb956c6536b922b5720fcc4426382f91835f526004865284825f20556005865242825f205581519085825286820152a2604051908152f35b6040516308c73f7d60e31b8152600490fd5b6040516329fbd37760e11b8152600490fd5b346101b85760803660031901126101b8575f546001600160a01b031633036101a7576040516060810181811067ffffffffffffffff82111761051d5760405260243581526002602082016044358152604083019060643582526004355f52600360205260405f2093518455516001840155519101555f80f35b634e487b7160e01b5f52604160045260245ffd5b346101b85761053f36610fb1565b905f52600160205260405f20905f52602052602061055f60405f206111fa565b6040519015158152f35b346101b85760203660031901126101b8576004355f526002602052602060405f2054604051908152f35b346101b8575f3660031901126101b8575f546040516001600160a01b039091168152602090f35b346101b8576105c836610fb1565b905f52600160205260405f20905f5260205261062460405f206105ea81611092565b90600181015490600281015490600381015460ff60048301541690600660058401549301549360405197889760e0895260e0890190610fc7565b956020880152604087015260608601521515608085015260a084015260c08301520390f35b346101b8575f3660031901126101b8576020604051600a8152f35b346101b85760a03660031901126101b85767ffffffffffffffff602435116101b8573660236024350112156101b85767ffffffffffffffff60243560040135116101b85736602480356004013581350101116101b8575f546001600160a01b031633036101a7576004355f526002602052600a60405f20541015610988576004355f52600260205260405f208054906106fc82611149565b9055604051908160e081011067ffffffffffffffff60e08401111761051d5760e0820160405261073f6020601f19601f6024356004013501160160e08401611070565b60248035600481013560e085018190525f92610100920182860137602435600401358401015260e082018252604435602083015260643560408301526084356060830152600160808301525f60a08301525f60c08301526004355f52600160205260405f20815f5260205260405f20825192835167ffffffffffffffff811161051d576107cc8354611038565b94601f8611610947575b602095508590601f83116001146108de5791806006949260c0945f926108d3575b50508160011b915f199060031b1c19161784555b858101516001850155604081015160028501556060810151600385015561084760808201511515600486019060ff801983541691151516179055565b60a08101516005850155015191015560405181815260608382018190526024803560048101359284018390520160808301375f6080602435600401358301015260443560408201527fb355f8b4d92fb61e5d74759bab1d31a222627a8111b43f9cdab5327c9f9cc33560043591608081601f19601f6024356004013501168101030190a2604051908152f35b0151905088806107f7565b90845f52865f20915f5b601f19851681106109305750926006949260019260c09583601f19811610610918575b505050811b01845561080b565b01515f1960f88460031b161c1916905588808061090b565b9192886001819286850151815501940192016108e8565b835f5260205f20601f830160051c810160208410610981575b601f880160051c820181106109765750506107d6565b5f8155600101610960565b5080610960565b60405163d1dd60d560e01b8152600490fd5b346101b85760603660031901126101b85760043560243560443590335f52600660205260ff60405f2054161580610a90575b6101a757825f52600260205260405f2054811015610a6c57670de0b6b3a76400008211610a7e57825f52600160205260405f20815f5260205260405f209160ff60048401541615610a6c57828160057f3888f7c12b38574cdb1ed05c9b8f323695a1b7efa8b426b0ef6887176180cbce950155600642910155610a676040519283924291846040919493926060820195825260208201520152565b0390a2005b604051638154374b60e01b8152600490fd5b604051630df22a0f60e21b8152600490fd5b505f546001600160a01b03163314156109cc565b346101b8576020806003193601126101b857600435805f526002825260405f205490610acf8261119c565b92610add6040519485611070565b828452601f199182610aee8561119c565b015f5b818110610cc0575050610b03846111b4565b93610b0d816111b4565b610b16826111b4565b91610b208161119c565b93610b2e6040519586611070565b818552610b3a8261119c565b85870197013688375f5b828110610c295750505060405196879660a0880160a08952825180915260c08901908760c08260051b8c01019401915f905b828210610bf25750505050610bb792610b9b83610ba9938b8a989603888d0152611005565b9089820360408b0152611005565b908782036060890152611005565b91858303608087015251918281520192915f5b828110610bd957505050500390f35b8351151585528695509381019392810192600101610bca565b91939489610c14819260019496999a9b9d9e60bf199082030186528951610fc7565b9701920192018b9a9997969594939192610b76565b610cb490825f9b959697999a9b52610ca06001808a5260405f20835f528a528c610c7a8460405f2093610c5b85611092565b610c65838d6111e6565b52610c70828c6111e6565b50840154926111e6565b526005810154610c8a848a6111e6565b526006810154610c9a848b6111e6565b526111fa565b610caa828b6111e6565b9015159052611149565b98979694939298610b44565b60608782018501528301610af1565b346101b85760203660031901126101b8576004355f526005602052602060405f2054604051908152f35b346101b85760203660031901126101b8576004355f526004602052602060405f2054604051908152f35b346101b857610d3136610fb1565b5f546001600160a01b031633036101a75760207f121acba55ae8f1118b63b07845fb47d0c477ec7796cfa386062964653925203f91835f526001825260405f20815f528252600460405f200160ff198154169055604051908152a2005b346101b857610d9c36610fb1565b5f549091906001600160a01b031633036101a7575f52600160205260405f20905f52602052600460405f2001600160ff198254161790555f80f35b346101b85760603660031901126101b85767ffffffffffffffff6004356024358281116101b857610e0c903690600401610f80565b9390926044359081116101b857610e27903690600401610f80565b94335f5260069260209184835260ff918260405f2054161580610f6c575b610f5e5750878103610f27575f5b818110610e5c57005b8087610e6c610f1193858c61116b565b35610e78838d8a61116b565b3590825f526002885260405f2054811015610f1f57670de0b6b3a76400008211610f1f576001885260405f20815f52885260405f20918760048401541615610f1657828160057f3888f7c12b38574cdb1ed05c9b8f323695a1b7efa8b426b0ef6887176180cbce9501558b42910155610f096040519283924291846040919493926060820195825260208201520152565b0390a2611149565b610e53565b50505050611149565b505050611149565b60405162461bcd60e51b815260048101849052600f60248201526e098cadccee8d040dad2e6dac2e8c6d608b1b6044820152606490fd5b6282b42960e81b8152600490fd5b505f546001600160a01b0316331415610e45565b9181601f840112156101b85782359167ffffffffffffffff83116101b8576020808501948460051b0101116101b857565b60409060031901126101b8576004359060243590565b91908251928382525f5b848110610ff1575050825f602080949584010152601f8019910116010190565b602081830181015184830182015201610fd1565b9081518082526020808093019301915f5b828110611024575050505090565b835185529381019392810192600101611016565b90600182811c92168015611066575b602083101461105257565b634e487b7160e01b5f52602260045260245ffd5b91607f1691611047565b90601f8019910116810190811067ffffffffffffffff82111761051d57604052565b9060405191825f8254926110a584611038565b9081845260019485811690815f1461111057506001146110d0575b50506110ce92500383611070565b565b909391505f52602090815f20935f915b8183106110f85750506110ce93508201015f806110c0565b855488840185015294850194879450918301916110e0565b9150506110ce94506020925060ff191682840152151560051b8201015f806110c0565b600435906001600160a01b03821682036101b857565b5f1981146111575760010190565b634e487b7160e01b5f52601160045260245ffd5b919081101561117b5760051b0190565b634e487b7160e01b5f52603260045260245ffd5b9190820180921161115757565b67ffffffffffffffff811161051d5760051b60200190565b906111be8261119c565b6111cb6040519182611070565b82815280926111dc601f199161119c565b0190602036910137565b805182101561117b5760209160051b010190565b60ff6004820154161561122c57600681015480156112255760026112209201549061118f565b421190565b5050600190565b50600190565b9190820391821161115757565b8115611249570490565b634e487b7160e01b5f52601260045260245ffd5b905f80928084526020600281526040908186205492831561145c57611281846111b4565b9261128b856111b4565b928895895b8181106113e957505085156113de576003906112af8787989698611465565b938a52528720938794889460018a920154915b8581106112eb5750505050505081156112e4576112e19293945061123f565b91565b5050508190565b6112f581836111e6565b5161130082866111e6565b5190868111156113b0576113148782611232565b6127109081810291818304149015171561139c5761133388879261123f565b111561134a575b505061134590611149565b6112c2565b90919998978282029180830484149015171561138857611345926113746113809361137a9361118f565b9961118f565b98611149565b98905f61133a565b634e487b7160e01b8d52601160045260248dfd5b634e487b7160e01b8e52601160045260248efd5b6113ba8188611232565b6127109081810291818304149015171561139c576113d988879261123f565b611333565b505050505050508190565b848b526001808452848c20828d528452848c20611405816111fa565b158061144f575b611421575b505061141c90611149565b611290565b98611447918a600561141c959c015461143a848d6111e6565b52015461031b828a6111e6565b97905f611411565b506005810154151561140c565b50505050508190565b81156115a957600191828114611598575f835b6114c6575b508083166114b757821c905f198201828111611157576114b2926114a46114ab92846111e6565b51926111e6565b519061118f565b901c90565b6114c2921c906111e6565b5190565b5f198281019083821161115757859183101561159157908092915f915b6114f9575b50506114f390611149565b90611478565b909192506115078385611232565b81810190811161115757869083101561158a575061152582866111e6565b5186830192838111611157578361154e926115418a968a6111e6565b5110611557575b50611149565b908293926114e3565b61156181896111e6565b5190611578611570848b6111e6565b51918a6111e6565b5261158382896111e6565b525f611548565b92916114e8565b505061147d565b50809150511561117b576020015190565b50505f9056fea2646970667358221220383539e67657f39b0d92f1843fcc54025f8746a7f3d9dc78e366950e0811d6be64736f6c63430008140033","linkReferences":{}},"methodIdentifiers":{"BASIS_POINTS()":"e1f1c4a7","MAX_SOURCES()":"64aefc06","PRECISION()":"aaf5eb68","activateSource(uint256,uint256)":"1e6c559d","addSource(uint256,string,uint256,uint256,uint256)":"599d4b8b","authorizedKeepers(address)":"c56f264d","calculateIndex(uint256)":"a58a8f78","configureIndex(uint256,uint256,uint256,uint256)":"a2ace035","deactivateSource(uint256,uint256)":"1f9cb772","getIndexPrice(uint256)":"12080647","getSources(uint256)":"388ab84d","indexConfigs(uint256)":"bf7cfbe1","indexPrice(uint256)":"1fb4ef67","isSourceStale(uint256,uint256)":"99f457c8","lastIndexUpdate(uint256)":"2ce52d31","owner()":"8da5cb5b","previewIndex(uint256)":"c4408d33","setKeeperAuthorization(address,bool)":"eee81ff9","sourceCount(uint256)":"9946c5f3","sources(uint256,uint256)":"6cac2f2d","submitPrice(uint256,uint256,uint256)":"579e33dc","submitPricesBatch(uint256,uint256[],uint256[])":"11f3a2fb","updateSourceConfig(uint256,uint256,uint256,uint256,uint256)":"d8ed214b"},"id":24}