{"abi":[{"type":"constructor","inputs":[{"name":"_ledger","type":"address","internalType":"address"},{"name":"_priceEngine","type":"address","internalType":"address"},{"name":"_riskEngine","type":"address","internalType":"address"},{"name":"_collateralToken","type":"address","internalType":"address"}],"stateMutability":"nonpayable"},{"type":"function","name":"PRECISION","inputs":[],"outputs":[{"name":"","type":"uint256","internalType":"uint256"}],"stateMutability":"view"},{"type":"function","name":"closePosition","inputs":[{"name":"marketId","type":"uint256","internalType":"uint256"},{"name":"sizeDelta","type":"int256","internalType":"int256"},{"name":"minPrice","type":"uint256","internalType":"uint256"},{"name":"maxPrice","type":"uint256","internalType":"uint256"}],"outputs":[],"stateMutability":"nonpayable"},{"type":"function","name":"collateralToken","inputs":[],"outputs":[{"name":"","type":"address","internalType":"contract IERC20"}],"stateMutability":"view"},{"type":"function","name":"depositCollateral","inputs":[{"name":"marketId","type":"uint256","internalType":"uint256"},{"name":"amount","type":"uint256","internalType":"uint256"}],"outputs":[],"stateMutability":"nonpayable"},{"type":"function","name":"getPositionWithPnL","inputs":[{"name":"trader","type":"address","internalType":"address"},{"name":"marketId","type":"uint256","internalType":"uint256"}],"outputs":[{"name":"position","type":"tuple","internalType":"struct IPositionLedger.Position","components":[{"name":"marketId","type":"uint256","internalType":"uint256"},{"name":"size","type":"int256","internalType":"int256"},{"name":"entryPrice","type":"uint256","internalType":"uint256"},{"name":"collateral","type":"uint256","internalType":"uint256"},{"name":"openTimestamp","type":"uint256","internalType":"uint256"},{"name":"lastFundingIndex","type":"uint256","internalType":"uint256"},{"name":"lastBorrowIndex","type":"uint256","internalType":"uint256"}]},{"name":"unrealizedPnL","type":"int256","internalType":"int256"},{"name":"currentPrice","type":"uint256","internalType":"uint256"},{"name":"isLiquidatable","type":"bool","internalType":"bool"}],"stateMutability":"view"},{"type":"function","name":"ledger","inputs":[],"outputs":[{"name":"","type":"address","internalType":"contract IPositionLedger"}],"stateMutability":"view"},{"type":"function","name":"openPosition","inputs":[{"name":"marketId","type":"uint256","internalType":"uint256"},{"name":"sizeDelta","type":"int256","internalType":"int256"},{"name":"collateralAmount","type":"uint256","internalType":"uint256"},{"name":"maxPrice","type":"uint256","internalType":"uint256"},{"name":"minPrice","type":"uint256","internalType":"uint256"}],"outputs":[],"stateMutability":"nonpayable"},{"type":"function","name":"owner","inputs":[],"outputs":[{"name":"","type":"address","internalType":"address"}],"stateMutability":"view"},{"type":"function","name":"previewTrade","inputs":[{"name":"marketId","type":"uint256","internalType":"uint256"},{"name":"sizeDelta","type":"int256","internalType":"int256"},{"name":"collateral","type":"uint256","internalType":"uint256"}],"outputs":[{"name":"executionPrice","type":"uint256","internalType":"uint256"},{"name":"requiredMargin","type":"uint256","internalType":"uint256"},{"name":"maxLeverage","type":"uint256","internalType":"uint256"},{"name":"marginOk","type":"bool","internalType":"bool"}],"stateMutability":"view"},{"type":"function","name":"priceEngine","inputs":[],"outputs":[{"name":"","type":"address","internalType":"contract IPriceEngine"}],"stateMutability":"view"},{"type":"function","name":"riskEngine","inputs":[],"outputs":[{"name":"","type":"address","internalType":"contract IRiskEngine"}],"stateMutability":"view"},{"type":"function","name":"setEngines","inputs":[{"name":"_ledger","type":"address","internalType":"address"},{"name":"_priceEngine","type":"address","internalType":"address"},{"name":"_riskEngine","type":"address","internalType":"address"}],"outputs":[],"stateMutability":"nonpayable"},{"type":"function","name":"transferOwnership","inputs":[{"name":"newOwner","type":"address","internalType":"address"}],"outputs":[],"stateMutability":"nonpayable"},{"type":"function","name":"withdrawCollateral","inputs":[{"name":"marketId","type":"uint256","internalType":"uint256"},{"name":"amount","type":"uint256","internalType":"uint256"}],"outputs":[],"stateMutability":"nonpayable"},{"type":"event","name":"CollateralDeposited","inputs":[{"name":"trader","type":"address","indexed":true,"internalType":"address"},{"name":"marketId","type":"uint256","indexed":true,"internalType":"uint256"},{"name":"amount","type":"uint256","indexed":false,"internalType":"uint256"}],"anonymous":false},{"type":"event","name":"CollateralWithdrawn","inputs":[{"name":"trader","type":"address","indexed":true,"internalType":"address"},{"name":"marketId","type":"uint256","indexed":true,"internalType":"uint256"},{"name":"amount","type":"uint256","indexed":false,"internalType":"uint256"}],"anonymous":false},{"type":"event","name":"PositionClosed","inputs":[{"name":"trader","type":"address","indexed":true,"internalType":"address"},{"name":"marketId","type":"uint256","indexed":true,"internalType":"uint256"},{"name":"size","type":"int256","indexed":false,"internalType":"int256"},{"name":"executionPrice","type":"uint256","indexed":false,"internalType":"uint256"},{"name":"realizedPnL","type":"int256","indexed":false,"internalType":"int256"}],"anonymous":false},{"type":"event","name":"PositionOpened","inputs":[{"name":"trader","type":"address","indexed":true,"internalType":"address"},{"name":"marketId","type":"uint256","indexed":true,"internalType":"uint256"},{"name":"size","type":"int256","indexed":false,"internalType":"int256"},{"name":"executionPrice","type":"uint256","indexed":false,"internalType":"uint256"},{"name":"collateral","type":"uint256","indexed":false,"internalType":"uint256"},{"name":"fee","type":"uint256","indexed":false,"internalType":"uint256"}],"anonymous":false},{"type":"error","name":"InsufficientMargin","inputs":[]},{"type":"error","name":"InvalidSize","inputs":[]},{"type":"error","name":"ReentrantCall","inputs":[]},{"type":"error","name":"StalePrice","inputs":[]},{"type":"error","name":"TransferFailed","inputs":[]},{"type":"error","name":"Unauthorized","inputs":[]}],"bytecode":{"object":"0x608034620000d357601f620018a238819003918201601f19168301916001600160401b03831184841017620000d757808492608094604052833981010312620000d3576200004d81620000eb565b6200005b60208301620000eb565b906200007860606200007060408601620000eb565b9401620000eb565b9060018060a01b03199333855f5416175f5560018060a01b0380948180941687600154161760015516856002541617600255168360035416176003551690600454161760045560016005556040516117a19081620001018239f35b5f80fd5b634e487b7160e01b5f52604160045260245ffd5b51906001600160a01b0382168203620000d35756fe60806040818152600480361015610014575f80fd5b5f9260e08435811c9182630cd57818146113eb5750816356397c35146113c1578163623309b714610ef55781636971c96714610e47578163767a7b0514610b265781638313e05414610afc5781638da5cb5b14610ad357816392b888ae14610aa9578163aaf5eb6814610a81578163b2016bd414610a59578163db48fa3614610760578163de366d11146102a657508063ece13732146101135763f2fde38b146100bc575f80fd5b3461010f57602036600319011261010f576100d5611633565b83546001600160a01b03939192919084163303610103575050166001600160601b0360a01b5f5416175f5580f35b516282b42960e81b8152fd5b8280fd5b50903461010f5761012336611649565b919092600260055414610298576002600555821561028a57805482516323b872dd60e01b81523381840190815230602082810191909152604082018790526001600160a01b03939091839185169082908b90829060600103925af1908115610280578791610243575b50156102345790859160015416803b1561010f578351636a4e5a1d60e11b8152339281019283526020830187905260408301869052918391839182908490829060600103925af1801561022a57610212575b5050519081527ff4d587c98d234ca4d147061e6b5167e7f41ee17f11562a9f0b49570abece859e60203392a3600160055580f35b61021b9061165f565b61022657835f6101de565b8380fd5b83513d84823e3d90fd5b5090516312171d8360e31b8152fd5b90506020813d8211610278575b8161025d602093836116a3565b810103126102745761026e906116c5565b5f61018c565b8680fd5b3d9150610250565b84513d89823e3d90fd5b9051630ffd11ad60e01b8152fd5b90516306fda65d60e31b8152fd5b919050346102265760a03660031901126102265780359260249182359360443593600260055414610750576002600555851561074057600254845163cc30bb0560e01b8152808501899052603c838201526001600160a01b039182169460209490929185816044818a5afa9081156105f5578c9161070b575b506106fb57848a604489518099819363a0e3605760e01b8352888301528d898301525afa95861561059e578b966106c8575b508a8913806106bd575b6106a2578a8912806106b2575b6106a257876105ff575b6001548751633adbb5af60e01b815233858201908152602081018d90529091839183918616908290819060400103915afa9182156105f5578c926105c8575b50506060810151908882018092116105b657858c959493926103d78c838b95015161172c565b8781126105a8575b806104ed575b505050508060035416803b156104e957848091858d8b519485938492630e0dc17560e41b8452898401525af180156104df579085916104cb575b50506001541691823b156102265760a48492838c958a51968795869463d52019e360e01b865233908601528401528c60448401528960648401528b60848401525af180156104c1576104ad575b505082519485528401528201528260608201527f382baede3e50dbafb05c08ffdcde2d7ed04fd153cbd8f6c79788b3a9901566bb60803392a3600160055580f35b6104b69061165f565b61027457865f61046c565b85513d84823e3d90fd5b6104d49061165f565b61022657835f61041f565b88513d87823e3d90fd5b8480fd5b90919293809596975060035416908d6105318c5196879586948594630c86db9560e31b86528c86019094939260609260808301968352602083015260408201520152565b03915afa90811561059e578b91610565575b5015610556579089929185855f806103e5565b5084516341c092a960e01b8152fd5b90508481813d8311610597575b61057c81836116a3565b810103126105935761058d906116c5565b5f610543565b8a80fd5b503d610572565b87513d8d823e3d90fd5b6105b19061175b565b6103df565b634e487b7160e01b8c5260118452848cfd5b6105e79250803d106105ee575b6105df81836116a3565b8101906116d2565b5f806103b1565b503d6105d5565b88513d8e823e3d90fd5b8a85610642848654168b8b519485809481936323b872dd60e01b835230338d850160409194939294606082019560018060a01b0380921683521660208201520152565b03925af19081156105f5578c91610669575b506103725786516312171d8360e31b81528390fd5b90508581813d831161069b575b61068081836116a3565b8101031261069757610691906116c5565b5f610654565b8b80fd5b503d610676565b86516341c092a960e01b81528390fd5b506084358610610368565b50606435861161035b565b9095508481813d83116106f4575b6106e081836116a3565b810103126106f05751945f610351565b5f80fd5b503d6106d6565b8651630cd5fa0760e11b81528390fd5b90508581813d8311610739575b61072281836116a3565b8101031261069757610733906116c5565b5f61031f565b503d610718565b8351630ffd11ad60e01b81528390fd5b83516306fda65d60e31b81528390fd5b92905034610226578060031936011261022657926107fa9293610781611633565b9460243591805161079181611687565b8481528460c0602092828482015282858201528260608201528260808201528260a0820152015284938560018060a01b039182600154169886828d88519d8e928392633adbb5af60e01b845286840160209093929193604081019460018060a01b031681520152565b03818d5afa9a8b15610a4f57839b610a2b575b50602498999a9b85856002541688519b8c8092635af3d06160e01b825287878301525afa998a15610a2157849a6109f2575b50858d019b8c516108a5575b50505050505096816101409860c093519883518a5251908901528082015190880152606081015160608801526080810151608088015260a081015160a0880152015160c08601528401526101008301521515610120820152f35b87516302986a7560e41b81526001600160a01b03831681850190815260208101869052604081018d9052979c5095995093959294919390928b9183918290819060600103915afa9081156109e857918693918a959387916109b4575b506003548551633aa8cf8560e21b81526001600160a01b03909316938301938452602084019490945260408301959095529397849216908290819060600103915afa9182156109a9578092610964575b50909590508161014060c05f808061084b565b9091508282813d83116109a2575b61097c81836116a3565b8101031261099f57509660c091610995610140996116c5565b9198819350610951565b80fd5b503d610972565b8351903d90823e3d90fd5b94505093508983813d83116109e1575b6109ce81836116a3565b810103126106f05788938693515f610901565b503d6109c4565b86513d87823e3d90fd5b9099508581813d8311610a1a575b610a0a81836116a3565b810103126106f05751985f61083f565b503d610a00565b87513d86823e3d90fd5b6024999a9b50610a4790883d8a116105ee576105df81836116a3565b9a999861080d565b86513d85823e3d90fd5b50503461010f578260031936011261010f575490516001600160a01b03909116815260209150f35b50505034610aa55781600319360112610aa55760209051670de0b6b3a76400008152f35b5080fd5b50505034610aa55781600319360112610aa55760035490516001600160a01b039091168152602090f35b50505034610aa55781600319360112610aa557905490516001600160a01b039091168152602090f35b50505034610aa55781600319360112610aa55760025490516001600160a01b039091168152602090f35b849391503461022657610b3836611649565b929093600260055414610298576002600555831561028a576001548251633adbb5af60e01b815233838201908152602081018890526001600160a01b03928992908416918790829081906040010381855afa968715610a4f578397610e28575b5050602095868101908151610cd4575b5050610bb38761175b565b90803b1561010f578551636a4e5a1d60e11b815233868201908152602081018b90526040810193909352918391839182908490829060600103925af180156104c157610cc0575b50508154835163a9059cbb60e01b815233818501908152602081018890529092869284928390036040019183918c91165af1908115610cb6578791610c81575b5015610c735750907fdaed309a628faec6cab72194019e2a1a34e890ca9bf9be99788992dd5469281991519283523392a3600160055580f35b90516312171d8360e31b8152fd5b90508381813d8311610caf575b610c9881836116a3565b8101031261027457610ca9906116c5565b87610c3a565b503d610c8e565b83513d89823e3d90fd5b610cc99061165f565b610274578688610bfa565b6060919293500151878103908111610e1557836002541691878a6024895180968193635af3d06160e01b83528b8301525afa92831561059e57908892918c94610de4575b5080518c8112610dd55750515b8560035416908b610d618a5196879586948594630c86db9560e31b86528d86019094939260609260808301968352602083015260408201520152565b03915afa908115610dcb578991610d92575b5015610d825787908980610ba8565b83516341c092a960e01b81528390fd5b90508581813d8311610dc4575b610da981836116a3565b81010312610dc057610dba906116c5565b89610d73565b8880fd5b503d610d9f565b85513d8b823e3d90fd5b610ddf915061175b565b610d25565b8381949295503d8311610e0e575b610dfc81836116a3565b810103126106f057879151928c610d18565b503d610df2565b634e487b7160e01b8a526011855260248afd5b610e3f929750803d106105ee576105df81836116a3565b948980610b98565b50503461010f57606036600319011261010f57610e62611633565b6024356001600160a01b03818116939092918490036106f057604435948386168096036106f0578387541633036101035750501680610edc575b5080610ec3575b5080610ead575080f35b6001600160601b0360a01b600354161760035580f35b6001600160601b0360a01b60025416176002555f610ea3565b6001600160601b0360a01b60015416176001555f610e9c565b848484923461010f57608036600319011261010f57833591602435916002600554146113b15760026005556001548251633adbb5af60e01b80825233828a01908152602081018890526001600160a01b039384169991949391929084908290819060400103818d5afa9081156113a757899161138a575b506020938482019586511561137a57836002541696885163cc30bb0560e01b81528b87820152603c602482015287816044818c5afa908115611370578d91611337575b5061132757868a60448d8c519b8c93849263a0e3605760e01b84528c84015260248301525afa97881561131d578c986112ee575b508b815113806112e3575b6112d3578b905112806112c8575b6112b85787516302986a7560e41b815233868201908152602081018c9052604081018990529b9c9a9b999a909987918b918290819060600103915afa9889156105f5578c99611289575b508b8460035416803b15610aa557819060248e8c519485938492630e0dc17560e41b84528c8401525af1801561127f57611266575b50908392918c9460015416803b1561126257858d60a4898f9484908f8f9051978896879563d52019e360e01b875233908701526024860152604485015260648401528160848401525af18015611258578684928f9261123e575b50506001548b51938452338985019081526020810192909252839182900360400190829088165afa91821561123457879493928b9286928892611217575b50500151158061120a575b611162575b50505050505082519485528401528201527fef57cfe941e18e7c3ca4c3140496c9fff61fba7c7e287dc070a6edc239864a0760603392a3600160055580f35b606061116f92015161172c565b83811361117d575b88611123565b8454885163a9059cbb60e01b815233818801908152602081019390935294859392849003604001928492165af1908115610dcb5789916111d5575b50156111c75787828280611177565b83516312171d8360e31b8152fd5b90508281813d8311611203575b6111ec81836116a3565b81010312610dc0576111fd906116c5565b896111b8565b503d6111e2565b506060820151151561111e565b61122d9250803d106105ee576105df81836116a3565b8f80611113565b89513d87823e3d90fd5b90925061124b915061165f565b6104e957818c865f6110d5565b8a513d88823e3d90fd5b8580fd5b611275909c919493929c61165f565b9a9091928c61107b565b89513d8f823e3d90fd5b9098508581813d83116112b1575b6112a181836116a3565b810103126106975751978c611046565b503d611297565b87516341c092a960e01b81528590fd5b506064358711610ffc565b88516341c092a960e01b81528690fd5b506044358810610fee565b9097508681813d8311611316575b61130681836116a3565b810103126106975751968d610fe3565b503d6112fc565b89513d8e823e3d90fd5b8851630cd5fa0760e11b81528690fd5b90508781813d8311611369575b61134e81836116a3565b810103126113655761135f906116c5565b8e610faf565b8c80fd5b503d611344565b8a513d8f823e3d90fd5b8751630ffd11ad60e01b81528590fd5b6113a19150843d86116105ee576105df81836116a3565b8a610f6c565b86513d8b823e3d90fd5b81516306fda65d60e31b81528690fd5b50505034610aa55781600319360112610aa55760015490516001600160a01b039091168152602090f35b915050833461099f57606036600319011261099f5782359360243593836044359560018060a01b0390816002541663a0e3605760e01b8452898585015281602485015283604460209586935afa9687156116295786976115fa575b508581126115eb57905b60035416845198632e3a4fc160e11b8a52858a806114838b87868b85016040919493926060820195825260208201520152565b0381855afa9485156115e15787956115af575b8651636df4d3d960e11b8152818101838152602081018c9052604081018b90529a9b5098999798978590899081906060010381865afa9788156115a5578998611576575b508651630c86db9560e31b815290810191825260208201939093526040810199909952606089018890529097829189918290819060800103915afa9485156109a957809561153c575b5060809650825195865285015283015215156060820152f35b9080955087813d831161156f575b61155481836116a3565b8101031261099f57506115686080966116c5565b9387611523565b503d61154a565b9097508481813d831161159e575b61158e81836116a3565b81010312610dc0575196846114da565b503d611584565b87513d8b823e3d90fd5b9450858a813d83116115da575b6115c681836116a3565b810103126102745798519798899894611496565b503d6115bc565b86513d89823e3d90fd5b6115f49061175b565b90611450565b9096508281813d8311611622575b61161281836116a3565b8101031261126257519589611446565b503d611608565b85513d88823e3d90fd5b600435906001600160a01b03821682036106f057565b60409060031901126106f0576004359060243590565b67ffffffffffffffff811161167357604052565b634e487b7160e01b5f52604160045260245ffd5b60e0810190811067ffffffffffffffff82111761167357604052565b90601f8019910116810190811067ffffffffffffffff82111761167357604052565b519081151582036106f057565b908160e09103126106f05760c0604051916116ec83611687565b805183526020810151602084015260408101516040840152606081015160608401526080810151608084015260a081015160a0840152015160c082015290565b9190915f838201938412911290801582169115161761174757565b634e487b7160e01b5f52601160045260245ffd5b600160ff1b8114611747575f039056fea2646970667358221220fcbf5d9c8a7584d442c0f2e97c9c0a2898c4f10bda424fc789fcbc130809f13164736f6c63430008140033","linkReferences":{}},"methodIdentifiers":{"PRECISION()":"aaf5eb68","closePosition(uint256,int256,uint256,uint256)":"623309b7","collateralToken()":"b2016bd4","depositCollateral(uint256,uint256)":"ece13732","getPositionWithPnL(address,uint256)":"db48fa36","ledger()":"56397c35","openPosition(uint256,int256,uint256,uint256,uint256)":"de366d11","owner()":"8da5cb5b","previewTrade(uint256,int256,uint256)":"0cd57818","priceEngine()":"8313e054","riskEngine()":"92b888ae","setEngines(address,address,address)":"6971c967","transferOwnership(address)":"f2fde38b","withdrawCollateral(uint256,uint256)":"767a7b05"},"id":25}