{"abi":[{"type":"constructor","inputs":[{"name":"_ledger","type":"address","internalType":"address"}],"stateMutability":"nonpayable"},{"type":"function","name":"BASIS_POINTS","inputs":[],"outputs":[{"name":"","type":"uint256","internalType":"uint256"}],"stateMutability":"view"},{"type":"function","name":"PRECISION","inputs":[],"outputs":[{"name":"","type":"uint256","internalType":"uint256"}],"stateMutability":"view"},{"type":"function","name":"SECONDS_PER_YEAR","inputs":[],"outputs":[{"name":"","type":"uint256","internalType":"uint256"}],"stateMutability":"view"},{"type":"function","name":"baseParams","inputs":[{"name":"","type":"uint256","internalType":"uint256"}],"outputs":[{"name":"initialMarginBps","type":"uint256","internalType":"uint256"},{"name":"maintenanceMarginBps","type":"uint256","internalType":"uint256"},{"name":"maxLeverage","type":"uint256","internalType":"uint256"},{"name":"baseBorrowRate","type":"uint256","internalType":"uint256"},{"name":"maxBorrowRate","type":"uint256","internalType":"uint256"},{"name":"optimalUtilization","type":"uint256","internalType":"uint256"},{"name":"liquidationPenaltyBps","type":"uint256","internalType":"uint256"}],"stateMutability":"view"},{"type":"function","name":"borrowIndex","inputs":[{"name":"","type":"uint256","internalType":"uint256"}],"outputs":[{"name":"","type":"uint256","internalType":"uint256"}],"stateMutability":"view"},{"type":"function","name":"checkInitialMargin","inputs":[{"name":"marketId","type":"uint256","internalType":"uint256"},{"name":"size","type":"uint256","internalType":"uint256"},{"name":"collateral","type":"uint256","internalType":"uint256"},{"name":"price","type":"uint256","internalType":"uint256"}],"outputs":[{"name":"","type":"bool","internalType":"bool"}],"stateMutability":"view"},{"type":"function","name":"checkOILimit","inputs":[{"name":"marketId","type":"uint256","internalType":"uint256"},{"name":"sizeDelta","type":"int256","internalType":"int256"}],"outputs":[{"name":"withinLimit","type":"bool","internalType":"bool"}],"stateMutability":"view"},{"type":"function","name":"dynamicParams","inputs":[{"name":"","type":"uint256","internalType":"uint256"}],"outputs":[{"name":"utilizationWeight","type":"uint256","internalType":"uint256"},{"name":"insuranceWeight","type":"uint256","internalType":"uint256"},{"name":"minLeverageRatio","type":"uint256","internalType":"uint256"},{"name":"oiToTvlRatio","type":"uint256","internalType":"uint256"},{"name":"oiToInsuranceRatio","type":"uint256","internalType":"uint256"}],"stateMutability":"view"},{"type":"function","name":"getEffectiveParams","inputs":[{"name":"marketId","type":"uint256","internalType":"uint256"}],"outputs":[{"name":"params","type":"tuple","internalType":"struct DynamicRiskEngine.EffectiveParams","components":[{"name":"maxLeverage","type":"uint256","internalType":"uint256"},{"name":"maxOI","type":"uint256","internalType":"uint256"},{"name":"initialMarginBps","type":"uint256","internalType":"uint256"},{"name":"maintenanceMarginBps","type":"uint256","internalType":"uint256"},{"name":"currentBorrowRate","type":"uint256","internalType":"uint256"}]}],"stateMutability":"view"},{"type":"function","name":"getGlobalUtilization","inputs":[],"outputs":[{"name":"","type":"uint256","internalType":"uint256"}],"stateMutability":"view"},{"type":"function","name":"getInsuranceHealthFactor","inputs":[],"outputs":[{"name":"","type":"uint256","internalType":"uint256"}],"stateMutability":"view"},{"type":"function","name":"getRiskMetrics","inputs":[{"name":"marketId","type":"uint256","internalType":"uint256"}],"outputs":[{"name":"effectiveMaxLeverage","type":"uint256","internalType":"uint256"},{"name":"effectiveMaxOI","type":"uint256","internalType":"uint256"},{"name":"currentUtilization","type":"uint256","internalType":"uint256"},{"name":"insuranceHealth","type":"uint256","internalType":"uint256"},{"name":"currentBorrowRate","type":"uint256","internalType":"uint256"},{"name":"isHighRisk","type":"bool","internalType":"bool"}],"stateMutability":"view"},{"type":"function","name":"globalPause","inputs":[],"outputs":[{"name":"","type":"bool","internalType":"bool"}],"stateMutability":"view"},{"type":"function","name":"insuranceFund","inputs":[],"outputs":[{"name":"","type":"address","internalType":"contract IInsuranceFund"}],"stateMutability":"view"},{"type":"function","name":"isLiquidatable","inputs":[{"name":"trader","type":"address","internalType":"address"},{"name":"marketId","type":"uint256","internalType":"uint256"},{"name":"currentPrice","type":"uint256","internalType":"uint256"}],"outputs":[{"name":"liquidatable","type":"bool","internalType":"bool"},{"name":"shortfall","type":"uint256","internalType":"uint256"}],"stateMutability":"view"},{"type":"function","name":"lastBorrowUpdate","inputs":[{"name":"","type":"uint256","internalType":"uint256"}],"outputs":[{"name":"","type":"uint256","internalType":"uint256"}],"stateMutability":"view"},{"type":"function","name":"ledger","inputs":[],"outputs":[{"name":"","type":"address","internalType":"contract IPositionLedger"}],"stateMutability":"view"},{"type":"function","name":"lpPool","inputs":[],"outputs":[{"name":"","type":"address","internalType":"contract ILPPool"}],"stateMutability":"view"},{"type":"function","name":"marketPaused","inputs":[{"name":"","type":"uint256","internalType":"uint256"}],"outputs":[{"name":"","type":"bool","internalType":"bool"}],"stateMutability":"view"},{"type":"function","name":"owner","inputs":[],"outputs":[{"name":"","type":"address","internalType":"address"}],"stateMutability":"view"},{"type":"function","name":"setBaseParams","inputs":[{"name":"marketId","type":"uint256","internalType":"uint256"},{"name":"initialMarginBps","type":"uint256","internalType":"uint256"},{"name":"maintenanceMarginBps","type":"uint256","internalType":"uint256"},{"name":"maxLeverage","type":"uint256","internalType":"uint256"},{"name":"baseBorrowRate","type":"uint256","internalType":"uint256"},{"name":"maxBorrowRate","type":"uint256","internalType":"uint256"},{"name":"optimalUtilization","type":"uint256","internalType":"uint256"},{"name":"liquidationPenaltyBps","type":"uint256","internalType":"uint256"}],"outputs":[],"stateMutability":"nonpayable"},{"type":"function","name":"setDynamicParams","inputs":[{"name":"marketId","type":"uint256","internalType":"uint256"},{"name":"utilizationWeight","type":"uint256","internalType":"uint256"},{"name":"insuranceWeight","type":"uint256","internalType":"uint256"},{"name":"minLeverageRatio","type":"uint256","internalType":"uint256"},{"name":"oiToTvlRatio","type":"uint256","internalType":"uint256"},{"name":"oiToInsuranceRatio","type":"uint256","internalType":"uint256"}],"outputs":[],"stateMutability":"nonpayable"},{"type":"function","name":"setInsuranceFund","inputs":[{"name":"_insuranceFund","type":"address","internalType":"address"}],"outputs":[],"stateMutability":"nonpayable"},{"type":"function","name":"setLPPool","inputs":[{"name":"_lpPool","type":"address","internalType":"address"}],"outputs":[],"stateMutability":"nonpayable"},{"type":"event","name":"BaseParamsSet","inputs":[{"name":"marketId","type":"uint256","indexed":true,"internalType":"uint256"}],"anonymous":false},{"type":"event","name":"DynamicParamsSet","inputs":[{"name":"marketId","type":"uint256","indexed":true,"internalType":"uint256"}],"anonymous":false},{"type":"event","name":"EffectiveParamsCalculated","inputs":[{"name":"marketId","type":"uint256","indexed":true,"internalType":"uint256"},{"name":"maxLeverage","type":"uint256","indexed":false,"internalType":"uint256"},{"name":"maxOI","type":"uint256","indexed":false,"internalType":"uint256"}],"anonymous":false},{"type":"error","name":"GloballyPaused","inputs":[]},{"type":"error","name":"InsufficientMargin","inputs":[]},{"type":"error","name":"MarketNotConfigured","inputs":[]},{"type":"error","name":"MarketPausedError","inputs":[]},{"type":"error","name":"Unauthorized","inputs":[]}],"bytecode":{"object":"0x60a03461009257601f6114b138819003918201601f19168301916001600160401b038311848410176100965780849260209460405283398101031261009257516001600160a01b03811690819003610092575f80546001600160a01b0319163317905560805260405161140690816100ab82396080518181816106f1015281816109f601528181610f0e01526111cc0152f35b5f80fd5b634e487b7160e01b5f52604160045260245ffdfe6080604081815260049081361015610015575f80fd5b5f92833560e01c9081630a9e47b6146107cd575080633737bcb4146107a45780633c1da0091461072057806356397c35146106dc5780635dc78f7c146105945780636436dca8146105685780637114220e1461053c5780637e5168d8146104ee5780638da5cb5b146104c65780639080043a1461049e578063a774e79d14610481578063aaf5eb681461045e578063ab0ddc8c14610431578063ad4a84ce146103ca578063b7902303146103a1578063c0d1a859146102ed578063c3c052931461029d578063cc70c0bc14610279578063e1f1c4a71461025c578063e6a69ab81461023d578063eaa33e1414610200578063ece153b6146101a4578063f12d54d81461017c5763f6fedf6c14610129575f80fd5b34610178576020366003190112610178578060a0938335815283602052208054926001820154926002830154916003840154930154938151958652602086015284015260608301526080820152f35b8280fd5b8382346101a057816003193601126101a05760209060ff6008541690519015158152f35b5080fd5b509034610178576020366003190112610178576101bf6107f6565b83546001600160a01b039391929190841633036101f4575050166bffffffffffffffffffffffff60a01b600254161760025580f35b516282b42960e81b8152fd5b50823461023a57606036600319011261023a575061022c61021f6107f6565b6044359060243590610ed6565b825191151582526020820152f35b80fd5b8382346101a057816003193601126101a057602090516301e133808152f35b8382346101a057816003193601126101a057602090516127108152f35b8382346101a057816003193601126101a057602090610296611269565b9051908152f35b509034610178576020366003190112610178576102b86107f6565b83546001600160a01b039391929190841633036101f4575050166bffffffffffffffffffffffff60a01b600154161760015580f35b50346101785760c0366003190112610178578254823592906001600160a01b031633036103945781519161032083610840565b6024358352602083016044358152818401606435815260608501916084358352608086019360a435855287895285602052882095518655516001860155516002850155516003840155519101557fe5964dc64cd6df9da24bc448a7c16b74569decfbbee228254ccabd36b68d61378280a280f35b90516282b42960e81b8152fd5b8382346101a057816003193601126101a05760015490516001600160a01b039091168152602090f35b509034610178576020366003190112610178578160e093823581526003602052208054926001820154926002830154600384015491840154926006600586015495015495815197885260208801528601526060850152608084015260a083015260c0820152f35b509034610178576020366003190112610178578160209360ff923581526007855220541690519015158152f35b8382346101a057816003193601126101a05760209051670de0b6b3a76400008152f35b8382346101a057816003193601126101a0576020906102966112d7565b5090346101785760203660031901126101785760209282913581526005845220549051908152f35b8382346101a057816003193601126101a057905490516001600160a01b039091168152602090f35b50823461023a57602036600319011261023a5750608061051060a093356108c3565b825192815184526020820151602085015280820151908401526060810151606084015201516080820152f35b50823461023a578160031936011261023a575061055f60209260243590356111a5565b90519015158152f35b50823461023a57608036600319011261023a575061055f60209260643590604435906024359035610e44565b5034610178576101003660031901126101785782548235926024359160443591906001600160a01b031633036106cf578282101561069a57906006918451936105dc85610810565b845260208401918252848401906064358252606085016084358152608086019060a435825260a087019360c435855260c088019560e43587528a8c526003602052898c2098518955516001890155516002880155516003870155519085015551600584015551910155600560205280832080541561067e575b50507f84451e607ffd5703be327c43fa774a201b51e68cf1a8c789bce32b273251b9c58280a280f35b670de0b6b3a76400009055600660205242908320555f80610655565b606490602085519162461bcd60e51b8352820152600f60248201526e4d4d206d757374206265203c20494d60881b6044820152fd5b83516282b42960e81b8152fd5b8382346101a057816003193601126101a057517f00000000000000000000000000000000000000000000000000000000000000006001600160a01b03168152602090f35b50823461023a57602036600319011261023a575061074060c092356108c3565b805191602082015191610751611269565b608061075b6112d7565b92015192670c7d713b49da00008211948515610792575b8151968752602087015285015260608401526080830152151560a0820152f35b6706f05b59d3b2000084109550610772565b8382346101a057816003193601126101a05760025490516001600160a01b039091168152602090f35b929050346107f25760203660031901126107f257926020933581526006845220548152f35b8380fd5b600435906001600160a01b038216820361080c57565b5f80fd5b60e0810190811067ffffffffffffffff82111761082c57604052565b634e487b7160e01b5f52604160045260245ffd5b60a0810190811067ffffffffffffffff82111761082c57604052565b90601f8019910116810190811067ffffffffffffffff82111761082c57604052565b8181029291811591840414171561089157565b634e487b7160e01b5f52601160045260245ffd5b81156108af570490565b634e487b7160e01b5f52601260045260245ffd5b90604051916108d183610840565b5f83525f60208401525f604084015260608301905f82525f608085015283815f52600360205260405f2091825490816040840152600260018501549485875201548352805f52600360205260405f206004602052600260405f209101549182670de0b6b3a7640000810204670de0b6b3a76400001483151715610891576002546001600160a01b031690811515670de0b6b3a76400008180610e3a575b610d99575b6001546001600160a01b031695861515958680610d8c575b610cbd575b6109b9670de0b6b3a7640000938460646109b160028396015483880261087e565b04940261087e565b0481811015610cb55750045b8752815f52600460205260405f209260405163eb44fdd360e01b815283600482015260e08160248160018060a01b037f0000000000000000000000000000000000000000000000000000000000000000165afa8015610b60576060915f91610c87575b5001519180610c7a575b610bfe575b508380610bf1575b610b6b575b610a539250602087015261132c565b6080850152610a64575b5050505050565b602060049160405192838092630c00f0ab60e11b82525afa8015610b60575f90610b23575b60ff16905080610ad4575060968102908082046096149015171561089157606460409104910152609681029080820460961490151715610891576064900490525b5f80808080610a5d565b600114610ae5575b50505050610aca565b607d810290808204607d149015171561089157606460409104910152607d810290808204607d1490151715610891576064900490525f808080610adc565b506020813d602011610b58575b81610b3d6020938361085c565b8101031261080c575160ff8116810361080c5760ff90610a89565b3d9150610b30565b6040513d5f823e3d90fd5b604051624b476b60e91b815292602084600481895afa938415610b60575f94610bbb575b50610ba4610a5394600460649301549061087e565b04818110610bb3575b50610a44565b90505f610bad565b93506020843d602011610be9575b81610bd66020938361085c565b8101031261080c57925192610ba4610b8f565b3d9150610bc9565b5060048301541515610a3f565b6020600491604051928380926278744560e21b82525afa908115610b60575f91610c46575b50610c3560649160038601549061087e565b0481811015610a375790505f610a37565b90506020813d602011610c72575b81610c616020938361085c565b8101031261080c5751610c35610c23565b3d9150610c54565b5060038401541515610a32565b610ca8915060e03d8111610cae575b610ca0818361085c565b810190611123565b5f610a28565b503d610c96565b9050046109c5565b9160405163489dd1c960e11b81526020816004818c5afa908115610b60575f91610d5a575b50670de0b6b3a76400008181031161089157610d0f606491600186015490670de0b6b3a76400000361087e565b04670de0b6b3a76400000390670de0b6b3a7640000821161089157670de0b6b3a7640000938460646109b1600283610d4b81986109b99861087e565b04985050505050915050610990565b90506020813d602011610d84575b81610d756020938361085c565b8101031261080c57515f610ce2565b3d9150610d68565b506001810154151561098b565b604051637510e6c960e11b8152602081600481885afa908115610b60575f91610e06575b50610dcc60649187549061087e565b04670de0b6b3a76400008110610de3575b50610973565b9050670de0b6b3a76400008181031161089157670de0b6b3a7640000035f610ddd565b90506020813d602011610e32575b81610e216020938361085c565b8101031261080c5751610dcc610dbd565b3d9150610e14565b508454151561096e565b610e50909391936108c3565b92610e65670de0b6b3a764000092839261087e565b0492612710610e7860408301518661087e565b04938315610ebd57828102908082048414901517156108915783610e9b916108a5565b90518281029281840414901517156108915711610eb757101590565b50505f90565b50505050505f90565b600160ff1b8114610891575f0390565b60408051633adbb5af60e01b81526001600160a01b0392831660048201819052602482018590525f96879690958795929391929091907f00000000000000000000000000000000000000000000000000000000000000001660e082604481845afa91821561111957879261109a575b50602082019283511561108b57806064610f606020936108c3565b97895194859384926302986a7560e41b8452600484015260248301528860448301525afa9586156110825750869561104a575b506060015185858201958612911290801582169115161761103657916060670de0b6b3a7640000610fd8610fe2948661271097518a8112155f1461102757505161087e565b049101519061087e565b0491828212610ff057505050565b919450919250600193818382039312818412811691841390151617611013575090565b634e487b7160e01b81526011600452602490fd5b6110319150610ec6565b61087e565b634e487b7160e01b85526011600452602485fd5b9094506020813d821161107a575b816110656020938361085c565b810103126110765751936060610f93565b8580fd5b3d9150611058565b513d88823e3d90fd5b50505050505050925090508190565b90915060e0813d8211611111575b816110b560e0938361085c565b8101031261110d5760c08651916110cb83610810565b80518352602081015160208401528781015188840152606081015160608401526080810151608084015260a081015160a0840152015160c0820152905f610f45565b8680fd5b3d91506110a8565b86513d89823e3d90fd5b908160e091031261080c576040519061113b82610810565b8051906001600160a01b038216820361080c5760c09183526020810151602084015260408101516040840152606081015160608401526080810151608084015260a081015160a08401520151801515810361080c5760c082015290565b9190820180921161089157565b6111ae816108c3565b60405163eb44fdd360e01b815260048101929092529160e0826024817f00000000000000000000000000000000000000000000000000000000000000006001600160a01b03165afa908115610b60576020925f92611249575b505f8112611239575f815b131561122c5782611224920151611198565b910151101590565b6040611224920151611198565b5f61124382610ec6565b91611212565b61126291925060e03d8111610cae57610ca0818361085c565b905f611207565b6002546001600160a01b031680156112d257602060049160405192838092637510e6c960e11b82525afa908115610b60575f916112a4575090565b906020823d82116112ca575b816112bd6020938361085c565b8101031261023a57505190565b3d91506112b0565b505f90565b6001546001600160a01b031680156113125760206004916040519283809263489dd1c960e11b82525afa908115610b60575f916112a4575090565b50670de0b6b3a764000090565b9190820391821161089157565b5f52600360205260405f2061133f611269565b600582015491828211611386576113839261137860049361103184611370600361137d970154978892015482611198565b60011c61131f565b6108a5565b90611198565b90565b916113a88161139f600460038701549601548096611198565b60011c9361131f565b90670de0b6b3a76400009081039081116108915761137861137d92611031856113839761131f56fea2646970667358221220778fc0583898ca07f22a311fa48f2c3ea77bfef0e87a2a34df082eff1dd8c48564736f6c63430008140033","linkReferences":{}},"methodIdentifiers":{"BASIS_POINTS()":"e1f1c4a7","PRECISION()":"aaf5eb68","SECONDS_PER_YEAR()":"e6a69ab8","baseParams(uint256)":"ad4a84ce","borrowIndex(uint256)":"9080043a","checkInitialMargin(uint256,uint256,uint256,uint256)":"6436dca8","checkOILimit(uint256,int256)":"7114220e","dynamicParams(uint256)":"f6fedf6c","getEffectiveParams(uint256)":"7e5168d8","getGlobalUtilization()":"cc70c0bc","getInsuranceHealthFactor()":"a774e79d","getRiskMetrics(uint256)":"3c1da009","globalPause()":"f12d54d8","insuranceFund()":"b7902303","isLiquidatable(address,uint256,uint256)":"eaa33e14","lastBorrowUpdate(uint256)":"0a9e47b6","ledger()":"56397c35","lpPool()":"3737bcb4","marketPaused(uint256)":"ab0ddc8c","owner()":"8da5cb5b","setBaseParams(uint256,uint256,uint256,uint256,uint256,uint256,uint256,uint256)":"5dc78f7c","setDynamicParams(uint256,uint256,uint256,uint256,uint256,uint256)":"c0d1a859","setInsuranceFund(address)":"c3c05293","setLPPool(address)":"ece153b6"},"id":17}