{"abi":[{"type":"constructor","inputs":[{"name":"_ledger","type":"address","internalType":"address"}],"stateMutability":"nonpayable"},{"type":"function","name":"BASIS_POINTS","inputs":[],"outputs":[{"name":"","type":"uint256","internalType":"uint256"}],"stateMutability":"view"},{"type":"function","name":"PRECISION","inputs":[],"outputs":[{"name":"","type":"uint256","internalType":"uint256"}],"stateMutability":"view"},{"type":"function","name":"SECONDS_PER_YEAR","inputs":[],"outputs":[{"name":"","type":"uint256","internalType":"uint256"}],"stateMutability":"view"},{"type":"function","name":"accrueInterest","inputs":[{"name":"marketId","type":"uint256","internalType":"uint256"}],"outputs":[],"stateMutability":"nonpayable"},{"type":"function","name":"baseParams","inputs":[{"name":"","type":"uint256","internalType":"uint256"}],"outputs":[{"name":"initialMarginBps","type":"uint256","internalType":"uint256"},{"name":"maintenanceMarginBps","type":"uint256","internalType":"uint256"},{"name":"maxLeverage","type":"uint256","internalType":"uint256"},{"name":"baseBorrowRate","type":"uint256","internalType":"uint256"},{"name":"maxBorrowRate","type":"uint256","internalType":"uint256"},{"name":"optimalUtilization","type":"uint256","internalType":"uint256"},{"name":"liquidationPenaltyBps","type":"uint256","internalType":"uint256"}],"stateMutability":"view"},{"type":"function","name":"borrowIndex","inputs":[{"name":"","type":"uint256","internalType":"uint256"}],"outputs":[{"name":"","type":"uint256","internalType":"uint256"}],"stateMutability":"view"},{"type":"function","name":"checkInitialMargin","inputs":[{"name":"marketId","type":"uint256","internalType":"uint256"},{"name":"size","type":"uint256","internalType":"uint256"},{"name":"collateral","type":"uint256","internalType":"uint256"},{"name":"price","type":"uint256","internalType":"uint256"}],"outputs":[{"name":"","type":"bool","internalType":"bool"}],"stateMutability":"view"},{"type":"function","name":"checkOILimit","inputs":[{"name":"marketId","type":"uint256","internalType":"uint256"},{"name":"sizeDelta","type":"int256","internalType":"int256"}],"outputs":[{"name":"withinLimit","type":"bool","internalType":"bool"}],"stateMutability":"view"},{"type":"function","name":"dynamicParams","inputs":[{"name":"","type":"uint256","internalType":"uint256"}],"outputs":[{"name":"utilizationWeight","type":"uint256","internalType":"uint256"},{"name":"insuranceWeight","type":"uint256","internalType":"uint256"},{"name":"minLeverageRatio","type":"uint256","internalType":"uint256"},{"name":"oiToTvlRatio","type":"uint256","internalType":"uint256"},{"name":"oiToInsuranceRatio","type":"uint256","internalType":"uint256"}],"stateMutability":"view"},{"type":"function","name":"getEffectiveParams","inputs":[{"name":"marketId","type":"uint256","internalType":"uint256"}],"outputs":[{"name":"params","type":"tuple","internalType":"struct DynamicRiskEngine.EffectiveParams","components":[{"name":"maxLeverage","type":"uint256","internalType":"uint256"},{"name":"maxOI","type":"uint256","internalType":"uint256"},{"name":"initialMarginBps","type":"uint256","internalType":"uint256"},{"name":"maintenanceMarginBps","type":"uint256","internalType":"uint256"},{"name":"currentBorrowRate","type":"uint256","internalType":"uint256"}]}],"stateMutability":"view"},{"type":"function","name":"getGlobalUtilization","inputs":[],"outputs":[{"name":"","type":"uint256","internalType":"uint256"}],"stateMutability":"view"},{"type":"function","name":"getInsuranceHealthFactor","inputs":[],"outputs":[{"name":"","type":"uint256","internalType":"uint256"}],"stateMutability":"view"},{"type":"function","name":"getLiquidationPenalty","inputs":[{"name":"marketId","type":"uint256","internalType":"uint256"},{"name":"collateral","type":"uint256","internalType":"uint256"}],"outputs":[{"name":"","type":"uint256","internalType":"uint256"}],"stateMutability":"view"},{"type":"function","name":"getMaxPositionSize","inputs":[{"name":"marketId","type":"uint256","internalType":"uint256"},{"name":"collateral","type":"uint256","internalType":"uint256"},{"name":"price","type":"uint256","internalType":"uint256"}],"outputs":[{"name":"","type":"uint256","internalType":"uint256"}],"stateMutability":"view"},{"type":"function","name":"getPendingBorrowFee","inputs":[{"name":"trader","type":"address","internalType":"address"},{"name":"marketId","type":"uint256","internalType":"uint256"}],"outputs":[{"name":"","type":"uint256","internalType":"uint256"}],"stateMutability":"view"},{"type":"function","name":"getRequiredCollateral","inputs":[{"name":"marketId","type":"uint256","internalType":"uint256"},{"name":"size","type":"uint256","internalType":"uint256"},{"name":"price","type":"uint256","internalType":"uint256"}],"outputs":[{"name":"initial","type":"uint256","internalType":"uint256"},{"name":"maintenance","type":"uint256","internalType":"uint256"}],"stateMutability":"view"},{"type":"function","name":"getRiskMetrics","inputs":[{"name":"marketId","type":"uint256","internalType":"uint256"}],"outputs":[{"name":"effectiveMaxLeverage","type":"uint256","internalType":"uint256"},{"name":"effectiveMaxOI","type":"uint256","internalType":"uint256"},{"name":"currentUtilization","type":"uint256","internalType":"uint256"},{"name":"insuranceHealth","type":"uint256","internalType":"uint256"},{"name":"currentBorrowRate","type":"uint256","internalType":"uint256"},{"name":"isHighRisk","type":"bool","internalType":"bool"}],"stateMutability":"view"},{"type":"function","name":"getUtilization","inputs":[{"name":"marketId","type":"uint256","internalType":"uint256"}],"outputs":[{"name":"totalOI","type":"uint256","internalType":"uint256"},{"name":"totalLPCapital","type":"uint256","internalType":"uint256"},{"name":"utilization","type":"uint256","internalType":"uint256"},{"name":"currentBorrowRate","type":"uint256","internalType":"uint256"}],"stateMutability":"view"},{"type":"function","name":"globalPause","inputs":[],"outputs":[{"name":"","type":"bool","internalType":"bool"}],"stateMutability":"view"},{"type":"function","name":"insuranceFund","inputs":[],"outputs":[{"name":"","type":"address","internalType":"contract IInsuranceFund"}],"stateMutability":"view"},{"type":"function","name":"isLiquidatable","inputs":[{"name":"trader","type":"address","internalType":"address"},{"name":"marketId","type":"uint256","internalType":"uint256"},{"name":"currentPrice","type":"uint256","internalType":"uint256"}],"outputs":[{"name":"liquidatable","type":"bool","internalType":"bool"},{"name":"shortfall","type":"uint256","internalType":"uint256"}],"stateMutability":"view"},{"type":"function","name":"lastBorrowUpdate","inputs":[{"name":"","type":"uint256","internalType":"uint256"}],"outputs":[{"name":"","type":"uint256","internalType":"uint256"}],"stateMutability":"view"},{"type":"function","name":"ledger","inputs":[],"outputs":[{"name":"","type":"address","internalType":"contract IPositionLedger"}],"stateMutability":"view"},{"type":"function","name":"lpPool","inputs":[],"outputs":[{"name":"","type":"address","internalType":"contract ILPPool"}],"stateMutability":"view"},{"type":"function","name":"marketPaused","inputs":[{"name":"","type":"uint256","internalType":"uint256"}],"outputs":[{"name":"","type":"bool","internalType":"bool"}],"stateMutability":"view"},{"type":"function","name":"owner","inputs":[],"outputs":[{"name":"","type":"address","internalType":"address"}],"stateMutability":"view"},{"type":"function","name":"setBaseParams","inputs":[{"name":"marketId","type":"uint256","internalType":"uint256"},{"name":"initialMarginBps","type":"uint256","internalType":"uint256"},{"name":"maintenanceMarginBps","type":"uint256","internalType":"uint256"},{"name":"maxLeverage","type":"uint256","internalType":"uint256"},{"name":"baseBorrowRate","type":"uint256","internalType":"uint256"},{"name":"maxBorrowRate","type":"uint256","internalType":"uint256"},{"name":"optimalUtilization","type":"uint256","internalType":"uint256"},{"name":"liquidationPenaltyBps","type":"uint256","internalType":"uint256"}],"outputs":[],"stateMutability":"nonpayable"},{"type":"function","name":"setDynamicParams","inputs":[{"name":"marketId","type":"uint256","internalType":"uint256"},{"name":"utilizationWeight","type":"uint256","internalType":"uint256"},{"name":"insuranceWeight","type":"uint256","internalType":"uint256"},{"name":"minLeverageRatio","type":"uint256","internalType":"uint256"},{"name":"oiToTvlRatio","type":"uint256","internalType":"uint256"},{"name":"oiToInsuranceRatio","type":"uint256","internalType":"uint256"}],"outputs":[],"stateMutability":"nonpayable"},{"type":"function","name":"setInsuranceFund","inputs":[{"name":"_insuranceFund","type":"address","internalType":"address"}],"outputs":[],"stateMutability":"nonpayable"},{"type":"function","name":"setLPPool","inputs":[{"name":"_lpPool","type":"address","internalType":"address"}],"outputs":[],"stateMutability":"nonpayable"},{"type":"event","name":"BaseParamsSet","inputs":[{"name":"marketId","type":"uint256","indexed":true,"internalType":"uint256"}],"anonymous":false},{"type":"event","name":"DynamicParamsSet","inputs":[{"name":"marketId","type":"uint256","indexed":true,"internalType":"uint256"}],"anonymous":false},{"type":"event","name":"EffectiveParamsCalculated","inputs":[{"name":"marketId","type":"uint256","indexed":true,"internalType":"uint256"},{"name":"maxLeverage","type":"uint256","indexed":false,"internalType":"uint256"},{"name":"maxOI","type":"uint256","indexed":false,"internalType":"uint256"}],"anonymous":false},{"type":"error","name":"GloballyPaused","inputs":[]},{"type":"error","name":"InsufficientMargin","inputs":[]},{"type":"error","name":"MarketNotConfigured","inputs":[]},{"type":"error","name":"MarketPausedError","inputs":[]},{"type":"error","name":"Unauthorized","inputs":[]}],"bytecode":{"object":"0x60a0346100a057601f61197c38819003918201601f19168301916001600160401b038311848410176100a4578084926020946040528339810103126100a057516001600160a01b038116908190036100a0575f80546001600160a01b031916331790556080526040516118c390816100b982396080518181816107f60152818161094701528181610ca7015281816112010152818161147301526116030152f35b5f80fd5b634e487b7160e01b5f52604160045260245ffdfe6080604081815260049081361015610015575f80fd5b5f92833560e01c9081630a9e47b614610a68575080631da608611461090b5780633737bcb4146108e25780633c1da0091461085e57806341d1fb201461082557806356397c35146107e15780635c749f82146107835780635dc78f7c1461063b5780636436dca81461060f5780637114220e146105e35780637e5168d8146105955780638da5cb5b1461056d5780639080043a14610545578063a774e79d14610528578063aaf5eb6814610505578063ab0ddc8c146104d8578063ad4a84ce14610471578063b790230314610448578063c0d1a85914610394578063c3c0529314610344578063cc70c0bc14610327578063dbe9a7b21461030b578063e0dc1750146102eb578063e1f1c4a7146102ce578063e6a69ab8146102af578063eaa33e1414610272578063ece153b614610216578063f12d54d8146101f2578063f2941219146101be5763f6fedf6c1461016b575f80fd5b346101ba5760203660031901126101ba578060a0938335815283602052208054926001820154926002830154916003840154930154938151958652602086015284015260608301526080820152f35b8280fd5b8382346101ee57806003193601126101ee576020906101e76101de610aab565b602435906115d3565b9051908152f35b5080fd5b8382346101ee57816003193601126101ee5760209060ff6008541690519015158152f35b5090346101ba5760203660031901126101ba57610231610aab565b83546001600160a01b03939192919084163303610266575050166bffffffffffffffffffffffff60a01b600254161760025580f35b516282b42960e81b8152fd5b5082346102ac5760603660031901126102ac575061029e610291610aab565b60443590602435906111d1565b825191151582526020820152f35b80fd5b8382346101ee57816003193601126101ee57602090516301e133808152f35b8382346101ee57816003193601126101ee57602090516127108152f35b5050346101ee5760203660031901126101ee57610308903561175b565b80f35b8382346101ee576020906101e761032136610a8d565b91611719565b8382346101ee57816003193601126101ee576020906101e7611510565b5090346101ba5760203660031901126101ba5761035f610aab565b83546001600160a01b03939192919084163303610266575050166bffffffffffffffffffffffff60a01b600154161760015580f35b50346101ba5760c03660031901126101ba578254823592906001600160a01b0316330361043b578151916103c783610af1565b6024358352602083016044358152818401606435815260608501916084358352608086019360a435855287895285602052882095518655516001860155516002850155516003840155519101557fe5964dc64cd6df9da24bc448a7c16b74569decfbbee228254ccabd36b68d61378280a280f35b90516282b42960e81b8152fd5b8382346101ee57816003193601126101ee5760015490516001600160a01b039091168152602090f35b5090346101ba5760203660031901126101ba578160e093823581526003602052208054926001820154926002830154600384015491840154926006600586015495015495815197885260208801528601526060850152608084015260a083015260c0820152f35b5090346101ba5760203660031901126101ba578160209360ff923581526007855220541690519015158152f35b8382346101ee57816003193601126101ee5760209051670de0b6b3a76400008152f35b8382346101ee57816003193601126101ee576020906101e761157e565b5090346101ba5760203660031901126101ba5760209282913581526005845220549051908152f35b8382346101ee57816003193601126101ee57905490516001600160a01b039091168152602090f35b5082346102ac5760203660031901126102ac575060806105b760a09335610b74565b825192815184526020820151602085015280820151908401526060810151606084015201516080820152f35b5082346102ac57816003193601126102ac5750610606602092602435903561144c565b90519015158152f35b5082346102ac5760803660031901126102ac5750610606602092606435906044359060243590356110e5565b50346101ba576101003660031901126101ba5782548235926024359160443591906001600160a01b031633036107765782821015610741579060069184519361068385610ac1565b845260208401918252848401906064358252606085016084358152608086019060a435825260a087019360c435855260c088019560e43587528a8c526003602052898c20985189555160018901555160028801555160038701555190850155516005840155519101556005602052808320805415610725575b50507f84451e607ffd5703be327c43fa774a201b51e68cf1a8c789bce32b273251b9c58280a280f35b670de0b6b3a76400009055600660205242908320555f806106fc565b606490602085519162461bcd60e51b8352820152600f60248201526e4d4d206d757374206265203c20494d60881b6044820152fd5b83516282b42960e81b8152fd5b5082346102ac57506107ac670de0b6b3a76400006107b26107a336610a8d565b91949094610b74565b93610b2f565b046107d4612710916060836107ca8787015184610b2f565b0494015190610b2f565b0482519182526020820152f35b8382346101ee57816003193601126101ee57517f00000000000000000000000000000000000000000000000000000000000000006001600160a01b03168152602090f35b5090346101ba57816003193601126101ba576108566006836020956127109435815260038752200154602435610b2f565b049051908152f35b5082346102ac5760203660031901126102ac575061087e60c09235610b74565b80519160208201519161088f611510565b608061089961157e565b92015192670c7d713b49da000082119485156108d0575b8151968752602087015285015260608401526080830152151560a0820152f35b6706f05b59d3b20000841095506108b0565b8382346101ee57816003193601126101ee5760025490516001600160a01b039091168152602090f35b50346101ba5760209081600319360112610a6457805163eb44fdd360e01b815283358185018190526001600160a01b039490929160e0816024817f00000000000000000000000000000000000000000000000000000000000000008a165afa908115610a5a579061098c918891610a2c575b5083868201519101519061143f565b6002549095168015610a225784908351928380926278744560e21b82525afa908115610a185786916109e3575b50608095505b6109d06109ca611510565b936117ec565b9382519586528501528301526060820152f35b90508381813d8311610a11575b6109fa8183610b0d565b81010312610a0d5760809550515f6109b9565b8580fd5b503d6109f0565b82513d88823e3d90fd5b50506080946109bf565b610a4d915060e03d8111610a53575b610a458183610b0d565b8101906113ca565b5f61097d565b503d610a3b565b83513d89823e3d90fd5b8380fd5b92905034610a64576020366003190112610a6457926020933581526006845220548152f35b6060906003190112610aa757600435906024359060443590565b5f80fd5b600435906001600160a01b0382168203610aa757565b60e0810190811067ffffffffffffffff821117610add57604052565b634e487b7160e01b5f52604160045260245ffd5b60a0810190811067ffffffffffffffff821117610add57604052565b90601f8019910116810190811067ffffffffffffffff821117610add57604052565b81810292918115918404141715610b4257565b634e487b7160e01b5f52601160045260245ffd5b8115610b60570490565b634e487b7160e01b5f52601260045260245ffd5b9060405191610b8283610af1565b5f83525f60208401525f604084015260608301905f82525f608085015283815f52600360205260405f2091825490816040840152600260018501549485875201548352805f52600360205260405f206004602052600260405f209101549182670de0b6b3a7640000810204670de0b6b3a76400001483151715610b42576002546001600160a01b031690811515670de0b6b3a764000081806110db575b61103a575b6001546001600160a01b03169586151595868061102d575b610f5e575b610c6a670de0b6b3a764000093846064610c62600283960154838802610b2f565b049402610b2f565b0481811015610f565750045b8752815f52600460205260405f209260405163eb44fdd360e01b815283600482015260e08160248160018060a01b037f0000000000000000000000000000000000000000000000000000000000000000165afa8015610e11576060915f91610f38575b5001519180610f2b575b610eaf575b508380610ea2575b610e1c575b610d04925060208701526117ec565b6080850152610d15575b5050505050565b602060049160405192838092630c00f0ab60e11b82525afa8015610e11575f90610dd4575b60ff16905080610d855750609681029080820460961490151715610b4257606460409104910152609681029080820460961490151715610b42576064900490525b5f80808080610d0e565b600114610d96575b50505050610d7b565b607d810290808204607d1490151715610b4257606460409104910152607d810290808204607d1490151715610b42576064900490525f808080610d8d565b506020813d602011610e09575b81610dee60209383610b0d565b81010312610aa7575160ff81168103610aa75760ff90610d3a565b3d9150610de1565b6040513d5f823e3d90fd5b604051624b476b60e91b815292602084600481895afa938415610e11575f94610e6c575b50610e55610d04946004606493015490610b2f565b04818110610e64575b50610cf5565b90505f610e5e565b93506020843d602011610e9a575b81610e8760209383610b0d565b81010312610aa757925192610e55610e40565b3d9150610e7a565b5060048301541515610cf0565b6020600491604051928380926278744560e21b82525afa908115610e11575f91610ef7575b50610ee6606491600386015490610b2f565b0481811015610ce85790505f610ce8565b90506020813d602011610f23575b81610f1260209383610b0d565b81010312610aa75751610ee6610ed4565b3d9150610f05565b5060038401541515610ce3565b610f50915060e03d8111610a5357610a458183610b0d565b5f610cd9565b905004610c76565b9160405163489dd1c960e11b81526020816004818c5afa908115610e11575f91610ffb575b50670de0b6b3a764000081810311610b4257610fb0606491600186015490670de0b6b3a764000003610b2f565b04670de0b6b3a76400000390670de0b6b3a76400008211610b4257670de0b6b3a764000093846064610c62600283610fec8198610c6a98610b2f565b04985050505050915050610c41565b90506020813d602011611025575b8161101660209383610b0d565b81010312610aa757515f610f83565b3d9150611009565b5060018101541515610c3c565b604051637510e6c960e11b8152602081600481885afa908115610e11575f916110a7575b5061106d606491875490610b2f565b04670de0b6b3a76400008110611084575b50610c24565b9050670de0b6b3a764000081810311610b4257670de0b6b3a7640000035f61107e565b90506020813d6020116110d3575b816110c260209383610b0d565b81010312610aa7575161106d61105e565b3d91506110b5565b5084541515610c1f565b6110f190939193610b74565b92611106670de0b6b3a7640000928392610b2f565b0492612710611119604083015186610b2f565b0493831561115e5782810290808204841490151715610b42578361113c91610b56565b9051828102928184041490151715610b42571161115857101590565b50505f90565b50505050505f90565b908160e0910312610aa75760c06040519161118183610ac1565b805183526020810151602084015260408101516040840152606081015160608401526080810151608084015260a081015160a0840152015160c082015290565b600160ff1b8114610b42575f0390565b604051633adbb5af60e01b81526001600160a01b038281166004830152602482018490525f9586959094869490937f000000000000000000000000000000000000000000000000000000000000000084169360e082604481885afa9182156113bf57879261138f575b5060208201928351156113805790606460209261125689610b74565b97604051998a9485936302986a7560e41b855216600484015260248301528760448301525afa948515611375578695611341575b506060015185858201958612911290801582169115161761132d57916060670de0b6b3a76400006112cf6112d9948661271097518a8112155f1461131e575051610b2f565b0491015190610b2f565b04918282126112e757505050565b91945091925060019381838203931281841281169184139015161761130a575090565b634e487b7160e01b81526011600452602490fd5b61132891506111c1565b610b2f565b634e487b7160e01b85526011600452602485fd5b9094506020813d821161136d575b8161135c60209383610b0d565b81010312610a0d575193606061128a565b3d915061134f565b6040513d88823e3d90fd5b50505050505050925090508190565b6113b191925060e03d81116113b8575b6113a98183610b0d565b810190611167565b905f61123a565b503d61139f565b6040513d89823e3d90fd5b908160e0910312610aa757604051906113e282610ac1565b8051906001600160a01b0382168203610aa75760c09183526020810151602084015260408101516040840152606081015160608401526080810151608084015260a081015160a084015201518015158103610aa75760c082015290565b91908201809211610b4257565b61145581610b74565b60405163eb44fdd360e01b815260048101929092529160e0826024817f00000000000000000000000000000000000000000000000000000000000000006001600160a01b03165afa908115610e11576020925f926114f0575b505f81126114e0575f815b13156114d357826114cb92015161143f565b910151101590565b60406114cb92015161143f565b5f6114ea826111c1565b916114b9565b61150991925060e03d8111610a5357610a458183610b0d565b905f6114ae565b6002546001600160a01b0316801561157957602060049160405192838092637510e6c960e11b82525afa908115610e11575f9161154b575090565b906020823d8211611571575b8161156460209383610b0d565b810103126102ac57505190565b3d9150611557565b505f90565b6001546001600160a01b031680156115b95760206004916040519283809263489dd1c960e11b82525afa908115610e11575f9161154b575090565b50670de0b6b3a764000090565b91908203918211610b4257565b604051633adbb5af60e01b81526001600160a01b0390911660048201526024810182905260e081806044810103817f00000000000000000000000000000000000000000000000000000000000000006001600160a01b03165afa908115610e11575f916116fb575b5060208101918251156116f4575f52600560205260405f20549060c081019081518381159182156116e9575b50506116e1578351604094611694915f81126116d25750515b670de0b6b3a7640000958693015190610b2f565b049183810290808204851490151715610b42576116b2915190610b56565b670de0b6b3a763ffff198101908111610b42576116ce91610b2f565b0490565b6116dc91506111c1565b611680565b505050505f90565b10159050835f611667565b5050505f90565b611713915060e03d81116113b8576113a98183610b0d565b5f61163b565b61172290610b74565b9082156116f457611734915190610b2f565b90670de0b6b3a764000091828102928184041490151715610b425761175891610b56565b90565b5f9080825260066020526040822054801580156117e2575b6117dd576301e1338061179b61178c6117c393426115c6565b611795856117ec565b90610b2f565b048284526005602052670de0b6b3a76400006117bc60408620549283610b2f565b049061143f565b908252600560205260408220556006602052604042912055565b505050565b5080421115611773565b5f52600360205260405f206117ff611510565b600582015491828211611843576117589261183860049361132884611830600361183d97015497889201548261143f565b60011c6115c6565b610b56565b9061143f565b916118658161185c60046003870154960154809661143f565b60011c936115c6565b90670de0b6b3a7640000908103908111610b425761183861183d9261132885611758976115c656fea2646970667358221220dd39203ed254038d2ac300e59a30fb1c1dcd7ca081981f47416041244a642c6864736f6c63430008140033","linkReferences":{}},"methodIdentifiers":{"BASIS_POINTS()":"e1f1c4a7","PRECISION()":"aaf5eb68","SECONDS_PER_YEAR()":"e6a69ab8","accrueInterest(uint256)":"e0dc1750","baseParams(uint256)":"ad4a84ce","borrowIndex(uint256)":"9080043a","checkInitialMargin(uint256,uint256,uint256,uint256)":"6436dca8","checkOILimit(uint256,int256)":"7114220e","dynamicParams(uint256)":"f6fedf6c","getEffectiveParams(uint256)":"7e5168d8","getGlobalUtilization()":"cc70c0bc","getInsuranceHealthFactor()":"a774e79d","getLiquidationPenalty(uint256,uint256)":"41d1fb20","getMaxPositionSize(uint256,uint256,uint256)":"dbe9a7b2","getPendingBorrowFee(address,uint256)":"f2941219","getRequiredCollateral(uint256,uint256,uint256)":"5c749f82","getRiskMetrics(uint256)":"3c1da009","getUtilization(uint256)":"1da60861","globalPause()":"f12d54d8","insuranceFund()":"b7902303","isLiquidatable(address,uint256,uint256)":"eaa33e14","lastBorrowUpdate(uint256)":"0a9e47b6","ledger()":"56397c35","lpPool()":"3737bcb4","marketPaused(uint256)":"ab0ddc8c","owner()":"8da5cb5b","setBaseParams(uint256,uint256,uint256,uint256,uint256,uint256,uint256,uint256)":"5dc78f7c","setDynamicParams(uint256,uint256,uint256,uint256,uint256,uint256)":"c0d1a859","setInsuranceFund(address)":"c3c05293","setLPPool(address)":"ece153b6"},"id":17}